{
  "contractName": "IntangibleNFT",
  "abi": [
    {
      "inputs": [],
      "stateMutability": "nonpayable",
      "type": "constructor"
    },
    {
      "anonymous": false,
      "inputs": [
        {
          "indexed": true,
          "internalType": "address",
          "name": "account",
          "type": "address"
        }
      ],
      "name": "AddedToWhitelist",
      "type": "event"
    },
    {
      "anonymous": false,
      "inputs": [
        {
          "indexed": true,
          "internalType": "address",
          "name": "owner",
          "type": "address"
        },
        {
          "indexed": true,
          "internalType": "address",
          "name": "approved",
          "type": "address"
        },
        {
          "indexed": true,
          "internalType": "uint256",
          "name": "tokenId",
          "type": "uint256"
        }
      ],
      "name": "Approval",
      "type": "event"
    },
    {
      "anonymous": false,
      "inputs": [
        {
          "indexed": true,
          "internalType": "address",
          "name": "owner",
          "type": "address"
        },
        {
          "indexed": true,
          "internalType": "address",
          "name": "operator",
          "type": "address"
        },
        {
          "indexed": false,
          "internalType": "bool",
          "name": "approved",
          "type": "bool"
        }
      ],
      "name": "ApprovalForAll",
      "type": "event"
    },
    {
      "anonymous": false,
      "inputs": [
        {
          "indexed": true,
          "internalType": "address",
          "name": "previousOwner",
          "type": "address"
        },
        {
          "indexed": true,
          "internalType": "address",
          "name": "newOwner",
          "type": "address"
        }
      ],
      "name": "OwnershipTransferred",
      "type": "event"
    },
    {
      "anonymous": false,
      "inputs": [
        {
          "indexed": true,
          "internalType": "address",
          "name": "account",
          "type": "address"
        }
      ],
      "name": "RemovedFromWhitelist",
      "type": "event"
    },
    {
      "anonymous": false,
      "inputs": [
        {
          "indexed": true,
          "internalType": "address",
          "name": "from",
          "type": "address"
        },
        {
          "indexed": true,
          "internalType": "address",
          "name": "to",
          "type": "address"
        },
        {
          "indexed": true,
          "internalType": "uint256",
          "name": "tokenId",
          "type": "uint256"
        }
      ],
      "name": "Transfer",
      "type": "event"
    },
    {
      "inputs": [
        {
          "internalType": "address",
          "name": "to",
          "type": "address"
        },
        {
          "internalType": "uint256",
          "name": "tokenId",
          "type": "uint256"
        }
      ],
      "name": "approve",
      "outputs": [],
      "stateMutability": "nonpayable",
      "type": "function"
    },
    {
      "inputs": [
        {
          "internalType": "address",
          "name": "owner",
          "type": "address"
        }
      ],
      "name": "balanceOf",
      "outputs": [
        {
          "internalType": "uint256",
          "name": "",
          "type": "uint256"
        }
      ],
      "stateMutability": "view",
      "type": "function"
    },
    {
      "inputs": [],
      "name": "baseURI",
      "outputs": [
        {
          "internalType": "string",
          "name": "",
          "type": "string"
        }
      ],
      "stateMutability": "view",
      "type": "function"
    },
    {
      "inputs": [
        {
          "internalType": "uint256",
          "name": "tokenId",
          "type": "uint256"
        }
      ],
      "name": "getApproved",
      "outputs": [
        {
          "internalType": "address",
          "name": "",
          "type": "address"
        }
      ],
      "stateMutability": "view",
      "type": "function"
    },
    {
      "inputs": [
        {
          "internalType": "address",
          "name": "owner",
          "type": "address"
        },
        {
          "internalType": "address",
          "name": "operator",
          "type": "address"
        }
      ],
      "name": "isApprovedForAll",
      "outputs": [
        {
          "internalType": "bool",
          "name": "",
          "type": "bool"
        }
      ],
      "stateMutability": "view",
      "type": "function"
    },
    {
      "inputs": [],
      "name": "name",
      "outputs": [
        {
          "internalType": "string",
          "name": "",
          "type": "string"
        }
      ],
      "stateMutability": "view",
      "type": "function"
    },
    {
      "inputs": [],
      "name": "owner",
      "outputs": [
        {
          "internalType": "address",
          "name": "",
          "type": "address"
        }
      ],
      "stateMutability": "view",
      "type": "function"
    },
    {
      "inputs": [
        {
          "internalType": "uint256",
          "name": "tokenId",
          "type": "uint256"
        }
      ],
      "name": "ownerOf",
      "outputs": [
        {
          "internalType": "address",
          "name": "",
          "type": "address"
        }
      ],
      "stateMutability": "view",
      "type": "function"
    },
    {
      "inputs": [],
      "name": "renounceOwnership",
      "outputs": [],
      "stateMutability": "nonpayable",
      "type": "function"
    },
    {
      "inputs": [
        {
          "internalType": "address",
          "name": "from",
          "type": "address"
        },
        {
          "internalType": "address",
          "name": "to",
          "type": "address"
        },
        {
          "internalType": "uint256",
          "name": "tokenId",
          "type": "uint256"
        }
      ],
      "name": "safeTransferFrom",
      "outputs": [],
      "stateMutability": "nonpayable",
      "type": "function"
    },
    {
      "inputs": [
        {
          "internalType": "address",
          "name": "from",
          "type": "address"
        },
        {
          "internalType": "address",
          "name": "to",
          "type": "address"
        },
        {
          "internalType": "uint256",
          "name": "tokenId",
          "type": "uint256"
        },
        {
          "internalType": "bytes",
          "name": "_data",
          "type": "bytes"
        }
      ],
      "name": "safeTransferFrom",
      "outputs": [],
      "stateMutability": "nonpayable",
      "type": "function"
    },
    {
      "inputs": [
        {
          "internalType": "address",
          "name": "operator",
          "type": "address"
        },
        {
          "internalType": "bool",
          "name": "approved",
          "type": "bool"
        }
      ],
      "name": "setApprovalForAll",
      "outputs": [],
      "stateMutability": "nonpayable",
      "type": "function"
    },
    {
      "inputs": [
        {
          "internalType": "bytes4",
          "name": "interfaceId",
          "type": "bytes4"
        }
      ],
      "name": "supportsInterface",
      "outputs": [
        {
          "internalType": "bool",
          "name": "",
          "type": "bool"
        }
      ],
      "stateMutability": "view",
      "type": "function"
    },
    {
      "inputs": [],
      "name": "symbol",
      "outputs": [
        {
          "internalType": "string",
          "name": "",
          "type": "string"
        }
      ],
      "stateMutability": "view",
      "type": "function"
    },
    {
      "inputs": [
        {
          "internalType": "uint256",
          "name": "index",
          "type": "uint256"
        }
      ],
      "name": "tokenByIndex",
      "outputs": [
        {
          "internalType": "uint256",
          "name": "",
          "type": "uint256"
        }
      ],
      "stateMutability": "view",
      "type": "function"
    },
    {
      "inputs": [
        {
          "internalType": "address",
          "name": "owner",
          "type": "address"
        },
        {
          "internalType": "uint256",
          "name": "index",
          "type": "uint256"
        }
      ],
      "name": "tokenOfOwnerByIndex",
      "outputs": [
        {
          "internalType": "uint256",
          "name": "",
          "type": "uint256"
        }
      ],
      "stateMutability": "view",
      "type": "function"
    },
    {
      "inputs": [
        {
          "internalType": "uint256",
          "name": "tokenId",
          "type": "uint256"
        }
      ],
      "name": "tokenURI",
      "outputs": [
        {
          "internalType": "string",
          "name": "",
          "type": "string"
        }
      ],
      "stateMutability": "view",
      "type": "function"
    },
    {
      "inputs": [],
      "name": "totalSupply",
      "outputs": [
        {
          "internalType": "uint256",
          "name": "",
          "type": "uint256"
        }
      ],
      "stateMutability": "view",
      "type": "function"
    },
    {
      "inputs": [
        {
          "internalType": "address",
          "name": "from",
          "type": "address"
        },
        {
          "internalType": "address",
          "name": "to",
          "type": "address"
        },
        {
          "internalType": "uint256",
          "name": "tokenId",
          "type": "uint256"
        }
      ],
      "name": "transferFrom",
      "outputs": [],
      "stateMutability": "nonpayable",
      "type": "function"
    },
    {
      "inputs": [
        {
          "internalType": "address",
          "name": "newOwner",
          "type": "address"
        }
      ],
      "name": "transferOwnership",
      "outputs": [],
      "stateMutability": "nonpayable",
      "type": "function"
    },
    {
      "inputs": [
        {
          "internalType": "address",
          "name": "",
          "type": "address"
        }
      ],
      "name": "whitelist",
      "outputs": [
        {
          "internalType": "bool",
          "name": "",
          "type": "bool"
        }
      ],
      "stateMutability": "view",
      "type": "function"
    },
    {
      "inputs": [
        {
          "internalType": "address",
          "name": "_address",
          "type": "address"
        }
      ],
      "name": "addToWhitelist",
      "outputs": [],
      "stateMutability": "nonpayable",
      "type": "function"
    },
    {
      "inputs": [
        {
          "internalType": "address",
          "name": "_address",
          "type": "address"
        }
      ],
      "name": "removeFromWhitelist",
      "outputs": [],
      "stateMutability": "nonpayable",
      "type": "function"
    },
    {
      "inputs": [
        {
          "internalType": "address",
          "name": "_creator",
          "type": "address"
        }
      ],
      "name": "isWhitelisted",
      "outputs": [
        {
          "internalType": "bool",
          "name": "",
          "type": "bool"
        }
      ],
      "stateMutability": "view",
      "type": "function"
    },
    {
      "inputs": [
        {
          "internalType": "uint256",
          "name": "_tokenId",
          "type": "uint256"
        }
      ],
      "name": "tokenCreator",
      "outputs": [
        {
          "internalType": "address payable",
          "name": "",
          "type": "address"
        }
      ],
      "stateMutability": "view",
      "type": "function"
    },
    {
      "inputs": [
        {
          "internalType": "address",
          "name": "artist",
          "type": "address"
        },
        {
          "internalType": "string",
          "name": "tokenURI",
          "type": "string"
        }
      ],
      "name": "mintToken",
      "outputs": [
        {
          "internalType": "uint256",
          "name": "",
          "type": "uint256"
        }
      ],
      "stateMutability": "nonpayable",
      "type": "function"
    }
  ],
  "bytecode": "0x60806040523480156200001157600080fd5b506040518060400160405280600d81526020017f496e74616e6769626c654e4654000000000000000000000000000000000000008152506040518060400160405280600481526020017f494e465400000000000000000000000000000000000000000000000000000000815250620000bb6301ffc9a77c01000000000000000000000000000000000000000000000000000000000262000266640100000000026401000000009004565b8160069080519060200190620000d392919062000393565b508060079080519060200190620000ec92919062000393565b506200012a6380ac58cd7c01000000000000000000000000000000000000000000000000000000000262000266640100000000026401000000009004565b62000167635b5e139f7c01000000000000000000000000000000000000000000000000000000000262000266640100000000026401000000009004565b620001a463780e9d637c01000000000000000000000000000000000000000000000000000000000262000266640100000000026401000000009004565b50506000620001c16200038b640100000000026401000000009004565b905080600a60006101000a81548173ffffffffffffffffffffffffffffffffffffffff021916908373ffffffffffffffffffffffffffffffffffffffff1602179055508073ffffffffffffffffffffffffffffffffffffffff16600073ffffffffffffffffffffffffffffffffffffffff167f8be0079c531659141344cd1fd0a4f28419497f9722a3daafe3b4186f6b6457e060405160405180910390a35062000439565b63ffffffff7c010000000000000000000000000000000000000000000000000000000002817bffffffffffffffffffffffffffffffffffffffffffffffffffffffff191614156200031f576040517f08c379a000000000000000000000000000000000000000000000000000000000815260040180806020018281038252601c8152602001807f4552433136353a20696e76616c696420696e746572666163652069640000000081525060200191505060405180910390fd5b6001600080837bffffffffffffffffffffffffffffffffffffffffffffffffffffffff19167bffffffffffffffffffffffffffffffffffffffffffffffffffffffff1916815260200190815260200160002060006101000a81548160ff02191690831515021790555050565b600033905090565b828054600181600116156101000203166002900490600052602060002090601f016020900481019282601f10620003d657805160ff191683800117855562000407565b8280016001018555821562000407579182015b8281111562000406578251825591602001919060010190620003e9565b5b5090506200041691906200041a565b5090565b5b80821115620004355760008160009055506001016200041b565b5090565b61363180620004496000396000f3fe608060405234801561001057600080fd5b50600436106101ab576000357c0100000000000000000000000000000000000000000000000000000000900480636c0360eb116100fb5780639b19251a116100b4578063c87b56dd1161008e578063c87b56dd14610a62578063e43252d714610b09578063e985e9c514610b4d578063f2fde38b14610bc7576101ab565b80639b19251a146108b3578063a22cb4651461090d578063b88d4fde1461095d576101ab565b80636c0360eb146106d357806370a0823114610756578063715018a6146107ae5780638ab1d681146107b85780638da5cb5b146107fc57806395d89b4114610830576101ab565b80632f745c591161016857806340c1a0641161014257806340c1a0641461057357806342842e0e146105cb5780634f6ccce7146106395780636352211e1461067b576101ab565b80632f745c59146103c85780633af32abf1461042a5780633d02d0c914610484576101ab565b806301ffc9a7146101b057806306fdde0314610213578063081812fc14610296578063095ea7b3146102ee57806318160ddd1461033c57806323b872dd1461035a575b600080fd5b6101fb600480360360208110156101c657600080fd5b8101908080357bffffffffffffffffffffffffffffffffffffffffffffffffffffffff19169060200190929190505050610c0b565b60405180821515815260200191505060405180910390f35b61021b610c72565b6040518080602001828103825283818151815260200191508051906020019080838360005b8381101561025b578082015181840152602081019050610240565b50505050905090810190601f1680156102885780820380516001836020036101000a031916815260200191505b509250505060405180910390f35b6102c2600480360360208110156102ac57600080fd5b8101908080359060200190929190505050610d14565b604051808273ffffffffffffffffffffffffffffffffffffffff16815260200191505060405180910390f35b61033a6004803603604081101561030457600080fd5b81019080803573ffffffffffffffffffffffffffffffffffffffff16906020019092919080359060200190929190505050610daf565b005b610344610ef3565b6040518082815260200191505060405180910390f35b6103c66004803603606081101561037057600080fd5b81019080803573ffffffffffffffffffffffffffffffffffffffff169060200190929190803573ffffffffffffffffffffffffffffffffffffffff16906020019092919080359060200190929190505050610f04565b005b610414600480360360408110156103de57600080fd5b81019080803573ffffffffffffffffffffffffffffffffffffffff16906020019092919080359060200190929190505050610f7a565b6040518082815260200191505060405180910390f35b61046c6004803603602081101561044057600080fd5b81019080803573ffffffffffffffffffffffffffffffffffffffff169060200190929190505050610fd5565b60405180821515815260200191505060405180910390f35b61055d6004803603604081101561049a57600080fd5b81019080803573ffffffffffffffffffffffffffffffffffffffff169060200190929190803590602001906401000000008111156104d757600080fd5b8201836020820111156104e957600080fd5b8035906020019184600183028401116401000000008311171561050b57600080fd5b91908080601f016020809104026020016040519081016040528093929190818152602001838380828437600081840152601f19601f82011690508083019250505050505050919291929050505061102b565b6040518082815260200191505060405180910390f35b61059f6004803603602081101561058957600080fd5b81019080803590602001909291905050506110de565b604051808273ffffffffffffffffffffffffffffffffffffffff16815260200191505060405180910390f35b610637600480360360608110156105e157600080fd5b81019080803573ffffffffffffffffffffffffffffffffffffffff169060200190929190803573ffffffffffffffffffffffffffffffffffffffff169060200190929190803590602001909291905050506110f0565b005b6106656004803603602081101561064f57600080fd5b8101908080359060200190929190505050611110565b6040518082815260200191505060405180910390f35b6106a76004803603602081101561069157600080fd5b8101908080359060200190929190505050611133565b604051808273ffffffffffffffffffffffffffffffffffffffff16815260200191505060405180910390f35b6106db61116a565b6040518080602001828103825283818151815260200191508051906020019080838360005b8381101561071b578082015181840152602081019050610700565b50505050905090810190601f1680156107485780820380516001836020036101000a031916815260200191505b509250505060405180910390f35b6107986004803603602081101561076c57600080fd5b81019080803573ffffffffffffffffffffffffffffffffffffffff16906020019092919050505061120c565b6040518082815260200191505060405180910390f35b6107b66112e1565b005b6107fa600480360360208110156107ce57600080fd5b81019080803573ffffffffffffffffffffffffffffffffffffffff169060200190929190505050611451565b005b61080461159e565b604051808273ffffffffffffffffffffffffffffffffffffffff16815260200191505060405180910390f35b6108386115c8565b6040518080602001828103825283818151815260200191508051906020019080838360005b8381101561087857808201518184015260208101905061085d565b50505050905090810190601f1680156108a55780820380516001836020036101000a031916815260200191505b509250505060405180910390f35b6108f5600480360360208110156108c957600080fd5b81019080803573ffffffffffffffffffffffffffffffffffffffff16906020019092919050505061166a565b60405180821515815260200191505060405180910390f35b61095b6004803603604081101561092357600080fd5b81019080803573ffffffffffffffffffffffffffffffffffffffff16906020019092919080351515906020019092919050505061168a565b005b610a606004803603608081101561097357600080fd5b81019080803573ffffffffffffffffffffffffffffffffffffffff169060200190929190803573ffffffffffffffffffffffffffffffffffffffff16906020019092919080359060200190929190803590602001906401000000008111156109da57600080fd5b8201836020820111156109ec57600080fd5b80359060200191846001830284011164010000000083111715610a0e57600080fd5b91908080601f016020809104026020016040519081016040528093929190818152602001838380828437600081840152601f19601f820116905080830192505050505050509192919290505050611840565b005b610a8e60048036036020811015610a7857600080fd5b81019080803590602001909291905050506118b8565b6040518080602001828103825283818151815260200191508051906020019080838360005b83811015610ace578082015181840152602081019050610ab3565b50505050905090810190601f168015610afb5780820380516001836020036101000a031916815260200191505b509250505060405180910390f35b610b4b60048036036020811015610b1f57600080fd5b81019080803573ffffffffffffffffffffffffffffffffffffffff169060200190929190505050611b89565b005b610baf60048036036040811015610b6357600080fd5b81019080803573ffffffffffffffffffffffffffffffffffffffff169060200190929190803573ffffffffffffffffffffffffffffffffffffffff169060200190929190505050611cd6565b60405180821515815260200191505060405180910390f35b610c0960048036036020811015610bdd57600080fd5b81019080803573ffffffffffffffffffffffffffffffffffffffff169060200190929190505050611d6a565b005b6000806000837bffffffffffffffffffffffffffffffffffffffffffffffffffffffff19167bffffffffffffffffffffffffffffffffffffffffffffffffffffffff1916815260200190815260200160002060009054906101000a900460ff169050919050565b606060068054600181600116156101000203166002900480601f016020809104026020016040519081016040528092919081815260200182805460018160011615610100020316600290048015610d0a5780601f10610cdf57610100808354040283529160200191610d0a565b820191906000526020600020905b815481529060010190602001808311610ced57829003601f168201915b5050505050905090565b6000610d1f82611f5f565b610d74576040517f08c379a000000000000000000000000000000000000000000000000000000000815260040180806020018281038252602c8152602001806134fa602c913960400191505060405180910390fd5b6004600083815260200190815260200160002060009054906101000a900473ffffffffffffffffffffffffffffffffffffffff169050919050565b6000610dba82611133565b90508073ffffffffffffffffffffffffffffffffffffffff168373ffffffffffffffffffffffffffffffffffffffff161415610e41576040517f08c379a00000000000000000000000000000000000000000000000000000000081526004018080602001828103825260218152602001806135aa6021913960400191505060405180910390fd5b8073ffffffffffffffffffffffffffffffffffffffff16610e60611f7c565b73ffffffffffffffffffffffffffffffffffffffff161480610e8f5750610e8e81610e89611f7c565b611cd6565b5b610ee4576040517f08c379a000000000000000000000000000000000000000000000000000000000815260040180806020018281038252603881526020018061344d6038913960400191505060405180910390fd5b610eee8383611f84565b505050565b6000610eff600261203d565b905090565b610f15610f0f611f7c565b82612052565b610f6a576040517f08c379a00000000000000000000000000000000000000000000000000000000081526004018080602001828103825260318152602001806135cb6031913960400191505060405180910390fd5b610f75838383612146565b505050565b6000610fcd82600160008673ffffffffffffffffffffffffffffffffffffffff1673ffffffffffffffffffffffffffffffffffffffff16815260200190815260200160002061238990919063ffffffff16565b905092915050565b6000600c60008373ffffffffffffffffffffffffffffffffffffffff1673ffffffffffffffffffffffffffffffffffffffff16815260200190815260200160002060009054906101000a900460ff169050919050565b600061103633610fd5565b6110a8576040517f08c379a00000000000000000000000000000000000000000000000000000000081526004018080602001828103825260198152602001807f55736572206d7573742062652077686974656c69737465642e0000000000000081525060200191505060405180910390fd5b6110b2600b6123a4565b60006110be600b6123ba565b90506110ca84826123c8565b6110d481846125bc565b8091505092915050565b60006110e982611133565b9050919050565b61110b83838360405180602001604052806000815250611840565b505050565b60008061112783600261264690919063ffffffff16565b50905080915050919050565b6000611163826040518060600160405280602981526020016134af6029913960026126749092919063ffffffff16565b9050919050565b606060098054600181600116156101000203166002900480601f0160208091040260200160405190810160405280929190818152602001828054600181600116156101000203166002900480156112025780601f106111d757610100808354040283529160200191611202565b820191906000526020600020905b8154815290600101906020018083116111e557829003601f168201915b5050505050905090565b60008073ffffffffffffffffffffffffffffffffffffffff168273ffffffffffffffffffffffffffffffffffffffff161415611293576040517f08c379a000000000000000000000000000000000000000000000000000000000815260040180806020018281038252602a815260200180613485602a913960400191505060405180910390fd5b6112da600160008473ffffffffffffffffffffffffffffffffffffffff1673ffffffffffffffffffffffffffffffffffffffff168152602001908152602001600020612694565b9050919050565b6112e9611f7c565b73ffffffffffffffffffffffffffffffffffffffff1661130761159e565b73ffffffffffffffffffffffffffffffffffffffff1614611390576040517f08c379a00000000000000000000000000000000000000000000000000000000081526004018080602001828103825260208152602001807f4f776e61626c653a2063616c6c6572206973206e6f7420746865206f776e657281525060200191505060405180910390fd5b600073ffffffffffffffffffffffffffffffffffffffff16600a60009054906101000a900473ffffffffffffffffffffffffffffffffffffffff1673ffffffffffffffffffffffffffffffffffffffff167f8be0079c531659141344cd1fd0a4f28419497f9722a3daafe3b4186f6b6457e060405160405180910390a36000600a60006101000a81548173ffffffffffffffffffffffffffffffffffffffff021916908373ffffffffffffffffffffffffffffffffffffffff160217905550565b611459611f7c565b73ffffffffffffffffffffffffffffffffffffffff1661147761159e565b73ffffffffffffffffffffffffffffffffffffffff1614611500576040517f08c379a00000000000000000000000000000000000000000000000000000000081526004018080602001828103825260208152602001807f4f776e61626c653a2063616c6c6572206973206e6f7420746865206f776e657281525060200191505060405180910390fd5b6000600c60008373ffffffffffffffffffffffffffffffffffffffff1673ffffffffffffffffffffffffffffffffffffffff16815260200190815260200160002060006101000a81548160ff0219169083151502179055508073ffffffffffffffffffffffffffffffffffffffff167fcdd2e9b91a56913d370075169cefa1602ba36be5301664f752192bb1709df75760405160405180910390a250565b6000600a60009054906101000a900473ffffffffffffffffffffffffffffffffffffffff16905090565b606060078054600181600116156101000203166002900480601f0160208091040260200160405190810160405280929190818152602001828054600181600116156101000203166002900480156116605780601f1061163557610100808354040283529160200191611660565b820191906000526020600020905b81548152906001019060200180831161164357829003601f168201915b5050505050905090565b600c6020528060005260406000206000915054906101000a900460ff1681565b611692611f7c565b73ffffffffffffffffffffffffffffffffffffffff168273ffffffffffffffffffffffffffffffffffffffff161415611733576040517f08c379a00000000000000000000000000000000000000000000000000000000081526004018080602001828103825260198152602001807f4552433732313a20617070726f766520746f2063616c6c65720000000000000081525060200191505060405180910390fd5b8060056000611740611f7c565b73ffffffffffffffffffffffffffffffffffffffff1673ffffffffffffffffffffffffffffffffffffffff16815260200190815260200160002060008473ffffffffffffffffffffffffffffffffffffffff1673ffffffffffffffffffffffffffffffffffffffff16815260200190815260200160002060006101000a81548160ff0219169083151502179055508173ffffffffffffffffffffffffffffffffffffffff166117ed611f7c565b73ffffffffffffffffffffffffffffffffffffffff167f17307eab39ab6107e8899845ad3d59bd9653f200f220920489ca2b5937696c318360405180821515815260200191505060405180910390a35050565b61185161184b611f7c565b83612052565b6118a6576040517f08c379a00000000000000000000000000000000000000000000000000000000081526004018080602001828103825260318152602001806135cb6031913960400191505060405180910390fd5b6118b2848484846126a9565b50505050565b60606118c382611f5f565b611918576040517f08c379a000000000000000000000000000000000000000000000000000000000815260040180806020018281038252602f81526020018061357b602f913960400191505060405180910390fd5b6060600860008481526020019081526020016000208054600181600116156101000203166002900480601f0160208091040260200160405190810160405280929190818152602001828054600181600116156101000203166002900480156119c15780601f10611996576101008083540402835291602001916119c1565b820191906000526020600020905b8154815290600101906020018083116119a457829003601f168201915b5050505050905060606119d261116a565b90506000815114156119e8578192505050611b84565b600082511115611ab95780826040516020018083805190602001908083835b60208310611a2a5780518252602082019150602081019050602083039250611a07565b6001836020036101000a03801982511681845116808217855250505050505090500182805190602001908083835b60208310611a7b5780518252602082019150602081019050602083039250611a58565b6001836020036101000a0380198251168184511680821785525050505050509050019250505060405160208183030381529060405292505050611b84565b80611ac38561271b565b6040516020018083805190602001908083835b60208310611af95780518252602082019150602081019050602083039250611ad6565b6001836020036101000a03801982511681845116808217855250505050505090500182805190602001908083835b60208310611b4a5780518252602082019150602081019050602083039250611b27565b6001836020036101000a03801982511681845116808217855250505050505090500192505050604051602081830303815290604052925050505b919050565b611b91611f7c565b73ffffffffffffffffffffffffffffffffffffffff16611baf61159e565b73ffffffffffffffffffffffffffffffffffffffff1614611c38576040517f08c379a00000000000000000000000000000000000000000000000000000000081526004018080602001828103825260208152602001807f4f776e61626c653a2063616c6c6572206973206e6f7420746865206f776e657281525060200191505060405180910390fd5b6001600c60008373ffffffffffffffffffffffffffffffffffffffff1673ffffffffffffffffffffffffffffffffffffffff16815260200190815260200160002060006101000a81548160ff0219169083151502179055508073ffffffffffffffffffffffffffffffffffffffff167fa850ae9193f515cbae8d35e8925bd2be26627fc91bce650b8652ed254e9cab0360405160405180910390a250565b6000600560008473ffffffffffffffffffffffffffffffffffffffff1673ffffffffffffffffffffffffffffffffffffffff16815260200190815260200160002060008373ffffffffffffffffffffffffffffffffffffffff1673ffffffffffffffffffffffffffffffffffffffff16815260200190815260200160002060009054906101000a900460ff16905092915050565b611d72611f7c565b73ffffffffffffffffffffffffffffffffffffffff16611d9061159e565b73ffffffffffffffffffffffffffffffffffffffff1614611e19576040517f08c379a00000000000000000000000000000000000000000000000000000000081526004018080602001828103825260208152602001807f4f776e61626c653a2063616c6c6572206973206e6f7420746865206f776e657281525060200191505060405180910390fd5b600073ffffffffffffffffffffffffffffffffffffffff168173ffffffffffffffffffffffffffffffffffffffff161415611e9f576040517f08c379a00000000000000000000000000000000000000000000000000000000081526004018080602001828103825260268152602001806133b16026913960400191505060405180910390fd5b8073ffffffffffffffffffffffffffffffffffffffff16600a60009054906101000a900473ffffffffffffffffffffffffffffffffffffffff1673ffffffffffffffffffffffffffffffffffffffff167f8be0079c531659141344cd1fd0a4f28419497f9722a3daafe3b4186f6b6457e060405160405180910390a380600a60006101000a81548173ffffffffffffffffffffffffffffffffffffffff021916908373ffffffffffffffffffffffffffffffffffffffff16021790555050565b6000611f7582600261288190919063ffffffff16565b9050919050565b600033905090565b816004600083815260200190815260200160002060006101000a81548173ffffffffffffffffffffffffffffffffffffffff021916908373ffffffffffffffffffffffffffffffffffffffff160217905550808273ffffffffffffffffffffffffffffffffffffffff16611ff783611133565b73ffffffffffffffffffffffffffffffffffffffff167f8c5be1e5ebec7d5bd14f71427d1e84f3dd0314c0f7b2291e5b200ac8c7c3b92560405160405180910390a45050565b600061204b8260000161289b565b9050919050565b600061205d82611f5f565b6120b2576040517f08c379a000000000000000000000000000000000000000000000000000000000815260040180806020018281038252602c815260200180613421602c913960400191505060405180910390fd5b60006120bd83611133565b90508073ffffffffffffffffffffffffffffffffffffffff168473ffffffffffffffffffffffffffffffffffffffff16148061212c57508373ffffffffffffffffffffffffffffffffffffffff1661211484610d14565b73ffffffffffffffffffffffffffffffffffffffff16145b8061213d575061213c8185611cd6565b5b91505092915050565b8273ffffffffffffffffffffffffffffffffffffffff1661216682611133565b73ffffffffffffffffffffffffffffffffffffffff16146121d2576040517f08c379a00000000000000000000000000000000000000000000000000000000081526004018080602001828103825260298152602001806135526029913960400191505060405180910390fd5b600073ffffffffffffffffffffffffffffffffffffffff168273ffffffffffffffffffffffffffffffffffffffff161415612258576040517f08c379a00000000000000000000000000000000000000000000000000000000081526004018080602001828103825260248152602001806133d76024913960400191505060405180910390fd5b6122638383836128ac565b61226e600082611f84565b6122bf81600160008673ffffffffffffffffffffffffffffffffffffffff1673ffffffffffffffffffffffffffffffffffffffff1681526020019081526020016000206128b190919063ffffffff16565b5061231181600160008573ffffffffffffffffffffffffffffffffffffffff1673ffffffffffffffffffffffffffffffffffffffff1681526020019081526020016000206128cb90919063ffffffff16565b50612328818360026128e59092919063ffffffff16565b50808273ffffffffffffffffffffffffffffffffffffffff168473ffffffffffffffffffffffffffffffffffffffff167fddf252ad1be2c89b69c2b068fc378daa952ba7f163c4a11628f55a4df523b3ef60405160405180910390a4505050565b6000612398836000018361291a565b60019004905092915050565b6001816000016000828254019250508190555050565b600081600001549050919050565b600073ffffffffffffffffffffffffffffffffffffffff168273ffffffffffffffffffffffffffffffffffffffff16141561246b576040517f08c379a00000000000000000000000000000000000000000000000000000000081526004018080602001828103825260208152602001807f4552433732313a206d696e7420746f20746865207a65726f206164647265737381525060200191505060405180910390fd5b61247481611f5f565b156124e7576040517f08c379a000000000000000000000000000000000000000000000000000000000815260040180806020018281038252601c8152602001807f4552433732313a20746f6b656e20616c7265616479206d696e7465640000000081525060200191505060405180910390fd5b6124f3600083836128ac565b61254481600160008573ffffffffffffffffffffffffffffffffffffffff1673ffffffffffffffffffffffffffffffffffffffff1681526020019081526020016000206128cb90919063ffffffff16565b5061255b818360026128e59092919063ffffffff16565b50808273ffffffffffffffffffffffffffffffffffffffff16600073ffffffffffffffffffffffffffffffffffffffff167fddf252ad1be2c89b69c2b068fc378daa952ba7f163c4a11628f55a4df523b3ef60405160405180910390a45050565b6125c582611f5f565b61261a576040517f08c379a000000000000000000000000000000000000000000000000000000000815260040180806020018281038252602c815260200180613526602c913960400191505060405180910390fd5b806008600084815260200190815260200160002090805190602001906126419291906132bf565b505050565b600080600080612659866000018661299d565b91509150816001900481600190049350935050509250929050565b6000612687846000018460010284612a36565b6001900490509392505050565b60006126a282600001612b2c565b9050919050565b6126b4848484612146565b6126c084848484612b3d565b612715576040517f08c379a000000000000000000000000000000000000000000000000000000000815260040180806020018281038252603281526020018061337f6032913960400191505060405180910390fd5b50505050565b60606000821415612763576040518060400160405280600181526020017f3000000000000000000000000000000000000000000000000000000000000000815250905061287c565b600082905060005b6000821461278d578080600101915050600a828161278557fe5b04915061276b565b60608167ffffffffffffffff811180156127a657600080fd5b506040519080825280601f01601f1916602001820160405280156127d95781602001600182028036833780820191505090505b50905060006001830390508593505b6000841461287457600a84816127fa57fe5b066030017f0100000000000000000000000000000000000000000000000000000000000000028282806001900393508151811061283357fe5b60200101907effffffffffffffffffffffffffffffffffffffffffffffffffffffffffffff1916908160001a905350600a848161286c57fe5b0493506127e8565b819450505050505b919050565b60006128938360000183600102612d8e565b905092915050565b600081600001805490509050919050565b505050565b60006128c38360000183600102612db1565b905092915050565b60006128dd8360000183600102612e99565b905092915050565b600061291184600001846001028473ffffffffffffffffffffffffffffffffffffffff16600102612f09565b90509392505050565b60008183600001805490501161297b576040517f08c379a000000000000000000000000000000000000000000000000000000000815260040180806020018281038252602281526020018061335d6022913960400191505060405180910390fd5b82600001828154811061298a57fe5b9060005260206000200154905092915050565b600080828460000180549050116129ff576040517f08c379a00000000000000000000000000000000000000000000000000000000081526004018080602001828103825260228152602001806134d86022913960400191505060405180910390fd5b6000846000018481548110612a1057fe5b906000526020600020906002020190508060000154816001015492509250509250929050565b60008084600101600085815260200190815260200160002054905060008114158390612afd576040517f08c379a00000000000000000000000000000000000000000000000000000000081526004018080602001828103825283818151815260200191508051906020019080838360005b83811015612ac2578082015181840152602081019050612aa7565b50505050905090810190601f168015612aef5780820380516001836020036101000a031916815260200191505b509250505060405180910390fd5b50846000016001820381548110612b1057fe5b9060005260206000209060020201600101549150509392505050565b600081600001805490509050919050565b6000612b5e8473ffffffffffffffffffffffffffffffffffffffff16612fe5565b612b6b5760019050612d86565b6060612cf163150b7a027c010000000000000000000000000000000000000000000000000000000002612b9c611f7c565b888787604051602401808573ffffffffffffffffffffffffffffffffffffffff1681526020018473ffffffffffffffffffffffffffffffffffffffff16815260200183815260200180602001828103825283818151815260200191508051906020019080838360005b83811015612c20578082015181840152602081019050612c05565b50505050905090810190601f168015612c4d5780820380516001836020036101000a031916815260200191505b5095505050505050604051602081830303815290604052907bffffffffffffffffffffffffffffffffffffffffffffffffffffffff19166020820180517bffffffffffffffffffffffffffffffffffffffffffffffffffffffff838183161783525050505060405180606001604052806032815260200161337f603291398773ffffffffffffffffffffffffffffffffffffffff16612ff89092919063ffffffff16565b90506000818060200190516020811015612d0a57600080fd5b8101908080519060200190929190505050905063150b7a027c0100000000000000000000000000000000000000000000000000000000027bffffffffffffffffffffffffffffffffffffffffffffffffffffffff1916817bffffffffffffffffffffffffffffffffffffffffffffffffffffffff191614925050505b949350505050565b600080836001016000848152602001908152602001600020541415905092915050565b60008083600101600084815260200190815260200160002054905060008114612e8d5760006001820390506000600186600001805490500390506000866000018281548110612dfc57fe5b9060005260206000200154905080876000018481548110612e1957fe5b9060005260206000200181905550600183018760010160008381526020019081526020016000208190555086600001805480612e5157fe5b60019003818190600052602060002001600090559055866001016000878152602001908152602001600020600090556001945050505050612e93565b60009150505b92915050565b6000612ea58383613010565b612efe578260000182908060018154018082558091505060019003906000526020600020016000909190919091505582600001805490508360010160008481526020019081526020016000208190555060019050612f03565b600090505b92915050565b6000808460010160008581526020019081526020016000205490506000811415612fb057846000016040518060400160405280868152602001858152509080600181540180825580915050600190039060005260206000209060020201600090919091909150600082015181600001556020820151816001015550508460000180549050856001016000868152602001908152602001600020819055506001915050612fde565b82856000016001830381548110612fc357fe5b90600052602060002090600202016001018190555060009150505b9392505050565b600080823b905060008111915050919050565b60606130078484600085613033565b90509392505050565b600080836001016000848152602001908152602001600020541415905092915050565b6060823073ffffffffffffffffffffffffffffffffffffffff163110156130a5576040517f08c379a00000000000000000000000000000000000000000000000000000000081526004018080602001828103825260268152602001806133fb6026913960400191505060405180910390fd5b6130ae85612fe5565b613120576040517f08c379a000000000000000000000000000000000000000000000000000000000815260040180806020018281038252601d8152602001807f416464726573733a2063616c6c20746f206e6f6e2d636f6e747261637400000081525060200191505060405180910390fd5b600060608673ffffffffffffffffffffffffffffffffffffffff1685876040518082805190602001908083835b60208310613170578051825260208201915060208101905060208303925061314d565b6001836020036101000a03801982511681845116808217855250505050505090500191505060006040518083038185875af1925050503d80600081146131d2576040519150601f19603f3d011682016040523d82523d6000602084013e6131d7565b606091505b50915091506131e78282866131f3565b92505050949350505050565b60608315613203578290506132b8565b6000835111156132165782518084602001fd5b816040517f08c379a00000000000000000000000000000000000000000000000000000000081526004018080602001828103825283818151815260200191508051906020019080838360005b8381101561327d578082015181840152602081019050613262565b50505050905090810190601f1680156132aa5780820380516001836020036101000a031916815260200191505b509250505060405180910390fd5b9392505050565b828054600181600116156101000203166002900490600052602060002090601f016020900481019282601f1061330057805160ff191683800117855561332e565b8280016001018555821561332e579182015b8281111561332d578251825591602001919060010190613312565b5b50905061333b919061333f565b5090565b5b80821115613358576000816000905550600101613340565b509056fe456e756d657261626c655365743a20696e646578206f7574206f6620626f756e64734552433732313a207472616e7366657220746f206e6f6e20455243373231526563656976657220696d706c656d656e7465724f776e61626c653a206e6577206f776e657220697320746865207a65726f20616464726573734552433732313a207472616e7366657220746f20746865207a65726f2061646472657373416464726573733a20696e73756666696369656e742062616c616e636520666f722063616c6c4552433732313a206f70657261746f7220717565727920666f72206e6f6e6578697374656e7420746f6b656e4552433732313a20617070726f76652063616c6c6572206973206e6f74206f776e6572206e6f7220617070726f76656420666f7220616c6c4552433732313a2062616c616e636520717565727920666f7220746865207a65726f20616464726573734552433732313a206f776e657220717565727920666f72206e6f6e6578697374656e7420746f6b656e456e756d657261626c654d61703a20696e646578206f7574206f6620626f756e64734552433732313a20617070726f76656420717565727920666f72206e6f6e6578697374656e7420746f6b656e4552433732314d657461646174613a2055524920736574206f66206e6f6e6578697374656e7420746f6b656e4552433732313a207472616e73666572206f6620746f6b656e2074686174206973206e6f74206f776e4552433732314d657461646174613a2055524920717565727920666f72206e6f6e6578697374656e7420746f6b656e4552433732313a20617070726f76616c20746f2063757272656e74206f776e65724552433732313a207472616e736665722063616c6c6572206973206e6f74206f776e6572206e6f7220617070726f766564a26469706673582212204e248feeb2d8cf3fa0939ec1e4801cdbaf00930317d55cd8af336abd57398b2a64736f6c634300060c0033",
  "immutableReferences": {},
  "source": "// SPDX-License-Identifier: MIT\npragma solidity 0.6.12;\n\nimport \"@openzeppelin/contracts/token/ERC721/ERC721.sol\";\nimport \"@openzeppelin/contracts/utils/Counters.sol\";\nimport \"@openzeppelin/contracts/access/Ownable.sol\";\n\ncontract IntangibleNFT is ERC721, Ownable {\n    using Counters for Counters.Counter;\n    Counters.Counter private _tokenIds;\n\n    constructor() public ERC721(\"IntangibleNFT\", \"INFT\") {}\n\n    mapping(address => bool) public whitelist;\n    event AddedToWhitelist(address indexed account);\n    event RemovedFromWhitelist(address indexed account);\n\n    modifier onlyWhitelisted() {\n        require(isWhitelisted(msg.sender), \"User must be whitelisted.\");\n        _;\n    }\n\n    function addToWhitelist(address _address) public onlyOwner {\n        whitelist[_address] = true;\n        emit AddedToWhitelist(_address);\n    }\n\n    function removeFromWhitelist(address _address) public onlyOwner {\n        whitelist[_address] = false;\n        emit RemovedFromWhitelist(_address);\n    }\n\n    function isWhitelisted(address _creator) public view returns(bool) {\n        return whitelist[_creator];\n    }\n\n    function tokenCreator(uint256 _tokenId)\n        external\n        view\n        returns (address payable) {\n            return payable(ownerOf(_tokenId));\n        }\n\n     function mintToken(address artist, string memory tokenURI)\n        public\n        onlyWhitelisted\n        returns (uint256)\n    {\n        _tokenIds.increment();\n\n        uint256 newItemId = _tokenIds.current();\n        _mint(artist, newItemId);\n        _setTokenURI(newItemId, tokenURI);\n\n        return newItemId;\n    }\n}",
  "sourcePath": "/Users/ismailcanvardar/Documents/freelance-works/intangible-contracts/contracts/IntangibleNFT.sol",
  "compiler": {
    "name": "solc",
    "version": "0.6.12+commit.27d51765.Emscripten.clang"
  },
  "schemaVersion": "3.3.3",
  "updatedAt": "2021-03-20T12:34:07.767Z",
  "devdoc": {
    "kind": "dev",
    "methods": {
      "approve(address,uint256)": {
        "details": "See {IERC721-approve}."
      },
      "balanceOf(address)": {
        "details": "See {IERC721-balanceOf}."
      },
      "baseURI()": {
        "details": "Returns the base URI set via {_setBaseURI}. This will be automatically added as a prefix in {tokenURI} to each token's URI, or to the token ID if no specific URI is set for that token ID."
      },
      "getApproved(uint256)": {
        "details": "See {IERC721-getApproved}."
      },
      "isApprovedForAll(address,address)": {
        "details": "See {IERC721-isApprovedForAll}."
      },
      "name()": {
        "details": "See {IERC721Metadata-name}."
      },
      "owner()": {
        "details": "Returns the address of the current owner."
      },
      "ownerOf(uint256)": {
        "details": "See {IERC721-ownerOf}."
      },
      "renounceOwnership()": {
        "details": "Leaves the contract without owner. It will not be possible to call `onlyOwner` functions anymore. Can only be called by the current owner. NOTE: Renouncing ownership will leave the contract without an owner, thereby removing any functionality that is only available to the owner."
      },
      "safeTransferFrom(address,address,uint256)": {
        "details": "See {IERC721-safeTransferFrom}."
      },
      "safeTransferFrom(address,address,uint256,bytes)": {
        "details": "See {IERC721-safeTransferFrom}."
      },
      "setApprovalForAll(address,bool)": {
        "details": "See {IERC721-setApprovalForAll}."
      },
      "supportsInterface(bytes4)": {
        "details": "See {IERC165-supportsInterface}. Time complexity O(1), guaranteed to always use less than 30 000 gas."
      },
      "symbol()": {
        "details": "See {IERC721Metadata-symbol}."
      },
      "tokenByIndex(uint256)": {
        "details": "See {IERC721Enumerable-tokenByIndex}."
      },
      "tokenOfOwnerByIndex(address,uint256)": {
        "details": "See {IERC721Enumerable-tokenOfOwnerByIndex}."
      },
      "tokenURI(uint256)": {
        "details": "See {IERC721Metadata-tokenURI}."
      },
      "totalSupply()": {
        "details": "See {IERC721Enumerable-totalSupply}."
      },
      "transferFrom(address,address,uint256)": {
        "details": "See {IERC721-transferFrom}."
      },
      "transferOwnership(address)": {
        "details": "Transfers ownership of the contract to a new account (`newOwner`). Can only be called by the current owner."
      }
    },
    "version": 1
  },
  "userdoc": {
    "kind": "user",
    "methods": {},
    "version": 1
  }
}