{
  "contractName": "IntangibleMarketAuctionV2",
  "abi": [
    {
      "inputs": [
        {
          "internalType": "address",
          "name": "_iMarketSettings",
          "type": "address"
        },
        {
          "internalType": "address",
          "name": "_iERC721CreatorRoyalty",
          "type": "address"
        }
      ],
      "stateMutability": "nonpayable",
      "type": "constructor"
    },
    {
      "anonymous": false,
      "inputs": [
        {
          "indexed": true,
          "internalType": "address",
          "name": "_originContract",
          "type": "address"
        },
        {
          "indexed": true,
          "internalType": "address",
          "name": "_bidder",
          "type": "address"
        },
        {
          "indexed": true,
          "internalType": "address",
          "name": "_seller",
          "type": "address"
        },
        {
          "indexed": false,
          "internalType": "uint256",
          "name": "_amount",
          "type": "uint256"
        },
        {
          "indexed": false,
          "internalType": "uint256",
          "name": "_tokenId",
          "type": "uint256"
        }
      ],
      "name": "AcceptBid",
      "type": "event"
    },
    {
      "anonymous": false,
      "inputs": [
        {
          "indexed": true,
          "internalType": "address",
          "name": "_originContract",
          "type": "address"
        },
        {
          "indexed": true,
          "internalType": "address",
          "name": "_bidder",
          "type": "address"
        },
        {
          "indexed": false,
          "internalType": "uint256",
          "name": "_amount",
          "type": "uint256"
        },
        {
          "indexed": false,
          "internalType": "uint256",
          "name": "_tokenId",
          "type": "uint256"
        }
      ],
      "name": "Bid",
      "type": "event"
    },
    {
      "anonymous": false,
      "inputs": [
        {
          "indexed": true,
          "internalType": "address",
          "name": "_originContract",
          "type": "address"
        },
        {
          "indexed": true,
          "internalType": "address",
          "name": "_bidder",
          "type": "address"
        },
        {
          "indexed": false,
          "internalType": "uint256",
          "name": "_amount",
          "type": "uint256"
        },
        {
          "indexed": false,
          "internalType": "uint256",
          "name": "_tokenId",
          "type": "uint256"
        }
      ],
      "name": "CancelBid",
      "type": "event"
    },
    {
      "anonymous": false,
      "inputs": [
        {
          "indexed": true,
          "internalType": "address",
          "name": "previousOwner",
          "type": "address"
        },
        {
          "indexed": true,
          "internalType": "address",
          "name": "newOwner",
          "type": "address"
        }
      ],
      "name": "OwnershipTransferred",
      "type": "event"
    },
    {
      "anonymous": false,
      "inputs": [
        {
          "indexed": true,
          "internalType": "address",
          "name": "_payee",
          "type": "address"
        },
        {
          "indexed": false,
          "internalType": "uint256",
          "name": "amount",
          "type": "uint256"
        }
      ],
      "name": "SendValue",
      "type": "event"
    },
    {
      "anonymous": false,
      "inputs": [
        {
          "indexed": true,
          "internalType": "address",
          "name": "_originContract",
          "type": "address"
        },
        {
          "indexed": false,
          "internalType": "uint256",
          "name": "_amount",
          "type": "uint256"
        },
        {
          "indexed": false,
          "internalType": "uint256",
          "name": "_tokenId",
          "type": "uint256"
        }
      ],
      "name": "SetSalePrice",
      "type": "event"
    },
    {
      "anonymous": false,
      "inputs": [
        {
          "indexed": true,
          "internalType": "address",
          "name": "_originContract",
          "type": "address"
        },
        {
          "indexed": true,
          "internalType": "address",
          "name": "_buyer",
          "type": "address"
        },
        {
          "indexed": true,
          "internalType": "address",
          "name": "_seller",
          "type": "address"
        },
        {
          "indexed": false,
          "internalType": "uint256",
          "name": "_amount",
          "type": "uint256"
        },
        {
          "indexed": false,
          "internalType": "uint256",
          "name": "_tokenId",
          "type": "uint256"
        }
      ],
      "name": "Sold",
      "type": "event"
    },
    {
      "inputs": [],
      "name": "iERC721CreatorRoyalty",
      "outputs": [
        {
          "internalType": "contract IERC721CreatorRoyalty",
          "name": "",
          "type": "address"
        }
      ],
      "stateMutability": "view",
      "type": "function"
    },
    {
      "inputs": [],
      "name": "iMarketplaceSettings",
      "outputs": [
        {
          "internalType": "contract IMarketplaceSettings",
          "name": "",
          "type": "address"
        }
      ],
      "stateMutability": "view",
      "type": "function"
    },
    {
      "inputs": [],
      "name": "minimumBidIncreasePercentage",
      "outputs": [
        {
          "internalType": "uint8",
          "name": "",
          "type": "uint8"
        }
      ],
      "stateMutability": "view",
      "type": "function"
    },
    {
      "inputs": [],
      "name": "owner",
      "outputs": [
        {
          "internalType": "address",
          "name": "",
          "type": "address"
        }
      ],
      "stateMutability": "view",
      "type": "function"
    },
    {
      "inputs": [
        {
          "internalType": "address",
          "name": "dest",
          "type": "address"
        }
      ],
      "name": "payments",
      "outputs": [
        {
          "internalType": "uint256",
          "name": "",
          "type": "uint256"
        }
      ],
      "stateMutability": "view",
      "type": "function"
    },
    {
      "inputs": [],
      "name": "renounceOwnership",
      "outputs": [],
      "stateMutability": "nonpayable",
      "type": "function"
    },
    {
      "inputs": [
        {
          "internalType": "address",
          "name": "newOwner",
          "type": "address"
        }
      ],
      "name": "transferOwnership",
      "outputs": [],
      "stateMutability": "nonpayable",
      "type": "function"
    },
    {
      "inputs": [
        {
          "internalType": "address payable",
          "name": "payee",
          "type": "address"
        }
      ],
      "name": "withdrawPayments",
      "outputs": [],
      "stateMutability": "nonpayable",
      "type": "function"
    },
    {
      "inputs": [
        {
          "internalType": "address",
          "name": "_address",
          "type": "address"
        }
      ],
      "name": "setMarketplaceSettings",
      "outputs": [],
      "stateMutability": "nonpayable",
      "type": "function"
    },
    {
      "inputs": [
        {
          "internalType": "address",
          "name": "_address",
          "type": "address"
        }
      ],
      "name": "setIERC721CreatorRoyalty",
      "outputs": [],
      "stateMutability": "nonpayable",
      "type": "function"
    },
    {
      "inputs": [
        {
          "internalType": "uint8",
          "name": "_percentage",
          "type": "uint8"
        }
      ],
      "name": "setMinimumBidIncreasePercentage",
      "outputs": [],
      "stateMutability": "nonpayable",
      "type": "function"
    },
    {
      "inputs": [
        {
          "internalType": "address",
          "name": "_originContract",
          "type": "address"
        },
        {
          "internalType": "uint256",
          "name": "_tokenId",
          "type": "uint256"
        },
        {
          "internalType": "uint256",
          "name": "_amount",
          "type": "uint256"
        }
      ],
      "name": "setSalePrice",
      "outputs": [],
      "stateMutability": "nonpayable",
      "type": "function"
    },
    {
      "inputs": [
        {
          "internalType": "address",
          "name": "_originContract",
          "type": "address"
        },
        {
          "internalType": "uint256",
          "name": "_tokenId",
          "type": "uint256"
        },
        {
          "internalType": "uint256",
          "name": "_amount",
          "type": "uint256"
        }
      ],
      "name": "safeBuy",
      "outputs": [],
      "stateMutability": "payable",
      "type": "function"
    },
    {
      "inputs": [
        {
          "internalType": "address",
          "name": "_originContract",
          "type": "address"
        },
        {
          "internalType": "uint256",
          "name": "_tokenId",
          "type": "uint256"
        }
      ],
      "name": "buy",
      "outputs": [],
      "stateMutability": "payable",
      "type": "function"
    },
    {
      "inputs": [
        {
          "internalType": "address",
          "name": "_originContract",
          "type": "address"
        },
        {
          "internalType": "uint256",
          "name": "_tokenId",
          "type": "uint256"
        }
      ],
      "name": "tokenPrice",
      "outputs": [
        {
          "internalType": "uint256",
          "name": "",
          "type": "uint256"
        }
      ],
      "stateMutability": "view",
      "type": "function"
    },
    {
      "inputs": [
        {
          "internalType": "address",
          "name": "_originContract",
          "type": "address"
        },
        {
          "internalType": "uint256",
          "name": "_tokenId",
          "type": "uint256"
        }
      ],
      "name": "tokenPriceFeeIncluded",
      "outputs": [
        {
          "internalType": "uint256",
          "name": "",
          "type": "uint256"
        }
      ],
      "stateMutability": "view",
      "type": "function"
    },
    {
      "inputs": [
        {
          "internalType": "uint256",
          "name": "_newBidAmount",
          "type": "uint256"
        },
        {
          "internalType": "address",
          "name": "_originContract",
          "type": "address"
        },
        {
          "internalType": "uint256",
          "name": "_tokenId",
          "type": "uint256"
        }
      ],
      "name": "bid",
      "outputs": [],
      "stateMutability": "payable",
      "type": "function"
    },
    {
      "inputs": [
        {
          "internalType": "address",
          "name": "_originContract",
          "type": "address"
        },
        {
          "internalType": "uint256",
          "name": "_tokenId",
          "type": "uint256"
        },
        {
          "internalType": "uint256",
          "name": "_amount",
          "type": "uint256"
        }
      ],
      "name": "safeAcceptBid",
      "outputs": [],
      "stateMutability": "nonpayable",
      "type": "function"
    },
    {
      "inputs": [
        {
          "internalType": "address",
          "name": "_originContract",
          "type": "address"
        },
        {
          "internalType": "uint256",
          "name": "_tokenId",
          "type": "uint256"
        }
      ],
      "name": "acceptBid",
      "outputs": [],
      "stateMutability": "nonpayable",
      "type": "function"
    },
    {
      "inputs": [
        {
          "internalType": "address",
          "name": "_originContract",
          "type": "address"
        },
        {
          "internalType": "uint256",
          "name": "_tokenId",
          "type": "uint256"
        }
      ],
      "name": "cancelBid",
      "outputs": [],
      "stateMutability": "nonpayable",
      "type": "function"
    },
    {
      "inputs": [
        {
          "internalType": "address",
          "name": "_originContract",
          "type": "address"
        },
        {
          "internalType": "uint256",
          "name": "_tokenId",
          "type": "uint256"
        }
      ],
      "name": "currentBidDetailsOfToken",
      "outputs": [
        {
          "internalType": "uint256",
          "name": "",
          "type": "uint256"
        },
        {
          "internalType": "address",
          "name": "",
          "type": "address"
        }
      ],
      "stateMutability": "view",
      "type": "function"
    }
  ],
  "bytecode": "0x60806040523480156200001157600080fd5b5060405162005a5c38038062005a5c833981810160405260408110156200003757600080fd5b81019080805190602001909291908051906020019092919050505060006200006d62000399640100000000026401000000009004565b9050806000806101000a81548173ffffffffffffffffffffffffffffffffffffffff021916908373ffffffffffffffffffffffffffffffffffffffff1602179055508073ffffffffffffffffffffffffffffffffffffffff16600073ffffffffffffffffffffffffffffffffffffffff167f8be0079c531659141344cd1fd0a4f28419497f9722a3daafe3b4186f6b6457e060405160405180910390a3506040516200011990620003a1565b604051809103906000f08015801562000136573d6000803e3d6000fd5b50600160006101000a81548173ffffffffffffffffffffffffffffffffffffffff021916908373ffffffffffffffffffffffffffffffffffffffff1602179055506040516200018590620003af565b604051809103906000f080158015620001a2573d6000803e3d6000fd5b50600260006101000a81548173ffffffffffffffffffffffffffffffffffffffff021916908373ffffffffffffffffffffffffffffffffffffffff160217905550600073ffffffffffffffffffffffffffffffffffffffff168273ffffffffffffffffffffffffffffffffffffffff1614156200026b576040517f08c379a000000000000000000000000000000000000000000000000000000000815260040180806020018281038252603a81526020018062005a22603a913960400191505060405180910390fd5b600073ffffffffffffffffffffffffffffffffffffffff168173ffffffffffffffffffffffffffffffffffffffff161415620002f3576040517f08c379a0000000000000000000000000000000000000000000000000000000008152600401808060200182810382526040815260200180620059e26040913960400191505060405180910390fd5b81600360006101000a81548173ffffffffffffffffffffffffffffffffffffffff021916908373ffffffffffffffffffffffffffffffffffffffff16021790555080600460006101000a81548173ffffffffffffffffffffffffffffffffffffffff021916908373ffffffffffffffffffffffffffffffffffffffff160217905550600a600760006101000a81548160ff021916908360ff1602179055505050620003bd565b600033905090565b61011d8062004c3183390190565b610c948062004d4e83390190565b61486480620003cd6000396000f3fe608060405260043610610147576000357c0100000000000000000000000000000000000000000000000000000000900480638da5cb5b116100c8578063c0f4ed311161008c578063c0f4ed311461062e578063c8db696214610686578063cafdcad0146106de578063cce7ec131461071f578063e2982c211461076d578063f2fde38b146107d257610147565b80638da5cb5b14610473578063916c03ba146104b457806393d10cea14610523578063955a5a7614610592578063a334c844146105ed57610147565b806348626b901161010f57806348626b9014610326578063508c1dbd146103645780636fe9f44c146103c9578063715018a6146103f75780637598fdb31461040e57610147565b80630d7d703f1461014c57806314df85e91461019d578063176ab4401461022957806331b3eb941461027a57806339b6b1e5146102cb575b600080fd5b34801561015857600080fd5b5061019b6004803603602081101561016f57600080fd5b81019080803573ffffffffffffffffffffffffffffffffffffffff169060200190929190505050610823565b005b3480156101a957600080fd5b506101f6600480360360408110156101c057600080fd5b81019080803573ffffffffffffffffffffffffffffffffffffffff1690602001909291908035906020019092919050505061099c565b604051808381526020018273ffffffffffffffffffffffffffffffffffffffff1681526020019250505060405180910390f35b34801561023557600080fd5b506102786004803603602081101561024c57600080fd5b81019080803573ffffffffffffffffffffffffffffffffffffffff169060200190929190505050610a72565b005b34801561028657600080fd5b506102c96004803603602081101561029d57600080fd5b81019080803573ffffffffffffffffffffffffffffffffffffffff169060200190929190505050610beb565b005b3480156102d757600080fd5b50610324600480360360408110156102ee57600080fd5b81019080803573ffffffffffffffffffffffffffffffffffffffff16906020019092919080359060200190929190505050610cad565b005b34801561033257600080fd5b506103626004803603602081101561034957600080fd5b81019080803560ff169060200190929190505050610ddb565b005b34801561037057600080fd5b506103c76004803603606081101561038757600080fd5b81019080803573ffffffffffffffffffffffffffffffffffffffff1690602001909291908035906020019092919080359060200190929190505050610ea8565b005b3480156103d557600080fd5b506103de611055565b604051808260ff16815260200191505060405180910390f35b34801561040357600080fd5b5061040c611068565b005b34801561041a57600080fd5b506104716004803603606081101561043157600080fd5b81019080803573ffffffffffffffffffffffffffffffffffffffff16906020019092919080359060200190929190803590602001909291905050506111d5565b005b34801561047f57600080fd5b5061048861128f565b604051808273ffffffffffffffffffffffffffffffffffffffff16815260200191505060405180910390f35b3480156104c057600080fd5b5061050d600480360360408110156104d757600080fd5b81019080803573ffffffffffffffffffffffffffffffffffffffff169060200190929190803590602001909291905050506112b8565b6040518082815260200191505060405180910390f35b34801561052f57600080fd5b5061057c6004803603604081101561054657600080fd5b81019080803573ffffffffffffffffffffffffffffffffffffffff16906020019092919080359060200190929190505050611339565b6040518082815260200191505060405180910390f35b34801561059e57600080fd5b506105eb600480360360408110156105b557600080fd5b81019080803573ffffffffffffffffffffffffffffffffffffffff169060200190929190803590602001909291905050506114e8565b005b3480156105f957600080fd5b50610602611cfe565b604051808273ffffffffffffffffffffffffffffffffffffffff16815260200191505060405180910390f35b6106846004803603606081101561064457600080fd5b8101908080359060200190929190803573ffffffffffffffffffffffffffffffffffffffff16906020019092919080359060200190929190505050611d24565b005b6106dc6004803603606081101561069c57600080fd5b81019080803573ffffffffffffffffffffffffffffffffffffffff16906020019092919080359060200190929190803590602001909291905050506121b6565b005b3480156106ea57600080fd5b506106f3612270565b604051808273ffffffffffffffffffffffffffffffffffffffff16815260200191505060405180910390f35b61076b6004803603604081101561073557600080fd5b81019080803573ffffffffffffffffffffffffffffffffffffffff16906020019092919080359060200190929190505050612296565b005b34801561077957600080fd5b506107bc6004803603602081101561079057600080fd5b81019080803573ffffffffffffffffffffffffffffffffffffffff169060200190929190505050612c01565b6040518082815260200191505060405180910390f35b3480156107de57600080fd5b50610821600480360360208110156107f557600080fd5b81019080803573ffffffffffffffffffffffffffffffffffffffff169060200190929190505050612cea565b005b61082b612edc565b73ffffffffffffffffffffffffffffffffffffffff1661084961128f565b73ffffffffffffffffffffffffffffffffffffffff16146108d2576040517f08c379a00000000000000000000000000000000000000000000000000000000081526004018080602001828103825260208152602001807f4f776e61626c653a2063616c6c6572206973206e6f7420746865206f776e657281525060200191505060405180910390fd5b600073ffffffffffffffffffffffffffffffffffffffff168173ffffffffffffffffffffffffffffffffffffffff161415610958576040517f08c379a000000000000000000000000000000000000000000000000000000000815260040180806020018281038252604d8152602001806144a2604d913960600191505060405180910390fd5b80600460006101000a81548173ffffffffffffffffffffffffffffffffffffffff021916908373ffffffffffffffffffffffffffffffffffffffff16021790555050565b600080600660008573ffffffffffffffffffffffffffffffffffffffff1673ffffffffffffffffffffffffffffffffffffffff168152602001908152602001600020600084815260200190815260200160002060010154600660008673ffffffffffffffffffffffffffffffffffffffff1673ffffffffffffffffffffffffffffffffffffffff168152602001908152602001600020600085815260200190815260200160002060000160009054906101000a900473ffffffffffffffffffffffffffffffffffffffff16915091509250929050565b610a7a612edc565b73ffffffffffffffffffffffffffffffffffffffff16610a9861128f565b73ffffffffffffffffffffffffffffffffffffffff1614610b21576040517f08c379a00000000000000000000000000000000000000000000000000000000081526004018080602001828103825260208152602001807f4f776e61626c653a2063616c6c6572206973206e6f7420746865206f776e657281525060200191505060405180910390fd5b600073ffffffffffffffffffffffffffffffffffffffff168173ffffffffffffffffffffffffffffffffffffffff161415610ba7576040517f08c379a00000000000000000000000000000000000000000000000000000000081526004018080602001828103825260458152602001806147666045913960600191505060405180910390fd5b80600360006101000a81548173ffffffffffffffffffffffffffffffffffffffff021916908373ffffffffffffffffffffffffffffffffffffffff16021790555050565b600260009054906101000a900473ffffffffffffffffffffffffffffffffffffffff1673ffffffffffffffffffffffffffffffffffffffff166351cff8d9826040518263ffffffff167c0100000000000000000000000000000000000000000000000000000000028152600401808273ffffffffffffffffffffffffffffffffffffffff168152602001915050600060405180830381600087803b158015610c9257600080fd5b505af1158015610ca6573d6000803e3d6000fd5b5050505050565b610cb8338383612ee4565b610d0d576040517f08c379a00000000000000000000000000000000000000000000000000000000081526004018080602001828103825260398152602001806146d36039913960400191505060405180910390fd5b610d178282612f91565b3373ffffffffffffffffffffffffffffffffffffffff168273ffffffffffffffffffffffffffffffffffffffff167f99a3761c98d7a0c3980cbeb3d8009b315a463f8020b43ca1e6901611b06547f9600660008673ffffffffffffffffffffffffffffffffffffffff1673ffffffffffffffffffffffffffffffffffffffff16815260200190815260200160002060008581526020019081526020016000206001015484604051808381526020018281526020019250505060405180910390a35050565b610de3612edc565b73ffffffffffffffffffffffffffffffffffffffff16610e0161128f565b73ffffffffffffffffffffffffffffffffffffffff1614610e8a576040517f08c379a00000000000000000000000000000000000000000000000000000000081526004018080602001828103825260208152602001807f4f776e61626c653a2063616c6c6572206973206e6f7420746865206f776e657281525060200191505060405180910390fd5b80600760006101000a81548160ff021916908360ff16021790555050565b610eb283836130d9565b610ebc83836132c1565b6000811415610f2a57610ecf8383613413565b8273ffffffffffffffffffffffffffffffffffffffff167fb0b0e4adf2724af8f1646eae3a16f45d696c9334594729d09bf192da1f7838718284604051808381526020018281526020019250505060405180910390a2611050565b60405180604001604052803373ffffffffffffffffffffffffffffffffffffffff16815260200182815250600560008573ffffffffffffffffffffffffffffffffffffffff1673ffffffffffffffffffffffffffffffffffffffff168152602001908152602001600020600084815260200190815260200160002060008201518160000160006101000a81548173ffffffffffffffffffffffffffffffffffffffff021916908373ffffffffffffffffffffffffffffffffffffffff160217905550602082015181600101559050508273ffffffffffffffffffffffffffffffffffffffff167fb0b0e4adf2724af8f1646eae3a16f45d696c9334594729d09bf192da1f7838718284604051808381526020018281526020019250505060405180910390a25b505050565b600760009054906101000a900460ff1681565b611070612edc565b73ffffffffffffffffffffffffffffffffffffffff1661108e61128f565b73ffffffffffffffffffffffffffffffffffffffff1614611117576040517f08c379a00000000000000000000000000000000000000000000000000000000081526004018080602001828103825260208152602001807f4f776e61626c653a2063616c6c6572206973206e6f7420746865206f776e657281525060200191505060405180910390fd5b600073ffffffffffffffffffffffffffffffffffffffff1660008054906101000a900473ffffffffffffffffffffffffffffffffffffffff1673ffffffffffffffffffffffffffffffffffffffff167f8be0079c531659141344cd1fd0a4f28419497f9722a3daafe3b4186f6b6457e060405160405180910390a360008060006101000a81548173ffffffffffffffffffffffffffffffffffffffff021916908373ffffffffffffffffffffffffffffffffffffffff160217905550565b80600660008573ffffffffffffffffffffffffffffffffffffffff1673ffffffffffffffffffffffffffffffffffffffff16815260200190815260200160002060008481526020019081526020016000206001015414611280576040517f08c379a000000000000000000000000000000000000000000000000000000000815260040180806020018281038252603481526020018061466d6034913960400191505060405180910390fd5b61128a83836114e8565b505050565b60008060009054906101000a900473ffffffffffffffffffffffffffffffffffffffff16905090565b60006112c483836130d9565b6112ce83836134e8565b1561132e57600560008473ffffffffffffffffffffffffffffffffffffffff1673ffffffffffffffffffffffffffffffffffffffff1681526020019081526020016000206000838152602001908152602001600020600101549050611333565b600090505b92915050565b600061134583836130d9565b61134f83836134e8565b156114dd576114d6600360009054906101000a900473ffffffffffffffffffffffffffffffffffffffff1673ffffffffffffffffffffffffffffffffffffffff1663c3fc4952600560008773ffffffffffffffffffffffffffffffffffffffff1673ffffffffffffffffffffffffffffffffffffffff1681526020019081526020016000206000868152602001908152602001600020600101546040518263ffffffff167c01000000000000000000000000000000000000000000000000000000000281526004018082815260200191505060206040518083038186803b15801561143957600080fd5b505afa15801561144d573d6000803e3d6000fd5b505050506040513d602081101561146357600080fd5b8101908080519060200190929190505050600560008673ffffffffffffffffffffffffffffffffffffffff1673ffffffffffffffffffffffffffffffffffffffff16815260200190815260200160002060008581526020019081526020016000206001015461364090919063ffffffff16565b90506114e2565b600090505b92915050565b6114f282826130d9565b6114fc82826132c1565b61150682826136c8565b61155b576040517f08c379a00000000000000000000000000000000000000000000000000000000081526004018080602001828103825260328152602001806146a16032913960400191505060405180910390fd5b611563614415565b600660008473ffffffffffffffffffffffffffffffffffffffff1673ffffffffffffffffffffffffffffffffffffffff16815260200190815260200160002060008381526020019081526020016000206040518060600160405290816000820160009054906101000a900473ffffffffffffffffffffffffffffffffffffffff1673ffffffffffffffffffffffffffffffffffffffff1673ffffffffffffffffffffffffffffffffffffffff1681526020016000820160149054906101000a900460ff1660ff1660ff16815260200160018201548152505090506116478383613413565b6116518383613775565b60008390508073ffffffffffffffffffffffffffffffffffffffff166342842e0e338460000151866040518463ffffffff167c0100000000000000000000000000000000000000000000000000000000028152600401808473ffffffffffffffffffffffffffffffffffffffff1681526020018373ffffffffffffffffffffffffffffffffffffffff1681526020018281526020019350505050600060405180830381600087803b15801561170557600080fd5b505af1158015611719573d6000803e3d6000fd5b50505050600061172f61172a61128f565b613875565b9050611b998360400151600360009054906101000a900473ffffffffffffffffffffffffffffffffffffffff1673ffffffffffffffffffffffffffffffffffffffff1663511bc84c88886040518363ffffffff167c0100000000000000000000000000000000000000000000000000000000028152600401808373ffffffffffffffffffffffffffffffffffffffff1681526020018281526020019250505060206040518083038186803b1580156117e657600080fd5b505afa1580156117fa573d6000803e3d6000fd5b505050506040513d602081101561181057600080fd5b810190808051906020019092919050505015600360009054906101000a900473ffffffffffffffffffffffffffffffffffffffff1673ffffffffffffffffffffffffffffffffffffffff1663834759216040518163ffffffff167c010000000000000000000000000000000000000000000000000000000002815260040160206040518083038186803b1580156118a657600080fd5b505afa1580156118ba573d6000803e3d6000fd5b505050506040513d60208110156118d057600080fd5b8101908080519060200190929190505050600460009054906101000a900473ffffffffffffffffffffffffffffffffffffffff1673ffffffffffffffffffffffffffffffffffffffff16637c0329f78a8a6040518363ffffffff167c0100000000000000000000000000000000000000000000000000000000028152600401808373ffffffffffffffffffffffffffffffffffffffff1681526020018281526020019250505060206040518083038186803b15801561198e57600080fd5b505afa1580156119a2573d6000803e3d6000fd5b505050506040513d60208110156119b857600080fd5b8101908080519060200190929190505050600360009054906101000a900473ffffffffffffffffffffffffffffffffffffffff1673ffffffffffffffffffffffffffffffffffffffff1663b28a7bad8b6040518263ffffffff167c0100000000000000000000000000000000000000000000000000000000028152600401808273ffffffffffffffffffffffffffffffffffffffff16815260200191505060206040518083038186803b158015611a6e57600080fd5b505afa158015611a82573d6000803e3d6000fd5b505050506040513d6020811015611a9857600080fd5b81019080805190602001909291905050503387600460009054906101000a900473ffffffffffffffffffffffffffffffffffffffff1673ffffffffffffffffffffffffffffffffffffffff1663b85ed7e48e8e6040518363ffffffff167c0100000000000000000000000000000000000000000000000000000000028152600401808373ffffffffffffffffffffffffffffffffffffffff1681526020018281526020019250505060206040518083038186803b158015611b5857600080fd5b505afa158015611b6c573d6000803e3d6000fd5b505050506040513d6020811015611b8257600080fd5b81019080805190602001909291905050508961387f565b600360009054906101000a900473ffffffffffffffffffffffffffffffffffffffff1673ffffffffffffffffffffffffffffffffffffffff16635a3c652d868660016040518463ffffffff167c0100000000000000000000000000000000000000000000000000000000028152600401808473ffffffffffffffffffffffffffffffffffffffff16815260200183815260200182151581526020019350505050600060405180830381600087803b158015611c5357600080fd5b505af1158015611c67573d6000803e3d6000fd5b505050503373ffffffffffffffffffffffffffffffffffffffff16836000015173ffffffffffffffffffffffffffffffffffffffff168673ffffffffffffffffffffffffffffffffffffffff167f2a9d06eec42acd217a17785dbec90b8b4f01a93ecd8c127edd36bfccf239f8b6866040015188604051808381526020018281526020019250505060405180910390a45050505050565b600360009054906101000a900473ffffffffffffffffffffffffffffffffffffffff1681565b60008311611d9a576040517f08c379a00000000000000000000000000000000000000000000000000000000081526004018080602001828103825260168152602001807f6269643a3a43616e6e6f74206269642030205765692e0000000000000000000081525060200191505060405180910390fd5b6000600660008473ffffffffffffffffffffffffffffffffffffffff1673ffffffffffffffffffffffffffffffffffffffff16815260200190815260200160002060008381526020019081526020016000206001015490508084118015611e4a5750611e46611e376064611e29600760009054906101000a900460ff1660ff1685613c2a90919063ffffffff16565b613cb090919063ffffffff16565b8261364090919063ffffffff16565b8410155b611e9f576040517f08c379a00000000000000000000000000000000000000000000000000000000081526004018080602001828103825260428152602001806147ed6042913960600191505060405180910390fd5b6000611f7d600360009054906101000a900473ffffffffffffffffffffffffffffffffffffffff1673ffffffffffffffffffffffffffffffffffffffff1663c3fc4952876040518263ffffffff167c01000000000000000000000000000000000000000000000000000000000281526004018082815260200191505060206040518083038186803b158015611f3357600080fd5b505afa158015611f47573d6000803e3d6000fd5b505050506040513d6020811015611f5d57600080fd5b81019080805190602001909291905050508661364090919063ffffffff16565b9050348114611fd7576040517f08c379a00000000000000000000000000000000000000000000000000000000081526004018080602001828103825260338152602001806145f56033913960400191505060405180910390fd5b600084905060008173ffffffffffffffffffffffffffffffffffffffff16636352211e866040518263ffffffff167c01000000000000000000000000000000000000000000000000000000000281526004018082815260200191505060206040518083038186803b15801561204b57600080fd5b505afa15801561205f573d6000803e3d6000fd5b505050506040513d602081101561207557600080fd5b810190808051906020019092919050505090503373ffffffffffffffffffffffffffffffffffffffff168173ffffffffffffffffffffffffffffffffffffffff16141561212a576040517f08c379a000000000000000000000000000000000000000000000000000000000815260040180806020018281038252601c8152602001807f6269643a3a4269646465722063616e6e6f74206265206f776e65722e0000000081525060200191505060405180910390fd5b6121348686612f91565b61214087338888613d39565b3373ffffffffffffffffffffffffffffffffffffffff168673ffffffffffffffffffffffffffffffffffffffff167fd21fbaad97462831ad0c216f300fefb33a10b03bb18bb70ed668562e88d15d538988604051808381526020018281526020019250505060405180910390a350505050505050565b80600560008573ffffffffffffffffffffffffffffffffffffffff1673ffffffffffffffffffffffffffffffffffffffff16815260200190815260200160002060008481526020019081526020016000206001015414612261576040517f08c379a00000000000000000000000000000000000000000000000000000000081526004018080602001828103825260338152602001806145416033913960400191505060405180910390fd5b61226b8383612296565b505050565b600460009054906101000a900473ffffffffffffffffffffffffffffffffffffffff1681565b6122a082826130d9565b6122aa82826134e8565b6122ff576040517f08c379a00000000000000000000000000000000000000000000000000000000081526004018080602001828103825260458152602001806146286045913960600191505060405180910390fd5b61230761444f565b600560008473ffffffffffffffffffffffffffffffffffffffff1673ffffffffffffffffffffffffffffffffffffffff16815260200190815260200160002060008381526020019081526020016000206040518060400160405290816000820160009054906101000a900473ffffffffffffffffffffffffffffffffffffffff1673ffffffffffffffffffffffffffffffffffffffff1673ffffffffffffffffffffffffffffffffffffffff16815260200160018201548152505090506000816020015111612421576040517f08c379a00000000000000000000000000000000000000000000000000000000081526004018080602001828103825260298152602001806145cc6029913960400191505060405180910390fd5b3461242c8484611339565b14612482576040517f08c379a000000000000000000000000000000000000000000000000000000000815260040180806020018281038252603281526020018061459a6032913960400191505060405180910390fd5b600083905060008173ffffffffffffffffffffffffffffffffffffffff16636352211e856040518263ffffffff167c01000000000000000000000000000000000000000000000000000000000281526004018082815260200191505060206040518083038186803b1580156124f657600080fd5b505afa15801561250a573d6000803e3d6000fd5b505050506040513d602081101561252057600080fd5b8101908080519060200190929190505050905061253d8585613413565b8173ffffffffffffffffffffffffffffffffffffffff166342842e0e8233876040518463ffffffff167c0100000000000000000000000000000000000000000000000000000000028152600401808473ffffffffffffffffffffffffffffffffffffffff1681526020018373ffffffffffffffffffffffffffffffffffffffff1681526020018281526020019350505050600060405180830381600087803b1580156125e857600080fd5b505af11580156125fc573d6000803e3d6000fd5b5050505061260b338686612ee4565b1561261b5761261a8585612f91565b5b600061262d61262861128f565b613875565b9050612a9f8460200151600360009054906101000a900473ffffffffffffffffffffffffffffffffffffffff1673ffffffffffffffffffffffffffffffffffffffff1663511bc84c89896040518363ffffffff167c0100000000000000000000000000000000000000000000000000000000028152600401808373ffffffffffffffffffffffffffffffffffffffff1681526020018281526020019250505060206040518083038186803b1580156126e457600080fd5b505afa1580156126f8573d6000803e3d6000fd5b505050506040513d602081101561270e57600080fd5b810190808051906020019092919050505015600360009054906101000a900473ffffffffffffffffffffffffffffffffffffffff1673ffffffffffffffffffffffffffffffffffffffff1663834759216040518163ffffffff167c010000000000000000000000000000000000000000000000000000000002815260040160206040518083038186803b1580156127a457600080fd5b505afa1580156127b8573d6000803e3d6000fd5b505050506040513d60208110156127ce57600080fd5b8101908080519060200190929190505050600460009054906101000a900473ffffffffffffffffffffffffffffffffffffffff1673ffffffffffffffffffffffffffffffffffffffff16637c0329f78b8b6040518363ffffffff167c0100000000000000000000000000000000000000000000000000000000028152600401808373ffffffffffffffffffffffffffffffffffffffff1681526020018281526020019250505060206040518083038186803b15801561288c57600080fd5b505afa1580156128a0573d6000803e3d6000fd5b505050506040513d60208110156128b657600080fd5b8101908080519060200190929190505050600360009054906101000a900473ffffffffffffffffffffffffffffffffffffffff1673ffffffffffffffffffffffffffffffffffffffff1663b28a7bad8c6040518263ffffffff167c0100000000000000000000000000000000000000000000000000000000028152600401808273ffffffffffffffffffffffffffffffffffffffff16815260200191505060206040518083038186803b15801561296c57600080fd5b505afa158015612980573d6000803e3d6000fd5b505050506040513d602081101561299657600080fd5b81019080805190602001909291905050506129b088613875565b87600460009054906101000a900473ffffffffffffffffffffffffffffffffffffffff1673ffffffffffffffffffffffffffffffffffffffff1663b85ed7e48f8f6040518363ffffffff167c0100000000000000000000000000000000000000000000000000000000028152600401808373ffffffffffffffffffffffffffffffffffffffff1681526020018281526020019250505060206040518083038186803b158015612a5e57600080fd5b505afa158015612a72573d6000803e3d6000fd5b505050506040513d6020811015612a8857600080fd5b81019080805190602001909291905050508961387f565b600360009054906101000a900473ffffffffffffffffffffffffffffffffffffffff1673ffffffffffffffffffffffffffffffffffffffff16635a3c652d878760016040518463ffffffff167c0100000000000000000000000000000000000000000000000000000000028152600401808473ffffffffffffffffffffffffffffffffffffffff16815260200183815260200182151581526020019350505050600060405180830381600087803b158015612b5957600080fd5b505af1158015612b6d573d6000803e3d6000fd5b505050508173ffffffffffffffffffffffffffffffffffffffff163373ffffffffffffffffffffffffffffffffffffffff168773ffffffffffffffffffffffffffffffffffffffff167f5764dbcef91eb6f946584f4ea671217c686fa7e858ce4f9f42d08422b86556a9876020015189604051808381526020018281526020019250505060405180910390a4505050505050565b6000600260009054906101000a900473ffffffffffffffffffffffffffffffffffffffff1673ffffffffffffffffffffffffffffffffffffffff1663e3a9db1a836040518263ffffffff167c0100000000000000000000000000000000000000000000000000000000028152600401808273ffffffffffffffffffffffffffffffffffffffff16815260200191505060206040518083038186803b158015612ca857600080fd5b505afa158015612cbc573d6000803e3d6000fd5b505050506040513d6020811015612cd257600080fd5b81019080805190602001909291905050509050919050565b612cf2612edc565b73ffffffffffffffffffffffffffffffffffffffff16612d1061128f565b73ffffffffffffffffffffffffffffffffffffffff1614612d99576040517f08c379a00000000000000000000000000000000000000000000000000000000081526004018080602001828103825260208152602001807f4f776e61626c653a2063616c6c6572206973206e6f7420746865206f776e657281525060200191505060405180910390fd5b600073ffffffffffffffffffffffffffffffffffffffff168173ffffffffffffffffffffffffffffffffffffffff161415612e1f576040517f08c379a00000000000000000000000000000000000000000000000000000000081526004018080602001828103825260268152602001806145746026913960400191505060405180910390fd5b8073ffffffffffffffffffffffffffffffffffffffff1660008054906101000a900473ffffffffffffffffffffffffffffffffffffffff1673ffffffffffffffffffffffffffffffffffffffff167f8be0079c531659141344cd1fd0a4f28419497f9722a3daafe3b4186f6b6457e060405160405180910390a3806000806101000a81548173ffffffffffffffffffffffffffffffffffffffff021916908373ffffffffffffffffffffffffffffffffffffffff16021790555050565b600033905090565b60008373ffffffffffffffffffffffffffffffffffffffff16600660008573ffffffffffffffffffffffffffffffffffffffff1673ffffffffffffffffffffffffffffffffffffffff168152602001908152602001600020600084815260200190815260200160002060000160009054906101000a900473ffffffffffffffffffffffffffffffffffffffff1673ffffffffffffffffffffffffffffffffffffffff161490509392505050565b612f99614415565b600660008473ffffffffffffffffffffffffffffffffffffffff1673ffffffffffffffffffffffffffffffffffffffff16815260200190815260200160002060008381526020019081526020016000206040518060600160405290816000820160009054906101000a900473ffffffffffffffffffffffffffffffffffffffff1673ffffffffffffffffffffffffffffffffffffffff1673ffffffffffffffffffffffffffffffffffffffff1681526020016000820160149054906101000a900460ff1660ff1660ff1681526020016001820154815250509050600073ffffffffffffffffffffffffffffffffffffffff16816000015173ffffffffffffffffffffffffffffffffffffffff1614156130b257506130d5565b6130bc8383613775565b6130d3816020015182600001518360400151613f99565b505b5050565b600082905060008173ffffffffffffffffffffffffffffffffffffffff16636352211e846040518263ffffffff167c01000000000000000000000000000000000000000000000000000000000281526004018082815260200191505060206040518083038186803b15801561314d57600080fd5b505afa158015613161573d6000803e3d6000fd5b505050506040513d602081101561317757600080fd5b810190808051906020019092919050505090508173ffffffffffffffffffffffffffffffffffffffff1663e985e9c582306040518363ffffffff167c0100000000000000000000000000000000000000000000000000000000028152600401808373ffffffffffffffffffffffffffffffffffffffff1681526020018273ffffffffffffffffffffffffffffffffffffffff1681526020019250505060206040518083038186803b15801561322b57600080fd5b505afa15801561323f573d6000803e3d6000fd5b505050506040513d602081101561325557600080fd5b81019080805190602001909291905050506132bb576040517f08c379a00000000000000000000000000000000000000000000000000000000081526004018080602001828103825260218152602001806147cc6021913960400191505060405180910390fd5b50505050565b60008290503373ffffffffffffffffffffffffffffffffffffffff168173ffffffffffffffffffffffffffffffffffffffff16636352211e846040518263ffffffff167c01000000000000000000000000000000000000000000000000000000000281526004018082815260200191505060206040518083038186803b15801561334a57600080fd5b505afa15801561335e573d6000803e3d6000fd5b505050506040513d602081101561337457600080fd5b810190808051906020019092919050505073ffffffffffffffffffffffffffffffffffffffff161461340e576040517f08c379a000000000000000000000000000000000000000000000000000000000815260040180806020018281038252601e8152602001807f73656e646572206d7573742062652074686520746f6b656e206f776e6572000081525060200191505060405180910390fd5b505050565b6040518060400160405280600073ffffffffffffffffffffffffffffffffffffffff1681526020016000815250600560008473ffffffffffffffffffffffffffffffffffffffff1673ffffffffffffffffffffffffffffffffffffffff168152602001908152602001600020600083815260200190815260200160002060008201518160000160006101000a81548173ffffffffffffffffffffffffffffffffffffffff021916908373ffffffffffffffffffffffffffffffffffffffff160217905550602082015181600101559050505050565b600080839050600560008573ffffffffffffffffffffffffffffffffffffffff1673ffffffffffffffffffffffffffffffffffffffff168152602001908152602001600020600084815260200190815260200160002060000160009054906101000a900473ffffffffffffffffffffffffffffffffffffffff1673ffffffffffffffffffffffffffffffffffffffff168173ffffffffffffffffffffffffffffffffffffffff16636352211e856040518263ffffffff167c01000000000000000000000000000000000000000000000000000000000281526004018082815260200191505060206040518083038186803b1580156135e557600080fd5b505afa1580156135f9573d6000803e3d6000fd5b505050506040513d602081101561360f57600080fd5b810190808051906020019092919050505073ffffffffffffffffffffffffffffffffffffffff161491505092915050565b6000808284019050838110156136be576040517f08c379a000000000000000000000000000000000000000000000000000000000815260040180806020018281038252601b8152602001807f536166654d6174683a206164646974696f6e206f766572666c6f77000000000081525060200191505060405180910390fd5b8091505092915050565b60008073ffffffffffffffffffffffffffffffffffffffff16600660008573ffffffffffffffffffffffffffffffffffffffff1673ffffffffffffffffffffffffffffffffffffffff168152602001908152602001600020600084815260200190815260200160002060000160009054906101000a900473ffffffffffffffffffffffffffffffffffffffff1673ffffffffffffffffffffffffffffffffffffffff161415905092915050565b6040518060600160405280600073ffffffffffffffffffffffffffffffffffffffff168152602001600060ff1681526020016000815250600660008473ffffffffffffffffffffffffffffffffffffffff1673ffffffffffffffffffffffffffffffffffffffff168152602001908152602001600020600083815260200190815260200160002060008201518160000160006101000a81548173ffffffffffffffffffffffffffffffffffffffff021916908373ffffffffffffffffffffffffffffffffffffffff16021790555060208201518160000160146101000a81548160ff021916908360ff160217905550604082015181600101559050505050565b6000819050919050565b60648760ff1611156138dc576040517f08c379a000000000000000000000000000000000000000000000000000000000815260040180806020018281038252603281526020018061470c6032913960400191505060405180910390fd5b60646138f78660ff168860ff1661364090919063ffffffff16565b111561394e576040517f08c379a000000000000000000000000000000000000000000000000000000000815260040180806020018281038252602881526020018061473e6028913960400191505060405180910390fd5b600073ffffffffffffffffffffffffffffffffffffffff168473ffffffffffffffffffffffffffffffffffffffff16141580156139b85750600073ffffffffffffffffffffffffffffffffffffffff168173ffffffffffffffffffffffffffffffffffffffff1614155b80156139f15750600073ffffffffffffffffffffffffffffffffffffffff168373ffffffffffffffffffffffffffffffffffffffff1614155b8015613a2a5750600073ffffffffffffffffffffffffffffffffffffffff168273ffffffffffffffffffffffffffffffffffffffff1614155b613a7f576040517f08c379a00000000000000000000000000000000000000000000000000000000081526004018080602001828103825260298152602001806144ef6029913960400191505060405180910390fd5b613a8761447f565b613a918a89614053565b81600060048110613a9e57fe5b602002018181525050613ab2898b89614086565b81600160048110613abf57fe5b602002018181525050613ad3898b886140ab565b81600260048110613ae057fe5b602002018181525050613b3081600260048110613af957fe5b6020020151613b2283600160048110613b0e57fe5b60200201518d6140d090919063ffffffff16565b6140d090919063ffffffff16565b81600360048110613b3d57fe5b602002018181525050600081600060048110613b5557fe5b60200201511115613b7c57613b7b8482600060048110613b7157fe5b6020020151614153565b5b600081600160048110613b8b57fe5b60200201511115613bb257613bb18382600160048110613ba757fe5b6020020151614153565b5b600081600260048110613bc157fe5b60200201511115613be857613be78282600260048110613bdd57fe5b6020020151614153565b5b600081600360048110613bf757fe5b60200201511115613c1e57613c1d8582600360048110613c1357fe5b6020020151614153565b5b50505050505050505050565b600080831415613c3d5760009050613caa565b6000828402905082848281613c4e57fe5b0414613ca5576040517f08c379a00000000000000000000000000000000000000000000000000000000081526004018080602001828103825260218152602001806147ab6021913960400191505060405180910390fd5b809150505b92915050565b6000808211613d27576040517f08c379a000000000000000000000000000000000000000000000000000000000815260040180806020018281038252601a8152602001807f536166654d6174683a206469766973696f6e206279207a65726f00000000000081525060200191505060405180910390fd5b818381613d3057fe5b04905092915050565b600073ffffffffffffffffffffffffffffffffffffffff168373ffffffffffffffffffffffffffffffffffffffff161415613ddc576040517f08c379a000000000000000000000000000000000000000000000000000000000815260040180806020018281038252601b8152602001807f4269646465722063616e6e6f74206265203020616464726573732e000000000081525060200191505060405180910390fd5b60405180606001604052808473ffffffffffffffffffffffffffffffffffffffff168152602001600360009054906101000a900473ffffffffffffffffffffffffffffffffffffffff1673ffffffffffffffffffffffffffffffffffffffff1663834759216040518163ffffffff167c010000000000000000000000000000000000000000000000000000000002815260040160206040518083038186803b158015613e8757600080fd5b505afa158015613e9b573d6000803e3d6000fd5b505050506040513d6020811015613eb157600080fd5b810190808051906020019092919050505060ff16815260200185815250600660008473ffffffffffffffffffffffffffffffffffffffff1673ffffffffffffffffffffffffffffffffffffffff168152602001908152602001600020600083815260200190815260200160002060008201518160000160006101000a81548173ffffffffffffffffffffffffffffffffffffffff021916908373ffffffffffffffffffffffffffffffffffffffff16021790555060208201518160000160146101000a81548160ff021916908360ff1602179055506040820151816001015590505050505050565b600073ffffffffffffffffffffffffffffffffffffffff168273ffffffffffffffffffffffffffffffffffffffff16141561401f576040517f08c379a00000000000000000000000000000000000000000000000000000000081526004018080602001828103825260298152602001806145186029913960400191505060405180910390fd5b600081111561404e5761404d826140486140398487614053565b8461364090919063ffffffff16565b614153565b5b505050565b600061407e60646140708460ff1686613c2a90919063ffffffff16565b613cb090919063ffffffff16565b905092915050565b6000831561409757600090506140a4565b6140a18383614053565b90505b9392505050565b600083156140c4576140bd8383614053565b90506140c9565b600090505b9392505050565b600082821115614148576040517f08c379a000000000000000000000000000000000000000000000000000000000815260040180806020018281038252601e8152602001807f536166654d6174683a207375627472616374696f6e206f766572666c6f77000081525060200191505060405180910390fd5b818303905092915050565b600061415f83836141c4565b905080614171576141708383614351565b5b8273ffffffffffffffffffffffffffffffffffffffff167fd88d14434dd4c47d8cd227a931f475ddfaa46a219994f6c5094bd04d940c3c1b836040518082815260200191505060405180910390a2505050565b6000806060600160009054906101000a900473ffffffffffffffffffffffffffffffffffffffff1673ffffffffffffffffffffffffffffffffffffffff168486604051602401808273ffffffffffffffffffffffffffffffffffffffff1681526020019150506040516020818303038152906040527f7d286e48000000000000000000000000000000000000000000000000000000007bffffffffffffffffffffffffffffffffffffffffffffffffffffffff19166020820180517bffffffffffffffffffffffffffffffffffffffffffffffffffffffff83818316178352505050506040518082805190602001908083835b602083106142da57805182526020820191506020810190506020830392506142b7565b6001836020036101000a03801982511681845116808217855250505050505090500191505060006040518083038185875af1925050503d806000811461433c576040519150601f19603f3d011682016040523d82523d6000602084013e614341565b606091505b5091509150819250505092915050565b600260009054906101000a900473ffffffffffffffffffffffffffffffffffffffff1673ffffffffffffffffffffffffffffffffffffffff1663f340fa0182846040518363ffffffff167c0100000000000000000000000000000000000000000000000000000000028152600401808273ffffffffffffffffffffffffffffffffffffffff1681526020019150506000604051808303818588803b1580156143f857600080fd5b505af115801561440c573d6000803e3d6000fd5b50505050505050565b6040518060600160405280600073ffffffffffffffffffffffffffffffffffffffff168152602001600060ff168152602001600081525090565b6040518060400160405280600073ffffffffffffffffffffffffffffffffffffffff168152602001600081525090565b604051806080016040528060049060208202803683378082019150509050509056fe7365744945524337323143726561746f72526f79616c74793a3a43616e6e6f742068617665206e756c6c206164647265737320666f72205f6945524337323143726561746f72526f79616c74797061796f75743a3a6e6f207061796565732063616e20626520746865207a65726f2061646472657373726566756e643a3a6e6f207061796565732063616e20626520746865207a65726f2061646472657373736166654275793a3a507572636861736520616d6f756e74206d75737420657175616c20657870656374656420616d6f756e744f776e61626c653a206e6577206f776e657220697320746865207a65726f20616464726573736275793a3a4d7573742070757263686173652074686520746f6b656e20666f722074686520636f72726563742070726963656275793a3a546f6b656e7320707269636564206174203020617265206e6f7420666f722073616c652e6269643a3a4d7573742070757263686173652074686520746f6b656e20666f722074686520636f72726563742070726963652e6275793a3a43757272656e7420746f6b656e206f776e6572206d7573742062652074686520706572736f6e20746f206861766520746865206c61746573742070726963652e736166654163636570744269643a3a42696420616d6f756e74206d75737420657175616c20657870656374656420616d6f756e746163636570744269643a3a43616e6e6f7420616363657074206120626964207768656e207468657265206973206e6f6e652e63616e63656c4269643a3a43616e6e6f742063616e63656c2061206269642069662073656e646572206861736e2774206d616465206f6e652e7061796f75743a3a6d61726b6574706c6163652070657263656e746167652063616e6e6f742062652061626f7665203130307061796f75743a3a70657263656e74616765732063616e6e6f7420676f206265796f6e64203130307365744d61726b6574706c61636553657474696e67733a3a43616e6e6f742068617665206e756c6c206164647265737320666f72205f694d61726b657453657474696e6773536166654d6174683a206d756c7469706c69636174696f6e206f766572666c6f776f776e6572206d757374206861766520617070726f76656420636f6e74726163746269643a3a4d75737420706c6163652068696768657220626964207468616e206578697374696e6720626964202b206d696e696d756d2070657263656e746167652ea2646970667358221220cb3e36691b09bd776fcf6778cd188d238914220b0b396261b97bfc696ba5f10764736f6c634300060c0033608060405234801561001057600080fd5b5060fe8061001f6000396000f3fe6080604052600436106039576000357c0100000000000000000000000000000000000000000000000000000000900480637d286e4814603e575b600080fd5b607d60048036036020811015605257600080fd5b81019080803573ffffffffffffffffffffffffffffffffffffffff169060200190929190505050607f565b005b8073ffffffffffffffffffffffffffffffffffffffff166108fc349081150290604051600060405180830381858888f1935050505015801560c4573d6000803e3d6000fd5b505056fea26469706673582212209c65a154c6772049e4db694667a1e294a94eeea80e3b01a69ad07b916d4cb36764736f6c634300060c0033608060405234801561001057600080fd5b50600061002a6100cd640100000000026401000000009004565b9050806000806101000a81548173ffffffffffffffffffffffffffffffffffffffff021916908373ffffffffffffffffffffffffffffffffffffffff1602179055508073ffffffffffffffffffffffffffffffffffffffff16600073ffffffffffffffffffffffffffffffffffffffff167f8be0079c531659141344cd1fd0a4f28419497f9722a3daafe3b4186f6b6457e060405160405180910390a3506100d5565b600033905090565b610bb0806100e46000396000f3fe608060405260043610610072576000357c01000000000000000000000000000000000000000000000000000000009004806351cff8d914610077578063715018a6146100c85780638da5cb5b146100df578063e3a9db1a14610120578063f2fde38b14610185578063f340fa01146101d6575b600080fd5b34801561008357600080fd5b506100c66004803603602081101561009a57600080fd5b81019080803573ffffffffffffffffffffffffffffffffffffffff16906020019092919050505061021a565b005b3480156100d457600080fd5b506100dd6103cd565b005b3480156100eb57600080fd5b506100f461053a565b604051808273ffffffffffffffffffffffffffffffffffffffff16815260200191505060405180910390f35b34801561012c57600080fd5b5061016f6004803603602081101561014357600080fd5b81019080803573ffffffffffffffffffffffffffffffffffffffff169060200190929190505050610563565b6040518082815260200191505060405180910390f35b34801561019157600080fd5b506101d4600480360360208110156101a857600080fd5b81019080803573ffffffffffffffffffffffffffffffffffffffff1690602001909291905050506105ac565b005b610218600480360360208110156101ec57600080fd5b81019080803573ffffffffffffffffffffffffffffffffffffffff16906020019092919050505061079e565b005b610222610939565b73ffffffffffffffffffffffffffffffffffffffff1661024061053a565b73ffffffffffffffffffffffffffffffffffffffff16146102c9576040517f08c379a00000000000000000000000000000000000000000000000000000000081526004018080602001828103825260208152602001807f4f776e61626c653a2063616c6c6572206973206e6f7420746865206f776e657281525060200191505060405180910390fd5b6000600160008373ffffffffffffffffffffffffffffffffffffffff1673ffffffffffffffffffffffffffffffffffffffff1681526020019081526020016000205490506000600160008473ffffffffffffffffffffffffffffffffffffffff1673ffffffffffffffffffffffffffffffffffffffff1681526020019081526020016000208190555061037b818373ffffffffffffffffffffffffffffffffffffffff1661094190919063ffffffff16565b8173ffffffffffffffffffffffffffffffffffffffff167f7084f5476618d8e60b11ef0d7d3f06914655adb8793e28ff7f018d4c76d505d5826040518082815260200191505060405180910390a25050565b6103d5610939565b73ffffffffffffffffffffffffffffffffffffffff166103f361053a565b73ffffffffffffffffffffffffffffffffffffffff161461047c576040517f08c379a00000000000000000000000000000000000000000000000000000000081526004018080602001828103825260208152602001807f4f776e61626c653a2063616c6c6572206973206e6f7420746865206f776e657281525060200191505060405180910390fd5b600073ffffffffffffffffffffffffffffffffffffffff1660008054906101000a900473ffffffffffffffffffffffffffffffffffffffff1673ffffffffffffffffffffffffffffffffffffffff167f8be0079c531659141344cd1fd0a4f28419497f9722a3daafe3b4186f6b6457e060405160405180910390a360008060006101000a81548173ffffffffffffffffffffffffffffffffffffffff021916908373ffffffffffffffffffffffffffffffffffffffff160217905550565b60008060009054906101000a900473ffffffffffffffffffffffffffffffffffffffff16905090565b6000600160008373ffffffffffffffffffffffffffffffffffffffff1673ffffffffffffffffffffffffffffffffffffffff168152602001908152602001600020549050919050565b6105b4610939565b73ffffffffffffffffffffffffffffffffffffffff166105d261053a565b73ffffffffffffffffffffffffffffffffffffffff161461065b576040517f08c379a00000000000000000000000000000000000000000000000000000000081526004018080602001828103825260208152602001807f4f776e61626c653a2063616c6c6572206973206e6f7420746865206f776e657281525060200191505060405180910390fd5b600073ffffffffffffffffffffffffffffffffffffffff168173ffffffffffffffffffffffffffffffffffffffff1614156106e1576040517f08c379a0000000000000000000000000000000000000000000000000000000008152600401808060200182810382526026815260200180610b1b6026913960400191505060405180910390fd5b8073ffffffffffffffffffffffffffffffffffffffff1660008054906101000a900473ffffffffffffffffffffffffffffffffffffffff1673ffffffffffffffffffffffffffffffffffffffff167f8be0079c531659141344cd1fd0a4f28419497f9722a3daafe3b4186f6b6457e060405160405180910390a3806000806101000a81548173ffffffffffffffffffffffffffffffffffffffff021916908373ffffffffffffffffffffffffffffffffffffffff16021790555050565b6107a6610939565b73ffffffffffffffffffffffffffffffffffffffff166107c461053a565b73ffffffffffffffffffffffffffffffffffffffff161461084d576040517f08c379a00000000000000000000000000000000000000000000000000000000081526004018080602001828103825260208152602001807f4f776e61626c653a2063616c6c6572206973206e6f7420746865206f776e657281525060200191505060405180910390fd5b60003490506108a481600160008573ffffffffffffffffffffffffffffffffffffffff1673ffffffffffffffffffffffffffffffffffffffff16815260200190815260200160002054610a9290919063ffffffff16565b600160008473ffffffffffffffffffffffffffffffffffffffff1673ffffffffffffffffffffffffffffffffffffffff168152602001908152602001600020819055508173ffffffffffffffffffffffffffffffffffffffff167f2da466a7b24304f47e87fa2e1e5a81b9831ce54fec19055ce277ca2f39ba42c4826040518082815260200191505060405180910390a25050565b600033905090565b803073ffffffffffffffffffffffffffffffffffffffff163110156109ce576040517f08c379a000000000000000000000000000000000000000000000000000000000815260040180806020018281038252601d8152602001807f416464726573733a20696e73756666696369656e742062616c616e636500000081525060200191505060405180910390fd5b60008273ffffffffffffffffffffffffffffffffffffffff168260405180600001905060006040518083038185875af1925050503d8060008114610a2e576040519150601f19603f3d011682016040523d82523d6000602084013e610a33565b606091505b5050905080610a8d576040517f08c379a000000000000000000000000000000000000000000000000000000000815260040180806020018281038252603a815260200180610b41603a913960400191505060405180910390fd5b505050565b600080828401905083811015610b10576040517f08c379a000000000000000000000000000000000000000000000000000000000815260040180806020018281038252601b8152602001807f536166654d6174683a206164646974696f6e206f766572666c6f77000000000081525060200191505060405180910390fd5b809150509291505056fe4f776e61626c653a206e6577206f776e657220697320746865207a65726f2061646472657373416464726573733a20756e61626c6520746f2073656e642076616c75652c20726563697069656e74206d61792068617665207265766572746564a26469706673582212208234627d80f3147bbb31293043d7d58305eec2bbdac731b64fffcc7d00d0c42f64736f6c634300060c0033636f6e7374727563746f723a3a43616e6e6f742068617665206e756c6c206164647265737320666f72205f6945524337323143726561746f72526f79616c7479636f6e7374727563746f723a3a43616e6e6f742068617665206e756c6c206164647265737320666f72205f694d61726b657453657474696e6773",
  "immutableReferences": {},
  "source": "// SPDX-License-Identifier: MIT\npragma solidity 0.6.12;\n\nimport \"@openzeppelin/contracts/token/ERC721/ERC721.sol\";\nimport \"@openzeppelin/contracts/access/Ownable.sol\";\nimport \"@openzeppelin/contracts/math/SafeMath.sol\";\nimport \"./IERC721CreatorRoyalty.sol\";\nimport \"./Marketplace/IMarketplaceSettings.sol\";\nimport \"./Payments.sol\";\n\ncontract IntangibleMarketAuctionV2 is Ownable, Payments {\n    using SafeMath for uint256;\n\n    /////////////////////////////////////////////////////////////////////////\n    // Structs\n    /////////////////////////////////////////////////////////////////////////\n\n    // The active bid for a given token, contains the bidder, the marketplace fee at the time of the bid, and the amount of wei placed on the token\n    struct ActiveBid {\n        address payable bidder;\n        uint8 marketplaceFee;\n        uint256 amount;\n    }\n\n    // The sale price for a given token containing the seller and the amount of wei to be sold for\n    struct SalePrice {\n        address payable seller;\n        uint256 amount;\n    }\n\n    /////////////////////////////////////////////////////////////////////////\n    // State Variables\n    /////////////////////////////////////////////////////////////////////////\n\n    // Marketplace Settings Interface\n    IMarketplaceSettings public iMarketplaceSettings;\n\n    // Creator Royalty Interface\n    IERC721CreatorRoyalty public iERC721CreatorRoyalty;\n\n    // Mapping from ERC721 contract to mapping of tokenId to sale price.\n    mapping(address => mapping(uint256 => SalePrice)) private tokenPrices;\n\n    // Mapping of ERC721 contract to mapping of token ID to the current bid amount.\n    mapping(address => mapping(uint256 => ActiveBid)) private tokenCurrentBids;\n\n    // A minimum increase in bid amount when out bidding someone.\n    uint8 public minimumBidIncreasePercentage; // 10 = 10%\n\n    /////////////////////////////////////////////////////////////////////////////\n    // Events\n    /////////////////////////////////////////////////////////////////////////////\n    event Sold(\n        address indexed _originContract,\n        address indexed _buyer,\n        address indexed _seller,\n        uint256 _amount,\n        uint256 _tokenId\n    );\n\n    event SetSalePrice(\n        address indexed _originContract,\n        uint256 _amount,\n        uint256 _tokenId\n    );\n\n    event Bid(\n        address indexed _originContract,\n        address indexed _bidder,\n        uint256 _amount,\n        uint256 _tokenId\n    );\n\n    event AcceptBid(\n        address indexed _originContract,\n        address indexed _bidder,\n        address indexed _seller,\n        uint256 _amount,\n        uint256 _tokenId\n    );\n\n    event CancelBid(\n        address indexed _originContract,\n        address indexed _bidder,\n        uint256 _amount,\n        uint256 _tokenId\n    );\n\n    /////////////////////////////////////////////////////////////////////////\n    // Constructor\n    /////////////////////////////////////////////////////////////////////////\n    /**\n     * @dev Initializes the contract setting the market settings and creator royalty interfaces.\n     * @param _iMarketSettings address to set as iMarketplaceSettings.\n     * @param _iERC721CreatorRoyalty address to set as iERC721CreatorRoyalty.\n     */\n    constructor(address _iMarketSettings, address _iERC721CreatorRoyalty)\n        public\n    {\n        require(\n            _iMarketSettings != address(0),\n            \"constructor::Cannot have null address for _iMarketSettings\"\n        );\n\n        require(\n            _iERC721CreatorRoyalty != address(0),\n            \"constructor::Cannot have null address for _iERC721CreatorRoyalty\"\n        );\n\n        // Set iMarketSettings\n        iMarketplaceSettings = IMarketplaceSettings(_iMarketSettings);\n\n        // Set iERC721CreatorRoyalty\n        iERC721CreatorRoyalty = IERC721CreatorRoyalty(_iERC721CreatorRoyalty);\n\n        minimumBidIncreasePercentage = 10;\n    }\n\n    /////////////////////////////////////////////////////////////////////////\n    // setIMarketplaceSettings\n    /////////////////////////////////////////////////////////////////////////\n    /**\n     * @dev Admin function to set the marketplace settings.\n     * Rules:\n     * - only owner\n     * - _address != address(0)\n     * @param _address address of the IMarketplaceSettings.\n     */\n    function setMarketplaceSettings(address _address) public onlyOwner {\n        require(\n            _address != address(0),\n            \"setMarketplaceSettings::Cannot have null address for _iMarketSettings\"\n        );\n\n        iMarketplaceSettings = IMarketplaceSettings(_address);\n    }\n\n    /////////////////////////////////////////////////////////////////////////\n    // setIERC721CreatorRoyalty\n    /////////////////////////////////////////////////////////////////////////\n    /**\n     * @dev Admin function to set the IERC721CreatorRoyalty.\n     * Rules:\n     * - only owner\n     * - _address != address(0)\n     * @param _address address of the IERC721CreatorRoyalty.\n     */\n    function setIERC721CreatorRoyalty(address _address) public onlyOwner {\n        require(\n            _address != address(0),\n            \"setIERC721CreatorRoyalty::Cannot have null address for _iERC721CreatorRoyalty\"\n        );\n\n        iERC721CreatorRoyalty = IERC721CreatorRoyalty(_address);\n    }\n\n    /////////////////////////////////////////////////////////////////////////\n    // setMinimumBidIncreasePercentage\n    /////////////////////////////////////////////////////////////////////////\n    /**\n     * @dev Admin function to set the minimum bid increase percentage.\n     * Rules:\n     * - only owner\n     * @param _percentage uint8 to set as the new percentage.\n     */\n    function setMinimumBidIncreasePercentage(uint8 _percentage)\n        public\n        onlyOwner\n    {\n        minimumBidIncreasePercentage = _percentage;\n    }\n\n    /////////////////////////////////////////////////////////////////////////\n    // Modifiers (as functions)\n    /////////////////////////////////////////////////////////////////////////\n    /**\n     * @dev Checks that the token owner is approved for the ERC721Market\n     * @param _originContract address of the contract storing the token.\n     * @param _tokenId uint256 ID of the token\n     */\n    function ownerMustHaveMarketplaceApproved(\n        address _originContract,\n        uint256 _tokenId\n    ) internal view {\n        IERC721 erc721 = IERC721(_originContract);\n        address owner = erc721.ownerOf(_tokenId);\n        require(\n            erc721.isApprovedForAll(owner, address(this)),\n            \"owner must have approved contract\"\n        );\n    }\n\n    /**\n     * @dev Checks that the token is owned by the sender\n     * @param _originContract address of the contract storing the token.\n     * @param _tokenId uint256 ID of the token\n     */\n    function senderMustBeTokenOwner(address _originContract, uint256 _tokenId)\n        internal\n        view\n    {\n        IERC721 erc721 = IERC721(_originContract);\n        require(\n            erc721.ownerOf(_tokenId) == msg.sender,\n            \"sender must be the token owner\"\n        );\n    }\n\n    /////////////////////////////////////////////////////////////////////////\n    // setSalePrice\n    /////////////////////////////////////////////////////////////////////////\n    /**\n     * @dev Set the token for sale. The owner of the token must be the sender and have the marketplace approved.\n     * @param _originContract address of the contract storing the token.\n     * @param _tokenId uint256 ID of the token\n     * @param _amount uint256 wei value that the item is for sale\n     */\n    function setSalePrice(\n        address _originContract,\n        uint256 _tokenId,\n        uint256 _amount\n    ) external {\n        // The owner of the token must have the marketplace approved\n        ownerMustHaveMarketplaceApproved(_originContract, _tokenId);\n\n        // The sender must be the token owner\n        senderMustBeTokenOwner(_originContract, _tokenId);\n\n        if (_amount == 0) {\n            // Set not for sale and exit\n            _resetTokenPrice(_originContract, _tokenId);\n            emit SetSalePrice(_originContract, _amount, _tokenId);\n            return;\n        }\n\n        tokenPrices[_originContract][_tokenId] = SalePrice(msg.sender, _amount);\n        emit SetSalePrice(_originContract, _amount, _tokenId);\n    }\n\n    /////////////////////////////////////////////////////////////////////////\n    // safeBuy\n    /////////////////////////////////////////////////////////////////////////\n    /**\n     * @dev Purchase the token with the expected amount. The current token owner must have the marketplace approved.\n     * @param _originContract address of the contract storing the token.\n     * @param _tokenId uint256 ID of the token\n     * @param _amount uint256 wei amount expecting to purchase the token for.\n     */\n    function safeBuy(\n        address _originContract,\n        uint256 _tokenId,\n        uint256 _amount\n    ) external payable {\n        // Make sure the tokenPrice is the expected amount\n        require(\n            tokenPrices[_originContract][_tokenId].amount == _amount,\n            \"safeBuy::Purchase amount must equal expected amount\"\n        );\n        buy(_originContract, _tokenId);\n    }\n\n    /////////////////////////////////////////////////////////////////////////\n    // buy\n    /////////////////////////////////////////////////////////////////////////\n    /**\n     * @dev Purchases the token if it is for sale.\n     * @param _originContract address of the contract storing the token.\n     * @param _tokenId uint256 ID of the token.\n     */\n    function buy(address _originContract, uint256 _tokenId) public payable {\n        // The owner of the token must have the marketplace approved\n        ownerMustHaveMarketplaceApproved(_originContract, _tokenId);\n\n        // Check that the person who set the price still owns the token.\n        require(\n            _priceSetterStillOwnsTheToken(_originContract, _tokenId),\n            \"buy::Current token owner must be the person to have the latest price.\"\n        );\n\n        SalePrice memory sp = tokenPrices[_originContract][_tokenId];\n\n        // Check that token is for sale.\n        require(sp.amount > 0, \"buy::Tokens priced at 0 are not for sale.\");\n\n        // Check that enough ether was sent.\n        require(\n            tokenPriceFeeIncluded(_originContract, _tokenId) == msg.value,\n            \"buy::Must purchase the token for the correct price\"\n        );\n\n        // Get token contract details.\n        IERC721 erc721 = IERC721(_originContract);\n        address tokenOwner = erc721.ownerOf(_tokenId);\n\n        // Wipe the token price.\n        _resetTokenPrice(_originContract, _tokenId);\n\n        // Transfer token.\n        erc721.safeTransferFrom(tokenOwner, msg.sender, _tokenId);\n\n        // if the buyer had an existing bid, return it\n        if (_addressHasBidOnToken(msg.sender, _originContract, _tokenId)) {\n            _refundBid(_originContract, _tokenId);\n        }\n\n        // Payout all parties.\n        address payable owner = _makePayable(owner());\n        Payments.payout(\n            sp.amount,\n            !iMarketplaceSettings.hasERC721TokenSold(_originContract, _tokenId),\n            iMarketplaceSettings.getMarketplaceFeePercentage(),\n            iERC721CreatorRoyalty.getERC721TokenRoyaltyPercentage(\n                _originContract,\n                _tokenId\n            ),\n            iMarketplaceSettings.getERC721ContractPrimarySaleFeePercentage(\n                _originContract\n            ),\n            _makePayable(tokenOwner),\n            owner,\n            iERC721CreatorRoyalty.tokenCreator(_originContract, _tokenId),\n            owner\n        );\n\n        // Set token as sold\n        iMarketplaceSettings.markERC721Token(_originContract, _tokenId, true);\n\n        emit Sold(_originContract, msg.sender, tokenOwner, sp.amount, _tokenId);\n    }\n\n    /////////////////////////////////////////////////////////////////////////\n    // tokenPrice\n    /////////////////////////////////////////////////////////////////////////\n    /**\n     * @dev Gets the sale price of the token\n     * @param _originContract address of the contract storing the token.\n     * @param _tokenId uint256 ID of the token\n     * @return uint256 sale price of the token\n     */\n    function tokenPrice(address _originContract, uint256 _tokenId)\n        external\n        view\n        returns (uint256)\n    {\n        // The owner of the token must have the marketplace approved\n        ownerMustHaveMarketplaceApproved(_originContract, _tokenId); // TODO: Make sure to write test to verify that this returns 0 when it fails\n\n        if (_priceSetterStillOwnsTheToken(_originContract, _tokenId)) {\n            return tokenPrices[_originContract][_tokenId].amount;\n        }\n        return 0;\n    }\n\n    /////////////////////////////////////////////////////////////////////////\n    // tokenPriceFeeIncluded\n    /////////////////////////////////////////////////////////////////////////\n    /**\n     * @dev Gets the sale price of the token including the marketplace fee.\n     * @param _originContract address of the contract storing the token.\n     * @param _tokenId uint256 ID of the token\n     * @return uint256 sale price of the token including the fee.\n     */\n    function tokenPriceFeeIncluded(address _originContract, uint256 _tokenId)\n        public\n        view\n        returns (uint256)\n    {\n        // The owner of the token must have the marketplace approved\n        ownerMustHaveMarketplaceApproved(_originContract, _tokenId); // TODO: Make sure to write test to verify that this returns 0 when it fails\n\n        if (_priceSetterStillOwnsTheToken(_originContract, _tokenId)) {\n            return\n                tokenPrices[_originContract][_tokenId].amount.add(\n                    iMarketplaceSettings.calculateMarketplaceFee(\n                        tokenPrices[_originContract][_tokenId].amount\n                    )\n                );\n        }\n        return 0;\n    }\n\n    /////////////////////////////////////////////////////////////////////////\n    // bid\n    /////////////////////////////////////////////////////////////////////////\n    /**\n     * @dev Bids on the token, replacing the bid if the bid is higher than the current bid. You cannot bid on a token you already own.\n     * @param _newBidAmount uint256 value in wei to bid.\n     * @param _originContract address of the contract storing the token.\n     * @param _tokenId uint256 ID of the token\n     */\n    function bid(\n        uint256 _newBidAmount,\n        address _originContract,\n        uint256 _tokenId\n    ) external payable {\n        // Check that bid is greater than 0.\n        require(_newBidAmount > 0, \"bid::Cannot bid 0 Wei.\");\n\n        // Check that bid is higher than previous bid\n        uint256 currentBidAmount =\n            tokenCurrentBids[_originContract][_tokenId].amount;\n        require(\n            _newBidAmount > currentBidAmount &&\n                _newBidAmount >=\n                currentBidAmount.add(\n                    currentBidAmount.mul(minimumBidIncreasePercentage).div(100)\n                ),\n            \"bid::Must place higher bid than existing bid + minimum percentage.\"\n        );\n\n        // Check that enough ether was sent.\n        uint256 requiredCost =\n            _newBidAmount.add(\n                iMarketplaceSettings.calculateMarketplaceFee(_newBidAmount)\n            );\n        require(\n            requiredCost == msg.value,\n            \"bid::Must purchase the token for the correct price.\"\n        );\n\n        // Check that bidder is not owner.\n        IERC721 erc721 = IERC721(_originContract);\n        address tokenOwner = erc721.ownerOf(_tokenId);\n        require(tokenOwner != msg.sender, \"bid::Bidder cannot be owner.\");\n\n        // Refund previous bidder.\n        _refundBid(_originContract, _tokenId);\n\n        // Set the new bid.\n        _setBid(_newBidAmount, msg.sender, _originContract, _tokenId);\n\n        emit Bid(_originContract, msg.sender, _newBidAmount, _tokenId);\n    }\n\n    /////////////////////////////////////////////////////////////////////////\n    // safeAcceptBid\n    /////////////////////////////////////////////////////////////////////////\n    /**\n     * @dev Accept the bid on the token with the expected bid amount.\n     * @param _originContract address of the contract storing the token.\n     * @param _tokenId uint256 ID of the token\n     * @param _amount uint256 wei amount of the bid\n     */\n    function safeAcceptBid(\n        address _originContract,\n        uint256 _tokenId,\n        uint256 _amount\n    ) external {\n        // Make sure accepting bid is the expected amount\n        require(\n            tokenCurrentBids[_originContract][_tokenId].amount == _amount,\n            \"safeAcceptBid::Bid amount must equal expected amount\"\n        );\n        acceptBid(_originContract, _tokenId);\n    }\n\n    /////////////////////////////////////////////////////////////////////////\n    // acceptBid\n    /////////////////////////////////////////////////////////////////////////\n    /**\n     * @dev Accept the bid on the token.\n     * @param _originContract address of the contract storing the token.\n     * @param _tokenId uint256 ID of the token\n     */\n    function acceptBid(address _originContract, uint256 _tokenId) public {\n        // The owner of the token must have the marketplace approved\n        ownerMustHaveMarketplaceApproved(_originContract, _tokenId);\n\n        // The sender must be the token owner\n        senderMustBeTokenOwner(_originContract, _tokenId);\n\n        // Check that a bid exists.\n        require(\n            _tokenHasBid(_originContract, _tokenId),\n            \"acceptBid::Cannot accept a bid when there is none.\"\n        );\n\n        // Get current bid on token\n\n        ActiveBid memory currentBid =\n            tokenCurrentBids[_originContract][_tokenId];\n\n        // Wipe the token price and bid.\n        _resetTokenPrice(_originContract, _tokenId);\n        _resetBid(_originContract, _tokenId);\n\n        // Transfer token.\n        IERC721 erc721 = IERC721(_originContract);\n        erc721.safeTransferFrom(msg.sender, currentBid.bidder, _tokenId);\n\n        // Payout all parties.\n        address payable owner = _makePayable(owner());\n        Payments.payout(\n            currentBid.amount,\n            !iMarketplaceSettings.hasERC721TokenSold(_originContract, _tokenId),\n            iMarketplaceSettings.getMarketplaceFeePercentage(),\n            iERC721CreatorRoyalty.getERC721TokenRoyaltyPercentage(\n                _originContract,\n                _tokenId\n            ),\n            iMarketplaceSettings.getERC721ContractPrimarySaleFeePercentage(\n                _originContract\n            ),\n            msg.sender,\n            owner,\n            iERC721CreatorRoyalty.tokenCreator(_originContract, _tokenId),\n            owner\n        );\n\n        iMarketplaceSettings.markERC721Token(_originContract, _tokenId, true);\n\n        emit AcceptBid(\n            _originContract,\n            currentBid.bidder,\n            msg.sender,\n            currentBid.amount,\n            _tokenId\n        );\n    }\n\n    /////////////////////////////////////////////////////////////////////////\n    // cancelBid\n    /////////////////////////////////////////////////////////////////////////\n    /**\n     * @dev Cancel the bid on the token.\n     * @param _originContract address of the contract storing the token.\n     * @param _tokenId uint256 ID of the token.\n     */\n    function cancelBid(address _originContract, uint256 _tokenId) external {\n        // Check that sender has a current bid.\n        require(\n            _addressHasBidOnToken(msg.sender, _originContract, _tokenId),\n            \"cancelBid::Cannot cancel a bid if sender hasn't made one.\"\n        );\n\n        // Refund the bidder.\n        _refundBid(_originContract, _tokenId);\n\n        emit CancelBid(\n            _originContract,\n            msg.sender,\n            tokenCurrentBids[_originContract][_tokenId].amount,\n            _tokenId\n        );\n    }\n\n    /////////////////////////////////////////////////////////////////////////\n    // currentBidDetailsOfToken\n    /////////////////////////////////////////////////////////////////////////\n    /**\n     * @dev Function to get current bid and bidder of a token.\n     * @param _originContract address of ERC721 contract.\n     * @param _tokenId uin256 id of the token.\n     */\n    function currentBidDetailsOfToken(address _originContract, uint256 _tokenId)\n        public\n        view\n        returns (uint256, address)\n    {\n        return (\n            tokenCurrentBids[_originContract][_tokenId].amount,\n            tokenCurrentBids[_originContract][_tokenId].bidder\n        );\n    }\n\n    /////////////////////////////////////////////////////////////////////////\n    // _priceSetterStillOwnsTheToken\n    /////////////////////////////////////////////////////////////////////////\n    /**\n     * @dev Checks that the token is owned by the same person who set the sale price.\n     * @param _originContract address of the contract storing the token.\n     * @param _tokenId uint256 id of the.\n     */\n    function _priceSetterStillOwnsTheToken(\n        address _originContract,\n        uint256 _tokenId\n    ) internal view returns (bool) {\n        IERC721 erc721 = IERC721(_originContract);\n        return\n            erc721.ownerOf(_tokenId) ==\n            tokenPrices[_originContract][_tokenId].seller;\n    }\n\n    /////////////////////////////////////////////////////////////////////////\n    // _resetTokenPrice\n    /////////////////////////////////////////////////////////////////////////\n    /**\n     * @dev Internal function to set token price to 0 for a given contract.\n     * @param _originContract address of ERC721 contract.\n     * @param _tokenId uin256 id of the token.\n     */\n    function _resetTokenPrice(address _originContract, uint256 _tokenId)\n        internal\n    {\n        tokenPrices[_originContract][_tokenId] = SalePrice(address(0), 0);\n    }\n\n    /////////////////////////////////////////////////////////////////////////\n    // _addressHasBidOnToken\n    /////////////////////////////////////////////////////////////////////////\n    /**\n     * @dev Internal function see if the given address has an existing bid on a token.\n     * @param _bidder address that may have a current bid.\n     * @param _originContract address of ERC721 contract.\n     * @param _tokenId uin256 id of the token.\n     */\n    function _addressHasBidOnToken(\n        address _bidder,\n        address _originContract,\n        uint256 _tokenId\n    ) internal view returns (bool) {\n        return tokenCurrentBids[_originContract][_tokenId].bidder == _bidder;\n    }\n\n    /////////////////////////////////////////////////////////////////////////\n    // _tokenHasBid\n    /////////////////////////////////////////////////////////////////////////\n    /**\n     * @dev Internal function see if the token has an existing bid.\n     * @param _originContract address of ERC721 contract.\n     * @param _tokenId uin256 id of the token.\n     */\n    function _tokenHasBid(address _originContract, uint256 _tokenId)\n        internal\n        view\n        returns (bool)\n    {\n        return tokenCurrentBids[_originContract][_tokenId].bidder != address(0);\n    }\n\n    /////////////////////////////////////////////////////////////////////////\n    // _refundBid\n    /////////////////////////////////////////////////////////////////////////\n    /**\n     * @dev Internal function to return an existing bid on a token to the\n     *      bidder and reset bid.\n     * @param _originContract address of ERC721 contract.\n     * @param _tokenId uin256 id of the token.\n     */\n    function _refundBid(address _originContract, uint256 _tokenId) internal {\n        ActiveBid memory currentBid =\n            tokenCurrentBids[_originContract][_tokenId];\n        if (currentBid.bidder == address(0)) {\n            return;\n        }\n        _resetBid(_originContract, _tokenId);\n        Payments.refund(\n            currentBid.marketplaceFee,\n            currentBid.bidder,\n            currentBid.amount\n        );\n    }\n\n    /////////////////////////////////////////////////////////////////////////\n    // _resetBid\n    /////////////////////////////////////////////////////////////////////////\n    /**\n     * @dev Internal function to reset bid by setting bidder and bid to 0.\n     * @param _originContract address of ERC721 contract.\n     * @param _tokenId uin256 id of the token.\n     */\n    function _resetBid(address _originContract, uint256 _tokenId) internal {\n        tokenCurrentBids[_originContract][_tokenId] = ActiveBid(\n            address(0),\n            0,\n            0\n        );\n    }\n\n    /////////////////////////////////////////////////////////////////////////\n    // _setBid\n    /////////////////////////////////////////////////////////////////////////\n    /**\n     * @dev Internal function to set a bid.\n     * @param _amount uint256 value in wei to bid. Does not include marketplace fee.\n     * @param _bidder address of the bidder.\n     * @param _originContract address of ERC721 contract.\n     * @param _tokenId uin256 id of the token.\n     */\n    function _setBid(\n        uint256 _amount,\n        address payable _bidder,\n        address _originContract,\n        uint256 _tokenId\n    ) internal {\n        // Check bidder not 0 address.\n        require(_bidder != address(0), \"Bidder cannot be 0 address.\");\n\n        // Set bid.\n        tokenCurrentBids[_originContract][_tokenId] = ActiveBid(\n            _bidder,\n            iMarketplaceSettings.getMarketplaceFeePercentage(),\n            _amount\n        );\n    }\n\n    /////////////////////////////////////////////////////////////////////////\n    // _makePayable\n    /////////////////////////////////////////////////////////////////////////\n    /**\n     * @dev Internal function to set a bid.\n     * @param _address non-payable address\n     * @return payable address\n     */\n    function _makePayable(address _address)\n        internal\n        pure\n        returns (address payable)\n    {\n        return address(uint160(_address));\n    }\n}\n",
  "sourcePath": "/Users/ismailcanvardar/Documents/freelance-works/intangible-contracts/contracts/IntangibleMarketAuctionV2.sol",
  "compiler": {
    "name": "solc",
    "version": "0.6.12+commit.27d51765.Emscripten.clang"
  },
  "schemaVersion": "3.3.3",
  "updatedAt": "2021-03-20T12:34:07.755Z",
  "devdoc": {
    "kind": "dev",
    "methods": {
      "acceptBid(address,uint256)": {
        "details": "Accept the bid on the token.",
        "params": {
          "_originContract": "address of the contract storing the token.",
          "_tokenId": "uint256 ID of the token"
        }
      },
      "bid(uint256,address,uint256)": {
        "details": "Bids on the token, replacing the bid if the bid is higher than the current bid. You cannot bid on a token you already own.",
        "params": {
          "_newBidAmount": "uint256 value in wei to bid.",
          "_originContract": "address of the contract storing the token.",
          "_tokenId": "uint256 ID of the token"
        }
      },
      "buy(address,uint256)": {
        "details": "Purchases the token if it is for sale.",
        "params": {
          "_originContract": "address of the contract storing the token.",
          "_tokenId": "uint256 ID of the token."
        }
      },
      "cancelBid(address,uint256)": {
        "details": "Cancel the bid on the token.",
        "params": {
          "_originContract": "address of the contract storing the token.",
          "_tokenId": "uint256 ID of the token."
        }
      },
      "constructor": {
        "details": "Initializes the contract setting the market settings and creator royalty interfaces.",
        "params": {
          "_iERC721CreatorRoyalty": "address to set as iERC721CreatorRoyalty.",
          "_iMarketSettings": "address to set as iMarketplaceSettings."
        }
      },
      "currentBidDetailsOfToken(address,uint256)": {
        "details": "Function to get current bid and bidder of a token.",
        "params": {
          "_originContract": "address of ERC721 contract.",
          "_tokenId": "uin256 id of the token."
        }
      },
      "owner()": {
        "details": "Returns the address of the current owner."
      },
      "payments(address)": {
        "details": "Returns the payments owed to an address.",
        "params": {
          "dest": "The creditor's address."
        }
      },
      "renounceOwnership()": {
        "details": "Leaves the contract without owner. It will not be possible to call `onlyOwner` functions anymore. Can only be called by the current owner. NOTE: Renouncing ownership will leave the contract without an owner, thereby removing any functionality that is only available to the owner."
      },
      "safeAcceptBid(address,uint256,uint256)": {
        "details": "Accept the bid on the token with the expected bid amount.",
        "params": {
          "_amount": "uint256 wei amount of the bid",
          "_originContract": "address of the contract storing the token.",
          "_tokenId": "uint256 ID of the token"
        }
      },
      "safeBuy(address,uint256,uint256)": {
        "details": "Purchase the token with the expected amount. The current token owner must have the marketplace approved.",
        "params": {
          "_amount": "uint256 wei amount expecting to purchase the token for.",
          "_originContract": "address of the contract storing the token.",
          "_tokenId": "uint256 ID of the token"
        }
      },
      "setIERC721CreatorRoyalty(address)": {
        "details": "Admin function to set the IERC721CreatorRoyalty. Rules: - only owner - _address != address(0)",
        "params": {
          "_address": "address of the IERC721CreatorRoyalty."
        }
      },
      "setMarketplaceSettings(address)": {
        "details": "Admin function to set the marketplace settings. Rules: - only owner - _address != address(0)",
        "params": {
          "_address": "address of the IMarketplaceSettings."
        }
      },
      "setMinimumBidIncreasePercentage(uint8)": {
        "details": "Admin function to set the minimum bid increase percentage. Rules: - only owner",
        "params": {
          "_percentage": "uint8 to set as the new percentage."
        }
      },
      "setSalePrice(address,uint256,uint256)": {
        "details": "Set the token for sale. The owner of the token must be the sender and have the marketplace approved.",
        "params": {
          "_amount": "uint256 wei value that the item is for sale",
          "_originContract": "address of the contract storing the token.",
          "_tokenId": "uint256 ID of the token"
        }
      },
      "tokenPrice(address,uint256)": {
        "details": "Gets the sale price of the token",
        "params": {
          "_originContract": "address of the contract storing the token.",
          "_tokenId": "uint256 ID of the token"
        },
        "returns": {
          "_0": "uint256 sale price of the token"
        }
      },
      "tokenPriceFeeIncluded(address,uint256)": {
        "details": "Gets the sale price of the token including the marketplace fee.",
        "params": {
          "_originContract": "address of the contract storing the token.",
          "_tokenId": "uint256 ID of the token"
        },
        "returns": {
          "_0": "uint256 sale price of the token including the fee."
        }
      },
      "transferOwnership(address)": {
        "details": "Transfers ownership of the contract to a new account (`newOwner`). Can only be called by the current owner."
      },
      "withdrawPayments(address)": {
        "details": "Withdraw accumulated payments, forwarding all gas to the recipient. Note that _any_ account can call this function, not just the `payee`. This means that contracts unaware of the `PullPayment` protocol can still receive funds this way, by having a separate account call {withdrawPayments}. WARNING: Forwarding all gas opens the door to reentrancy vulnerabilities. Make sure you trust the recipient, or are either following the checks-effects-interactions pattern or using {ReentrancyGuard}.",
        "params": {
          "payee": "Whose payments will be withdrawn."
        }
      }
    },
    "version": 1
  },
  "userdoc": {
    "kind": "user",
    "methods": {},
    "version": 1
  }
}