{
  "contractName": "MarketplaceSettings",
  "abi": [
    {
      "inputs": [],
      "stateMutability": "nonpayable",
      "type": "constructor"
    },
    {
      "anonymous": false,
      "inputs": [
        {
          "indexed": true,
          "internalType": "address",
          "name": "previousOwner",
          "type": "address"
        },
        {
          "indexed": true,
          "internalType": "address",
          "name": "newOwner",
          "type": "address"
        }
      ],
      "name": "OwnershipTransferred",
      "type": "event"
    },
    {
      "anonymous": false,
      "inputs": [
        {
          "indexed": true,
          "internalType": "bytes32",
          "name": "role",
          "type": "bytes32"
        },
        {
          "indexed": true,
          "internalType": "bytes32",
          "name": "previousAdminRole",
          "type": "bytes32"
        },
        {
          "indexed": true,
          "internalType": "bytes32",
          "name": "newAdminRole",
          "type": "bytes32"
        }
      ],
      "name": "RoleAdminChanged",
      "type": "event"
    },
    {
      "anonymous": false,
      "inputs": [
        {
          "indexed": true,
          "internalType": "bytes32",
          "name": "role",
          "type": "bytes32"
        },
        {
          "indexed": true,
          "internalType": "address",
          "name": "account",
          "type": "address"
        },
        {
          "indexed": true,
          "internalType": "address",
          "name": "sender",
          "type": "address"
        }
      ],
      "name": "RoleGranted",
      "type": "event"
    },
    {
      "anonymous": false,
      "inputs": [
        {
          "indexed": true,
          "internalType": "bytes32",
          "name": "role",
          "type": "bytes32"
        },
        {
          "indexed": true,
          "internalType": "address",
          "name": "account",
          "type": "address"
        },
        {
          "indexed": true,
          "internalType": "address",
          "name": "sender",
          "type": "address"
        }
      ],
      "name": "RoleRevoked",
      "type": "event"
    },
    {
      "inputs": [],
      "name": "DEFAULT_ADMIN_ROLE",
      "outputs": [
        {
          "internalType": "bytes32",
          "name": "",
          "type": "bytes32"
        }
      ],
      "stateMutability": "view",
      "type": "function"
    },
    {
      "inputs": [],
      "name": "TOKEN_MARK_ROLE",
      "outputs": [
        {
          "internalType": "bytes32",
          "name": "",
          "type": "bytes32"
        }
      ],
      "stateMutability": "view",
      "type": "function"
    },
    {
      "inputs": [
        {
          "internalType": "bytes32",
          "name": "role",
          "type": "bytes32"
        }
      ],
      "name": "getRoleAdmin",
      "outputs": [
        {
          "internalType": "bytes32",
          "name": "",
          "type": "bytes32"
        }
      ],
      "stateMutability": "view",
      "type": "function"
    },
    {
      "inputs": [
        {
          "internalType": "bytes32",
          "name": "role",
          "type": "bytes32"
        },
        {
          "internalType": "uint256",
          "name": "index",
          "type": "uint256"
        }
      ],
      "name": "getRoleMember",
      "outputs": [
        {
          "internalType": "address",
          "name": "",
          "type": "address"
        }
      ],
      "stateMutability": "view",
      "type": "function"
    },
    {
      "inputs": [
        {
          "internalType": "bytes32",
          "name": "role",
          "type": "bytes32"
        }
      ],
      "name": "getRoleMemberCount",
      "outputs": [
        {
          "internalType": "uint256",
          "name": "",
          "type": "uint256"
        }
      ],
      "stateMutability": "view",
      "type": "function"
    },
    {
      "inputs": [
        {
          "internalType": "bytes32",
          "name": "role",
          "type": "bytes32"
        },
        {
          "internalType": "address",
          "name": "account",
          "type": "address"
        }
      ],
      "name": "grantRole",
      "outputs": [],
      "stateMutability": "nonpayable",
      "type": "function"
    },
    {
      "inputs": [
        {
          "internalType": "bytes32",
          "name": "role",
          "type": "bytes32"
        },
        {
          "internalType": "address",
          "name": "account",
          "type": "address"
        }
      ],
      "name": "hasRole",
      "outputs": [
        {
          "internalType": "bool",
          "name": "",
          "type": "bool"
        }
      ],
      "stateMutability": "view",
      "type": "function"
    },
    {
      "inputs": [],
      "name": "owner",
      "outputs": [
        {
          "internalType": "address",
          "name": "",
          "type": "address"
        }
      ],
      "stateMutability": "view",
      "type": "function"
    },
    {
      "inputs": [],
      "name": "renounceOwnership",
      "outputs": [],
      "stateMutability": "nonpayable",
      "type": "function"
    },
    {
      "inputs": [
        {
          "internalType": "bytes32",
          "name": "role",
          "type": "bytes32"
        },
        {
          "internalType": "address",
          "name": "account",
          "type": "address"
        }
      ],
      "name": "renounceRole",
      "outputs": [],
      "stateMutability": "nonpayable",
      "type": "function"
    },
    {
      "inputs": [
        {
          "internalType": "bytes32",
          "name": "role",
          "type": "bytes32"
        },
        {
          "internalType": "address",
          "name": "account",
          "type": "address"
        }
      ],
      "name": "revokeRole",
      "outputs": [],
      "stateMutability": "nonpayable",
      "type": "function"
    },
    {
      "inputs": [
        {
          "internalType": "address",
          "name": "newOwner",
          "type": "address"
        }
      ],
      "name": "transferOwnership",
      "outputs": [],
      "stateMutability": "nonpayable",
      "type": "function"
    },
    {
      "inputs": [
        {
          "internalType": "address",
          "name": "_account",
          "type": "address"
        }
      ],
      "name": "grantMarketplaceAccess",
      "outputs": [],
      "stateMutability": "nonpayable",
      "type": "function"
    },
    {
      "inputs": [],
      "name": "getMarketplaceMaxValue",
      "outputs": [
        {
          "internalType": "uint256",
          "name": "",
          "type": "uint256"
        }
      ],
      "stateMutability": "view",
      "type": "function"
    },
    {
      "inputs": [
        {
          "internalType": "uint256",
          "name": "_maxValue",
          "type": "uint256"
        }
      ],
      "name": "setMarketplaceMaxValue",
      "outputs": [],
      "stateMutability": "nonpayable",
      "type": "function"
    },
    {
      "inputs": [],
      "name": "getMarketplaceMinValue",
      "outputs": [
        {
          "internalType": "uint256",
          "name": "",
          "type": "uint256"
        }
      ],
      "stateMutability": "view",
      "type": "function"
    },
    {
      "inputs": [
        {
          "internalType": "uint256",
          "name": "_minValue",
          "type": "uint256"
        }
      ],
      "name": "setMarketplaceMinValue",
      "outputs": [],
      "stateMutability": "nonpayable",
      "type": "function"
    },
    {
      "inputs": [],
      "name": "getMarketplaceFeePercentage",
      "outputs": [
        {
          "internalType": "uint8",
          "name": "",
          "type": "uint8"
        }
      ],
      "stateMutability": "view",
      "type": "function"
    },
    {
      "inputs": [
        {
          "internalType": "uint8",
          "name": "_percentage",
          "type": "uint8"
        }
      ],
      "name": "setMarketplaceFeePercentage",
      "outputs": [],
      "stateMutability": "nonpayable",
      "type": "function"
    },
    {
      "inputs": [
        {
          "internalType": "uint256",
          "name": "_amount",
          "type": "uint256"
        }
      ],
      "name": "calculateMarketplaceFee",
      "outputs": [
        {
          "internalType": "uint256",
          "name": "",
          "type": "uint256"
        }
      ],
      "stateMutability": "view",
      "type": "function"
    },
    {
      "inputs": [
        {
          "internalType": "address",
          "name": "_contractAddress",
          "type": "address"
        }
      ],
      "name": "getERC721ContractPrimarySaleFeePercentage",
      "outputs": [
        {
          "internalType": "uint8",
          "name": "",
          "type": "uint8"
        }
      ],
      "stateMutability": "view",
      "type": "function"
    },
    {
      "inputs": [
        {
          "internalType": "address",
          "name": "_contractAddress",
          "type": "address"
        },
        {
          "internalType": "uint8",
          "name": "_percentage",
          "type": "uint8"
        }
      ],
      "name": "setERC721ContractPrimarySaleFeePercentage",
      "outputs": [],
      "stateMutability": "nonpayable",
      "type": "function"
    },
    {
      "inputs": [
        {
          "internalType": "address",
          "name": "_contractAddress",
          "type": "address"
        },
        {
          "internalType": "uint256",
          "name": "_amount",
          "type": "uint256"
        }
      ],
      "name": "calculatePrimarySaleFee",
      "outputs": [
        {
          "internalType": "uint256",
          "name": "",
          "type": "uint256"
        }
      ],
      "stateMutability": "view",
      "type": "function"
    },
    {
      "inputs": [
        {
          "internalType": "address",
          "name": "_contractAddress",
          "type": "address"
        },
        {
          "internalType": "uint256",
          "name": "_tokenId",
          "type": "uint256"
        }
      ],
      "name": "hasERC721TokenSold",
      "outputs": [
        {
          "internalType": "bool",
          "name": "",
          "type": "bool"
        }
      ],
      "stateMutability": "view",
      "type": "function"
    },
    {
      "inputs": [
        {
          "internalType": "address",
          "name": "_contractAddress",
          "type": "address"
        },
        {
          "internalType": "uint256",
          "name": "_tokenId",
          "type": "uint256"
        },
        {
          "internalType": "bool",
          "name": "_hasSold",
          "type": "bool"
        }
      ],
      "name": "markERC721Token",
      "outputs": [],
      "stateMutability": "nonpayable",
      "type": "function"
    },
    {
      "inputs": [
        {
          "internalType": "address",
          "name": "_originContract",
          "type": "address"
        },
        {
          "internalType": "uint256[]",
          "name": "_tokenIds",
          "type": "uint256[]"
        }
      ],
      "name": "markTokensAsSold",
      "outputs": [],
      "stateMutability": "nonpayable",
      "type": "function"
    }
  ],
  "bytecode": "0x60806040523480156200001157600080fd5b5060006200002d620001a7640100000000026401000000009004565b9050806000806101000a81548173ffffffffffffffffffffffffffffffffffffffff021916908373ffffffffffffffffffffffffffffffffffffffff1602179055508073ffffffffffffffffffffffffffffffffffffffff16600073ffffffffffffffffffffffffffffffffffffffff167f8be0079c531659141344cd1fd0a4f28419497f9722a3daafe3b4186f6b6457e060405160405180910390a3507f40000000000000000000000000000000000000000000000000000000000000006002819055506103e86003819055506003600460006101000a81548160ff021916908360ff1602179055506200014e600060010262000139620001af640100000000026401000000009004565b620001d8640100000000026401000000009004565b620001a17f544f4b454e5f4d41524b5f524f4c4500000000000000000000000000000000006200018c620001af640100000000026401000000009004565b620001f7640100000000026401000000009004565b620004d6565b600033905090565b60008060009054906101000a900473ffffffffffffffffffffffffffffffffffffffff16905090565b620001f38282620002b6640100000000026401000000009004565b5050565b6200024060016000848152602001908152602001600020600201546200022b620001a7640100000000026401000000009004565b6200036c640100000000026401000000009004565b62000297576040517f08c379a000000000000000000000000000000000000000000000000000000000815260040180806020018281038252602f81526020018062002375602f913960400191505060405180910390fd5b620002b28282620002b6640100000000026401000000009004565b5050565b620002ee8160016000858152602001908152602001600020600001620003ae6401000000000262001725179091906401000000009004565b1562000368576200030d620001a7640100000000026401000000009004565b73ffffffffffffffffffffffffffffffffffffffff168173ffffffffffffffffffffffffffffffffffffffff16837f2f8788117e7eff1d82e926ec794901d17c78024a50270940304540a733656f0d60405160405180910390a45b5050565b6000620003a68260016000868152602001908152602001600020600001620003ef6401000000000262001755179091906401000000009004565b905092915050565b6000620003e7836000018373ffffffffffffffffffffffffffffffffffffffff1660010262000430640100000000026401000000009004565b905092915050565b600062000428836000018373ffffffffffffffffffffffffffffffffffffffff16600102620004b3640100000000026401000000009004565b905092915050565b60006200044d8383620004b3640100000000026401000000009004565b620004a8578260000182908060018154018082558091505060019003906000526020600020016000909190919091505582600001805490508360010160008481526020019081526020016000208190555060019050620004ad565b600090505b92915050565b600080836001016000848152602001908152602001600020541415905092915050565b611e8f80620004e66000396000f3fe608060405234801561001057600080fd5b50600436106101ab576000357c01000000000000000000000000000000000000000000000000000000009004806383475921116100fb578063b28a7bad116100b4578063ca15c8731161008e578063ca15c87314610785578063d547741f146107c7578063f2fde38b14610815578063f9a23e8614610859576101ab565b8063b28a7bad146106b7578063b60c813514610712578063c3fc495214610743576101ab565b8063834759211461052d5780638da5cb5b1461054e5780639010d07c1461058257806391d14854146105e4578063a217fddf14610648578063ae312a9714610666576101ab565b8063511bc84c1161016857806362029a1b1161014257806362029a1b1461044f5780636357f1ac1461047d578063715018a6146104df57806382ebaa59146104e9576101ab565b8063511bc84c146103735780635a3c652d146103d75780635c1b40f114610431576101ab565b8063248a9ca3146101b05780632b702b5f146101f25780632cfda2f11461028b5780632f2ff15d146102b957806336568abe146103075780633765628c14610355575b600080fd5b6101dc600480360360208110156101c657600080fd5b8101908080359060200190929190505050610877565b6040518082815260200191505060405180910390f35b6102896004803603604081101561020857600080fd5b81019080803573ffffffffffffffffffffffffffffffffffffffff1690602001909291908035906020019064010000000081111561024557600080fd5b82018360208201111561025757600080fd5b8035906020019184602083028401116401000000008311171561027957600080fd5b9091929391929390505050610897565b005b6102b7600480360360208110156102a157600080fd5b8101908080359060200190929190505050610a10565b005b610305600480360360408110156102cf57600080fd5b8101908080359060200190929190803573ffffffffffffffffffffffffffffffffffffffff169060200190929190505050610ac9565b005b6103536004803603604081101561031d57600080fd5b8101908080359060200190929190803573ffffffffffffffffffffffffffffffffffffffff169060200190929190505050610b53565b005b61035d610bec565b6040518082815260200191505060405180910390f35b6103bf6004803603604081101561038957600080fd5b81019080803573ffffffffffffffffffffffffffffffffffffffff16906020019092919080359060200190929190505050610c10565b60405180821515815260200191505060405180910390f35b61042f600480360360608110156103ed57600080fd5b81019080803573ffffffffffffffffffffffffffffffffffffffff16906020019092919080359060200190929190803515159060200190929190505050610c78565b005b610439610d64565b6040518082815260200191505060405180910390f35b61047b6004803603602081101561046557600080fd5b8101908080359060200190929190505050610d6e565b005b6104c96004803603604081101561049357600080fd5b81019080803573ffffffffffffffffffffffffffffffffffffffff16906020019092919080359060200190929190505050610e27565b6040518082815260200191505060405180910390f35b6104e7610ea6565b005b61052b600480360360208110156104ff57600080fd5b81019080803573ffffffffffffffffffffffffffffffffffffffff169060200190929190505050611013565b005b6105356110a3565b604051808260ff16815260200191505060405180910390f35b6105566110ba565b604051808273ffffffffffffffffffffffffffffffffffffffff16815260200191505060405180910390f35b6105b86004803603604081101561059857600080fd5b8101908080359060200190929190803590602001909291905050506110e3565b604051808273ffffffffffffffffffffffffffffffffffffffff16815260200191505060405180910390f35b610630600480360360408110156105fa57600080fd5b8101908080359060200190929190803573ffffffffffffffffffffffffffffffffffffffff169060200190929190505050611115565b60405180821515815260200191505060405180910390f35b610650611147565b6040518082815260200191505060405180910390f35b6106b56004803603604081101561067c57600080fd5b81019080803573ffffffffffffffffffffffffffffffffffffffff169060200190929190803560ff16906020019092919050505061114f565b005b6106f9600480360360208110156106cd57600080fd5b81019080803573ffffffffffffffffffffffffffffffffffffffff1690602001909291905050506112b7565b604051808260ff16815260200191505060405180910390f35b6107416004803603602081101561072857600080fd5b81019080803560ff16906020019092919050505061130d565b005b61076f6004803603602081101561075957600080fd5b8101908080359060200190929190505050611437565b6040518082815260200191505060405180910390f35b6107b16004803603602081101561079b57600080fd5b8101908080359060200190929190505050611478565b6040518082815260200191505060405180910390f35b610813600480360360408110156107dd57600080fd5b8101908080359060200190929190803573ffffffffffffffffffffffffffffffffffffffff16906020019092919050505061149f565b005b6108576004803603602081101561082b57600080fd5b81019080803573ffffffffffffffffffffffffffffffffffffffff169060200190929190505050611529565b005b61086161171b565b6040518082815260200191505060405180910390f35b600060016000838152602001908152602001600020600201549050919050565b6108c17f544f4b454e5f4d41524b5f524f4c45000000000000000000000000000000000033611115565b610916576040517f08c379a000000000000000000000000000000000000000000000000000000000815260040180806020018281038252603e815260200180611ded603e913960400191505060405180910390fd5b6107d0828290501115610974576040517f08c379a0000000000000000000000000000000000000000000000000000000008152600401808060200182810382526041815260200180611dac6041913960600191505060405180910390fd5b60005b82829050811015610a0a576001600660008673ffffffffffffffffffffffffffffffffffffffff1673ffffffffffffffffffffffffffffffffffffffff16815260200190815260200160002060008585858181106109d157fe5b90506020020135815260200190815260200160002060006101000a81548160ff0219169083151502179055508080600101915050610977565b50505050565b610a18611785565b73ffffffffffffffffffffffffffffffffffffffff16610a366110ba565b73ffffffffffffffffffffffffffffffffffffffff1614610abf576040517f08c379a00000000000000000000000000000000000000000000000000000000081526004018080602001828103825260208152602001807f4f776e61626c653a2063616c6c6572206973206e6f7420746865206f776e657281525060200191505060405180910390fd5b8060028190555050565b610af06001600084815260200190815260200160002060020154610aeb611785565b611115565b610b45576040517f08c379a000000000000000000000000000000000000000000000000000000000815260040180806020018281038252602f815260200180611c56602f913960400191505060405180910390fd5b610b4f828261178d565b5050565b610b5b611785565b73ffffffffffffffffffffffffffffffffffffffff168173ffffffffffffffffffffffffffffffffffffffff1614610bde576040517f08c379a000000000000000000000000000000000000000000000000000000000815260040180806020018281038252602f815260200180611e2b602f913960400191505060405180910390fd5b610be88282611821565b5050565b7f544f4b454e5f4d41524b5f524f4c45000000000000000000000000000000000081565b6000600660008473ffffffffffffffffffffffffffffffffffffffff1673ffffffffffffffffffffffffffffffffffffffff168152602001908152602001600020600083815260200190815260200160002060009054906101000a900460ff16905092915050565b610ca27f544f4b454e5f4d41524b5f524f4c45000000000000000000000000000000000033611115565b610cf7576040517f08c379a000000000000000000000000000000000000000000000000000000000815260040180806020018281038252603e815260200180611ded603e913960400191505060405180910390fd5b80600660008573ffffffffffffffffffffffffffffffffffffffff1673ffffffffffffffffffffffffffffffffffffffff168152602001908152602001600020600084815260200190815260200160002060006101000a81548160ff021916908315150217905550505050565b6000600354905090565b610d76611785565b73ffffffffffffffffffffffffffffffffffffffff16610d946110ba565b73ffffffffffffffffffffffffffffffffffffffff1614610e1d576040517f08c379a00000000000000000000000000000000000000000000000000000000081526004018080602001828103825260208152602001807f4f776e61626c653a2063616c6c6572206973206e6f7420746865206f776e657281525060200191505060405180910390fd5b8060038190555050565b6000610e9e6064610e90600560008773ffffffffffffffffffffffffffffffffffffffff1673ffffffffffffffffffffffffffffffffffffffff16815260200190815260200160002060009054906101000a900460ff1660ff16856118b590919063ffffffff16565b61193b90919063ffffffff16565b905092915050565b610eae611785565b73ffffffffffffffffffffffffffffffffffffffff16610ecc6110ba565b73ffffffffffffffffffffffffffffffffffffffff1614610f55576040517f08c379a00000000000000000000000000000000000000000000000000000000081526004018080602001828103825260208152602001807f4f776e61626c653a2063616c6c6572206973206e6f7420746865206f776e657281525060200191505060405180910390fd5b600073ffffffffffffffffffffffffffffffffffffffff1660008054906101000a900473ffffffffffffffffffffffffffffffffffffffff1673ffffffffffffffffffffffffffffffffffffffff167f8be0079c531659141344cd1fd0a4f28419497f9722a3daafe3b4186f6b6457e060405160405180910390a360008060006101000a81548173ffffffffffffffffffffffffffffffffffffffff021916908373ffffffffffffffffffffffffffffffffffffffff160217905550565b611021600060010233611115565b611076576040517f08c379a0000000000000000000000000000000000000000000000000000000008152600401808060200182810382526034815260200180611d336034913960400191505060405180910390fd5b6110a07f544f4b454e5f4d41524b5f524f4c45000000000000000000000000000000000082610ac9565b50565b6000600460009054906101000a900460ff16905090565b60008060009054906101000a900473ffffffffffffffffffffffffffffffffffffffff16905090565b600061110d82600160008681526020019081526020016000206000016119c490919063ffffffff16565b905092915050565b600061113f826001600086815260200190815260200160002060000161175590919063ffffffff16565b905092915050565b600060010281565b611157611785565b73ffffffffffffffffffffffffffffffffffffffff166111756110ba565b73ffffffffffffffffffffffffffffffffffffffff16146111fe576040517f08c379a00000000000000000000000000000000000000000000000000000000081526004018080602001828103825260208152602001807f4f776e61626c653a2063616c6c6572206973206e6f7420746865206f776e657281525060200191505060405180910390fd5b60648160ff16111561125b576040517f08c379a0000000000000000000000000000000000000000000000000000000008152600401808060200182810382526045815260200180611d676045913960600191505060405180910390fd5b80600560008473ffffffffffffffffffffffffffffffffffffffff1673ffffffffffffffffffffffffffffffffffffffff16815260200190815260200160002060006101000a81548160ff021916908360ff1602179055505050565b6000600560008373ffffffffffffffffffffffffffffffffffffffff1673ffffffffffffffffffffffffffffffffffffffff16815260200190815260200160002060009054906101000a900460ff169050919050565b611315611785565b73ffffffffffffffffffffffffffffffffffffffff166113336110ba565b73ffffffffffffffffffffffffffffffffffffffff16146113bc576040517f08c379a00000000000000000000000000000000000000000000000000000000081526004018080602001828103825260208152602001807f4f776e61626c653a2063616c6c6572206973206e6f7420746865206f776e657281525060200191505060405180910390fd5b60648160ff161115611419576040517f08c379a0000000000000000000000000000000000000000000000000000000008152600401808060200182810382526037815260200180611c856037913960400191505060405180910390fd5b80600460006101000a81548160ff021916908360ff16021790555050565b60006114716064611463600460009054906101000a900460ff1660ff16856118b590919063ffffffff16565b61193b90919063ffffffff16565b9050919050565b6000611498600160008481526020019081526020016000206000016119df565b9050919050565b6114c660016000848152602001908152602001600020600201546114c1611785565b611115565b61151b576040517f08c379a0000000000000000000000000000000000000000000000000000000008152600401808060200182810382526030815260200180611ce26030913960400191505060405180910390fd5b6115258282611821565b5050565b611531611785565b73ffffffffffffffffffffffffffffffffffffffff1661154f6110ba565b73ffffffffffffffffffffffffffffffffffffffff16146115d8576040517f08c379a00000000000000000000000000000000000000000000000000000000081526004018080602001828103825260208152602001807f4f776e61626c653a2063616c6c6572206973206e6f7420746865206f776e657281525060200191505060405180910390fd5b600073ffffffffffffffffffffffffffffffffffffffff168173ffffffffffffffffffffffffffffffffffffffff16141561165e576040517f08c379a0000000000000000000000000000000000000000000000000000000008152600401808060200182810382526026815260200180611cbc6026913960400191505060405180910390fd5b8073ffffffffffffffffffffffffffffffffffffffff1660008054906101000a900473ffffffffffffffffffffffffffffffffffffffff1673ffffffffffffffffffffffffffffffffffffffff167f8be0079c531659141344cd1fd0a4f28419497f9722a3daafe3b4186f6b6457e060405160405180910390a3806000806101000a81548173ffffffffffffffffffffffffffffffffffffffff021916908373ffffffffffffffffffffffffffffffffffffffff16021790555050565b6000600254905090565b600061174d836000018373ffffffffffffffffffffffffffffffffffffffff166001026119f4565b905092915050565b600061177d836000018373ffffffffffffffffffffffffffffffffffffffff16600102611a64565b905092915050565b600033905090565b6117b5816001600085815260200190815260200160002060000161172590919063ffffffff16565b1561181d576117c2611785565b73ffffffffffffffffffffffffffffffffffffffff168173ffffffffffffffffffffffffffffffffffffffff16837f2f8788117e7eff1d82e926ec794901d17c78024a50270940304540a733656f0d60405160405180910390a45b5050565b6118498160016000858152602001908152602001600020600001611a8790919063ffffffff16565b156118b157611856611785565b73ffffffffffffffffffffffffffffffffffffffff168173ffffffffffffffffffffffffffffffffffffffff16837ff6391f5c32d9c69d2a47ea670b442974b53935d1edc7fd64eb21e047a839171b60405160405180910390a45b5050565b6000808314156118c85760009050611935565b60008284029050828482816118d957fe5b0414611930576040517f08c379a0000000000000000000000000000000000000000000000000000000008152600401808060200182810382526021815260200180611d126021913960400191505060405180910390fd5b809150505b92915050565b60008082116119b2576040517f08c379a000000000000000000000000000000000000000000000000000000000815260040180806020018281038252601a8152602001807f536166654d6174683a206469766973696f6e206279207a65726f00000000000081525060200191505060405180910390fd5b8183816119bb57fe5b04905092915050565b60006119d38360000183611ab7565b60019004905092915050565b60006119ed82600001611b3a565b9050919050565b6000611a008383611a64565b611a59578260000182908060018154018082558091505060019003906000526020600020016000909190919091505582600001805490508360010160008481526020019081526020016000208190555060019050611a5e565b600090505b92915050565b600080836001016000848152602001908152602001600020541415905092915050565b6000611aaf836000018373ffffffffffffffffffffffffffffffffffffffff16600102611b4b565b905092915050565b600081836000018054905011611b18576040517f08c379a0000000000000000000000000000000000000000000000000000000008152600401808060200182810382526022815260200180611c346022913960400191505060405180910390fd5b826000018281548110611b2757fe5b9060005260206000200154905092915050565b600081600001805490509050919050565b60008083600101600084815260200190815260200160002054905060008114611c275760006001820390506000600186600001805490500390506000866000018281548110611b9657fe5b9060005260206000200154905080876000018481548110611bb357fe5b9060005260206000200181905550600183018760010160008381526020019081526020016000208190555086600001805480611beb57fe5b60019003818190600052602060002001600090559055866001016000878152602001908152602001600020600090556001945050505050611c2d565b60009150505b9291505056fe456e756d657261626c655365743a20696e646578206f7574206f6620626f756e6473416363657373436f6e74726f6c3a2073656e646572206d75737420626520616e2061646d696e20746f206772616e747365744d61726b6574706c61636546656550657263656e746167653a3a5f70657263656e74616765206d757374206265203c3d203130304f776e61626c653a206e6577206f776e657220697320746865207a65726f2061646472657373416363657373436f6e74726f6c3a2073656e646572206d75737420626520616e2061646d696e20746f207265766f6b65536166654d6174683a206d756c7469706c69636174696f6e206f766572666c6f776772616e744d61726b6574706c6163654163636573733a3a4d7573742062652061646d696e20746f2063616c6c206d6574686f64736574455243373231436f6e74726163745072696d61727953616c6546656550657263656e746167653a3a5f70657263656e74616765206d757374206265203c3d203130306d61726b546f6b656e734173536f6c643a3a417474656d7074656420746f206d61726b206d6f7265207468616e203230303020746f6b656e7320617320736f6c646d61726b455243373231546f6b656e3a3a4d757374206861766520544f4b454e5f4d41524b5f524f4c4520726f6c6520746f2063616c6c206d6574686f64416363657373436f6e74726f6c3a2063616e206f6e6c792072656e6f756e636520726f6c657320666f722073656c66a26469706673582212206f00e79e7fc7a9039f469740e13e326b5fe5a3cb7b025f30eacdc85b691e88be64736f6c634300060c0033416363657373436f6e74726f6c3a2073656e646572206d75737420626520616e2061646d696e20746f206772616e74",
  "immutableReferences": {},
  "source": "// SPDX-License-Identifier: MIT\npragma solidity 0.6.12;\n\nimport \"./IMarketplaceSettings.sol\";\nimport \"@openzeppelin/contracts/math/SafeMath.sol\";\nimport \"@openzeppelin/contracts/access/Ownable.sol\";\nimport \"@openzeppelin/contracts/access/AccessControl.sol\";\n\n/**\n * @title MarketplaceSettings Settings governing the marketplace fees.\n */\ncontract MarketplaceSettings is Ownable, AccessControl, IMarketplaceSettings {\n    using SafeMath for uint256;\n\n    /////////////////////////////////////////////////////////////////////////\n    // Constants\n    /////////////////////////////////////////////////////////////////////////\n\n    bytes32 public constant TOKEN_MARK_ROLE = \"TOKEN_MARK_ROLE\";\n    // bytes32 public constant TOKEN_MARK_ROLE = keccak256(\"TOKEN_MARK_ROLE\");\n\n    /////////////////////////////////////////////////////////////////////////\n    // State Variables\n    /////////////////////////////////////////////////////////////////////////\n\n    // Max wei value within the marketplace\n    uint256 private maxValue;\n\n    // Min wei value within the marketplace\n    uint256 private minValue;\n\n    // Percentage fee for the marketplace, 3 == 3%\n    uint8 private marketplaceFeePercentage;\n\n    // Mapping of ERC721 contract to the primary sale fee. If primary sale fee is 0 for an origin contract then primary sale fee is ignored. 1 == 1%\n    mapping(address => uint8) private primarySaleFees;\n\n    // Mapping of ERC721 contract to mapping of token ID to whether the token has been sold before.\n    mapping(address => mapping(uint256 => bool)) private soldTokens;\n\n    /////////////////////////////////////////////////////////////////////////\n    // Constructor\n    /////////////////////////////////////////////////////////////////////////\n    /**\n     * @dev Initializes the contract maxValue, minValues, and marketplaceFeePercentage to default settings.\n     *      Also, sets the roles for the contract to the owner.\n     */\n    constructor() public {\n        maxValue = 2**254; // 2 ^ 254 is max amount, prevents any overflow issues.\n\n        minValue = 1000; // all amounts must be greater than 1000 Wei.\n\n        marketplaceFeePercentage = 3; // 3% marketplace fee on all txs.\n\n        _setupRole(AccessControl.DEFAULT_ADMIN_ROLE, owner());\n        grantRole(TOKEN_MARK_ROLE, owner());\n    }\n\n    /////////////////////////////////////////////////////////////////////////\n    // grantMarketplaceMarkTokenAccess\n    /////////////////////////////////////////////////////////////////////////\n    /**\n     * @dev Grants a marketplace contract access to marke\n     * @param _account address of the account that can perform the token mark role.\n     */\n    function grantMarketplaceAccess(address _account) external {\n        require(\n            hasRole(AccessControl.DEFAULT_ADMIN_ROLE, msg.sender),\n            \"grantMarketplaceAccess::Must be admin to call method\"\n        );\n        grantRole(TOKEN_MARK_ROLE, _account);\n    }\n\n    /////////////////////////////////////////////////////////////////////////\n    // getMarketplaceMaxValue\n    /////////////////////////////////////////////////////////////////////////\n    /**\n     * @dev Get the max value to be used with the marketplace.\n     * @return uint256 wei value.\n     */\n    function getMarketplaceMaxValue() external override view returns (uint256) {\n        return maxValue;\n    }\n\n    /////////////////////////////////////////////////////////////////////////\n    // setMarketplaceMaxValue\n    /////////////////////////////////////////////////////////////////////////\n    /**\n     * @dev Set the maximum value of the marketplace settings.\n     * @param _maxValue uint256 maximum wei value.\n     */\n    function setMarketplaceMaxValue(uint256 _maxValue) external onlyOwner {\n        maxValue = _maxValue;\n    }\n\n    /////////////////////////////////////////////////////////////////////////\n    // getMarketplaceMinValue\n    /////////////////////////////////////////////////////////////////////////\n    /**\n     * @dev Get the max value to be used with the marketplace.\n     * @return uint256 wei value.\n     */\n    function getMarketplaceMinValue() external override view returns (uint256) {\n        return minValue;\n    }\n\n    /////////////////////////////////////////////////////////////////////////\n    // setMarketplaceMinValue\n    /////////////////////////////////////////////////////////////////////////\n    /**\n     * @dev Set the minimum value of the marketplace settings.\n     * @param _minValue uint256 minimum wei value.\n     */\n    function setMarketplaceMinValue(uint256 _minValue) external onlyOwner {\n        minValue = _minValue;\n    }\n\n    /////////////////////////////////////////////////////////////////////////\n    // getMarketplaceFeePercentage\n    /////////////////////////////////////////////////////////////////////////\n    /**\n     * @dev Get the marketplace fee percentage.\n     * @return uint8 wei fee.\n     */\n    function getMarketplaceFeePercentage()\n        external\n        override\n        view\n        returns (uint8)\n    {\n        return marketplaceFeePercentage;\n    }\n\n    /////////////////////////////////////////////////////////////////////////\n    // setMarketplaceFeePercentage\n    /////////////////////////////////////////////////////////////////////////\n    /**\n     * @dev Set the marketplace fee percentage.\n     * Requirements:\n\n     * - `_percentage` must be <= 100.\n     * @param _percentage uint8 percentage fee.\n     */\n    function setMarketplaceFeePercentage(uint8 _percentage) external onlyOwner {\n        require(\n            _percentage <= 100,\n            \"setMarketplaceFeePercentage::_percentage must be <= 100\"\n        );\n        marketplaceFeePercentage = _percentage;\n    }\n\n    /////////////////////////////////////////////////////////////////////////\n    // calculateMarketplaceFee\n    /////////////////////////////////////////////////////////////////////////\n    /**\n     * @dev Utility function for calculating the marketplace fee for given amount of wei.\n     * @param _amount uint256 wei amount.\n     * @return uint256 wei fee.\n     */\n    function calculateMarketplaceFee(uint256 _amount)\n        external\n        override\n        view\n        returns (uint256)\n    {\n        return _amount.mul(marketplaceFeePercentage).div(100);\n    }\n\n    /////////////////////////////////////////////////////////////////////////\n    // getERC721ContractPrimarySaleFeePercentage\n    /////////////////////////////////////////////////////////////////////////\n    /**\n     * @dev Get the primary sale fee percentage for a specific ERC721 contract.\n     * @param _contractAddress address ERC721Contract address.\n     * @return uint8 wei primary sale fee.\n     */\n    function getERC721ContractPrimarySaleFeePercentage(address _contractAddress)\n        external\n        override\n        view\n        returns (uint8)\n    {\n        return primarySaleFees[_contractAddress];\n    }\n\n    /////////////////////////////////////////////////////////////////////////\n    // setERC721ContractPrimarySaleFeePercentage\n    /////////////////////////////////////////////////////////////////////////\n    /**\n     * @dev Set the primary sale fee percentage for a specific ERC721 contract.\n\n     * Requirements:\n     *\n     * - `_contractAddress` cannot be the zero address.\n     * - `_percentage` must be <= 100.\n\n     * @param _contractAddress address ERC721Contract address.\n     * @param _percentage uint8 percentage fee for the ERC721 contract.\n     */\n    function setERC721ContractPrimarySaleFeePercentage(\n        address _contractAddress,\n        uint8 _percentage\n    ) external onlyOwner {\n        require(\n            _percentage <= 100,\n            \"setERC721ContractPrimarySaleFeePercentage::_percentage must be <= 100\"\n        );\n        primarySaleFees[_contractAddress] = _percentage;\n    }\n\n    /////////////////////////////////////////////////////////////////////////\n    // calculatePrimarySaleFee\n    /////////////////////////////////////////////////////////////////////////\n    /**\n     * @dev Utility function for calculating the primary sale fee for given amount of wei\n     * @param _contractAddress address ERC721Contract address.\n     * @param _amount uint256 wei amount.\n     * @return uint256 wei fee.\n     */\n    function calculatePrimarySaleFee(address _contractAddress, uint256 _amount)\n        external\n        override\n        view\n        returns (uint256)\n    {\n        return _amount.mul(primarySaleFees[_contractAddress]).div(100);\n    }\n\n    /////////////////////////////////////////////////////////////////////////\n    // hasERC721TokenSold\n    /////////////////////////////////////////////////////////////////////////\n    /**\n     * @dev Check whether the ERC721 token has sold at least once.\n     * @param _contractAddress address ERC721Contract address.\n     * @param _tokenId uint256 token ID.\n     * @return bool of whether the token has sold.\n     */\n    function hasERC721TokenSold(address _contractAddress, uint256 _tokenId)\n        external\n        override\n        view\n        returns (bool)\n    {\n        return soldTokens[_contractAddress][_tokenId];\n    }\n\n    /////////////////////////////////////////////////////////////////////////\n    // markERC721TokenAsSold\n    /////////////////////////////////////////////////////////////////////////\n    /**\n     * @dev Mark a token as sold.\n\n     * Requirements:\n     *\n     * - `_contractAddress` cannot be the zero address.\n\n     * @param _contractAddress address ERC721Contract address.\n     * @param _tokenId uint256 token ID.\n     * @param _hasSold bool of whether the token should be marked sold or not.\n     */\n    function markERC721Token(\n        address _contractAddress,\n        uint256 _tokenId,\n        bool _hasSold\n    ) external override {\n        require(\n            hasRole(TOKEN_MARK_ROLE, msg.sender),\n            \"markERC721Token::Must have TOKEN_MARK_ROLE role to call method\"\n        );\n        soldTokens[_contractAddress][_tokenId] = _hasSold;\n    }\n\n    /////////////////////////////////////////////////////////////////////////\n    // markTokensAsSold\n    /////////////////////////////////////////////////////////////////////////\n    /**\n     * @dev Function to set an array of tokens for a contract as sold, thus not being subject to the primary sale fee, if one exists.\n     * @param _originContract address of ERC721 contract.\n     * @param _tokenIds uint256[] array of token ids.\n     */\n    function markTokensAsSold(\n        address _originContract,\n        uint256[] calldata _tokenIds\n    ) external {\n        require(\n            hasRole(TOKEN_MARK_ROLE, msg.sender),\n            \"markERC721Token::Must have TOKEN_MARK_ROLE role to call method\"\n        );\n        // limit to batches of 2000\n        require(\n            _tokenIds.length <= 2000,\n            \"markTokensAsSold::Attempted to mark more than 2000 tokens as sold\"\n        );\n\n        // Mark provided tokens as sold.\n        for (uint256 i = 0; i < _tokenIds.length; i++) {\n            soldTokens[_originContract][_tokenIds[i]] = true;\n        }\n    }\n}\n",
  "sourcePath": "/Users/ismailcanvardar/Documents/freelance-works/intangible-contracts/contracts/Marketplace/MarketplaceSettings.sol",
  "compiler": {
    "name": "solc",
    "version": "0.6.12+commit.27d51765.Emscripten.clang"
  },
  "schemaVersion": "3.3.3",
  "updatedAt": "2021-03-20T12:34:07.784Z",
  "devdoc": {
    "kind": "dev",
    "methods": {
      "calculateMarketplaceFee(uint256)": {
        "details": "Utility function for calculating the marketplace fee for given amount of wei.",
        "params": {
          "_amount": "uint256 wei amount."
        },
        "returns": {
          "_0": "uint256 wei fee."
        }
      },
      "calculatePrimarySaleFee(address,uint256)": {
        "details": "Utility function for calculating the primary sale fee for given amount of wei",
        "params": {
          "_amount": "uint256 wei amount.",
          "_contractAddress": "address ERC721Contract address."
        },
        "returns": {
          "_0": "uint256 wei fee."
        }
      },
      "constructor": {
        "details": "Initializes the contract maxValue, minValues, and marketplaceFeePercentage to default settings.      Also, sets the roles for the contract to the owner."
      },
      "getERC721ContractPrimarySaleFeePercentage(address)": {
        "details": "Get the primary sale fee percentage for a specific ERC721 contract.",
        "params": {
          "_contractAddress": "address ERC721Contract address."
        },
        "returns": {
          "_0": "uint8 wei primary sale fee."
        }
      },
      "getMarketplaceFeePercentage()": {
        "details": "Get the marketplace fee percentage.",
        "returns": {
          "_0": "uint8 wei fee."
        }
      },
      "getMarketplaceMaxValue()": {
        "details": "Get the max value to be used with the marketplace.",
        "returns": {
          "_0": "uint256 wei value."
        }
      },
      "getMarketplaceMinValue()": {
        "details": "Get the max value to be used with the marketplace.",
        "returns": {
          "_0": "uint256 wei value."
        }
      },
      "getRoleAdmin(bytes32)": {
        "details": "Returns the admin role that controls `role`. See {grantRole} and {revokeRole}. To change a role's admin, use {_setRoleAdmin}."
      },
      "getRoleMember(bytes32,uint256)": {
        "details": "Returns one of the accounts that have `role`. `index` must be a value between 0 and {getRoleMemberCount}, non-inclusive. Role bearers are not sorted in any particular way, and their ordering may change at any point. WARNING: When using {getRoleMember} and {getRoleMemberCount}, make sure you perform all queries on the same block. See the following https://forum.openzeppelin.com/t/iterating-over-elements-on-enumerableset-in-openzeppelin-contracts/2296[forum post] for more information."
      },
      "getRoleMemberCount(bytes32)": {
        "details": "Returns the number of accounts that have `role`. Can be used together with {getRoleMember} to enumerate all bearers of a role."
      },
      "grantMarketplaceAccess(address)": {
        "details": "Grants a marketplace contract access to marke",
        "params": {
          "_account": "address of the account that can perform the token mark role."
        }
      },
      "grantRole(bytes32,address)": {
        "details": "Grants `role` to `account`. If `account` had not been already granted `role`, emits a {RoleGranted} event. Requirements: - the caller must have ``role``'s admin role."
      },
      "hasERC721TokenSold(address,uint256)": {
        "details": "Check whether the ERC721 token has sold at least once.",
        "params": {
          "_contractAddress": "address ERC721Contract address.",
          "_tokenId": "uint256 token ID."
        },
        "returns": {
          "_0": "bool of whether the token has sold."
        }
      },
      "hasRole(bytes32,address)": {
        "details": "Returns `true` if `account` has been granted `role`."
      },
      "markERC721Token(address,uint256,bool)": {
        "details": "Mark a token as sold. Requirements: - `_contractAddress` cannot be the zero address.",
        "params": {
          "_contractAddress": "address ERC721Contract address.",
          "_hasSold": "bool of whether the token should be marked sold or not.",
          "_tokenId": "uint256 token ID."
        }
      },
      "markTokensAsSold(address,uint256[])": {
        "details": "Function to set an array of tokens for a contract as sold, thus not being subject to the primary sale fee, if one exists.",
        "params": {
          "_originContract": "address of ERC721 contract.",
          "_tokenIds": "uint256[] array of token ids."
        }
      },
      "owner()": {
        "details": "Returns the address of the current owner."
      },
      "renounceOwnership()": {
        "details": "Leaves the contract without owner. It will not be possible to call `onlyOwner` functions anymore. Can only be called by the current owner. NOTE: Renouncing ownership will leave the contract without an owner, thereby removing any functionality that is only available to the owner."
      },
      "renounceRole(bytes32,address)": {
        "details": "Revokes `role` from the calling account. Roles are often managed via {grantRole} and {revokeRole}: this function's purpose is to provide a mechanism for accounts to lose their privileges if they are compromised (such as when a trusted device is misplaced). If the calling account had been granted `role`, emits a {RoleRevoked} event. Requirements: - the caller must be `account`."
      },
      "revokeRole(bytes32,address)": {
        "details": "Revokes `role` from `account`. If `account` had been granted `role`, emits a {RoleRevoked} event. Requirements: - the caller must have ``role``'s admin role."
      },
      "setERC721ContractPrimarySaleFeePercentage(address,uint8)": {
        "details": "Set the primary sale fee percentage for a specific ERC721 contract. Requirements: - `_contractAddress` cannot be the zero address. - `_percentage` must be <= 100.",
        "params": {
          "_contractAddress": "address ERC721Contract address.",
          "_percentage": "uint8 percentage fee for the ERC721 contract."
        }
      },
      "setMarketplaceFeePercentage(uint8)": {
        "details": "Set the marketplace fee percentage. Requirements: - `_percentage` must be <= 100.",
        "params": {
          "_percentage": "uint8 percentage fee."
        }
      },
      "setMarketplaceMaxValue(uint256)": {
        "details": "Set the maximum value of the marketplace settings.",
        "params": {
          "_maxValue": "uint256 maximum wei value."
        }
      },
      "setMarketplaceMinValue(uint256)": {
        "details": "Set the minimum value of the marketplace settings.",
        "params": {
          "_minValue": "uint256 minimum wei value."
        }
      },
      "transferOwnership(address)": {
        "details": "Transfers ownership of the contract to a new account (`newOwner`). Can only be called by the current owner."
      }
    },
    "title": "MarketplaceSettings Settings governing the marketplace fees.",
    "version": 1
  },
  "userdoc": {
    "kind": "user",
    "methods": {},
    "version": 1
  }
}