{
  "contractName": "Payments",
  "abi": [
    {
      "anonymous": false,
      "inputs": [
        {
          "indexed": true,
          "internalType": "address",
          "name": "_payee",
          "type": "address"
        },
        {
          "indexed": false,
          "internalType": "uint256",
          "name": "amount",
          "type": "uint256"
        }
      ],
      "name": "SendValue",
      "type": "event"
    },
    {
      "inputs": [
        {
          "internalType": "address",
          "name": "dest",
          "type": "address"
        }
      ],
      "name": "payments",
      "outputs": [
        {
          "internalType": "uint256",
          "name": "",
          "type": "uint256"
        }
      ],
      "stateMutability": "view",
      "type": "function"
    },
    {
      "inputs": [
        {
          "internalType": "address payable",
          "name": "payee",
          "type": "address"
        }
      ],
      "name": "withdrawPayments",
      "outputs": [],
      "stateMutability": "nonpayable",
      "type": "function"
    }
  ],
  "bytecode": "0x608060405234801561001057600080fd5b5060405161001d906100e7565b604051809103906000f080158015610039573d6000803e3d6000fd5b506000806101000a81548173ffffffffffffffffffffffffffffffffffffffff021916908373ffffffffffffffffffffffffffffffffffffffff160217905550604051610085906100f4565b604051809103906000f0801580156100a1573d6000803e3d6000fd5b50600160006101000a81548173ffffffffffffffffffffffffffffffffffffffff021916908373ffffffffffffffffffffffffffffffffffffffff160217905550610101565b61011d806103e583390190565b610c948061050283390190565b6102d5806101106000396000f3fe608060405234801561001057600080fd5b5060043610610053576000357c01000000000000000000000000000000000000000000000000000000009004806331b3eb9414610058578063e2982c211461009c575b600080fd5b61009a6004803603602081101561006e57600080fd5b81019080803573ffffffffffffffffffffffffffffffffffffffff1690602001909291905050506100f4565b005b6100de600480360360208110156100b257600080fd5b81019080803573ffffffffffffffffffffffffffffffffffffffff1690602001909291905050506101b6565b6040518082815260200191505060405180910390f35b600160009054906101000a900473ffffffffffffffffffffffffffffffffffffffff1673ffffffffffffffffffffffffffffffffffffffff166351cff8d9826040518263ffffffff167c0100000000000000000000000000000000000000000000000000000000028152600401808273ffffffffffffffffffffffffffffffffffffffff168152602001915050600060405180830381600087803b15801561019b57600080fd5b505af11580156101af573d6000803e3d6000fd5b5050505050565b6000600160009054906101000a900473ffffffffffffffffffffffffffffffffffffffff1673ffffffffffffffffffffffffffffffffffffffff1663e3a9db1a836040518263ffffffff167c0100000000000000000000000000000000000000000000000000000000028152600401808273ffffffffffffffffffffffffffffffffffffffff16815260200191505060206040518083038186803b15801561025d57600080fd5b505afa158015610271573d6000803e3d6000fd5b505050506040513d602081101561028757600080fd5b8101908080519060200190929190505050905091905056fea2646970667358221220c61594521655789f27d944ef8adf98683a93f96f23747290db42f1ef92eac1f964736f6c634300060c0033608060405234801561001057600080fd5b5060fe8061001f6000396000f3fe6080604052600436106039576000357c0100000000000000000000000000000000000000000000000000000000900480637d286e4814603e575b600080fd5b607d60048036036020811015605257600080fd5b81019080803573ffffffffffffffffffffffffffffffffffffffff169060200190929190505050607f565b005b8073ffffffffffffffffffffffffffffffffffffffff166108fc349081150290604051600060405180830381858888f1935050505015801560c4573d6000803e3d6000fd5b505056fea26469706673582212209c65a154c6772049e4db694667a1e294a94eeea80e3b01a69ad07b916d4cb36764736f6c634300060c0033608060405234801561001057600080fd5b50600061002a6100cd640100000000026401000000009004565b9050806000806101000a81548173ffffffffffffffffffffffffffffffffffffffff021916908373ffffffffffffffffffffffffffffffffffffffff1602179055508073ffffffffffffffffffffffffffffffffffffffff16600073ffffffffffffffffffffffffffffffffffffffff167f8be0079c531659141344cd1fd0a4f28419497f9722a3daafe3b4186f6b6457e060405160405180910390a3506100d5565b600033905090565b610bb0806100e46000396000f3fe608060405260043610610072576000357c01000000000000000000000000000000000000000000000000000000009004806351cff8d914610077578063715018a6146100c85780638da5cb5b146100df578063e3a9db1a14610120578063f2fde38b14610185578063f340fa01146101d6575b600080fd5b34801561008357600080fd5b506100c66004803603602081101561009a57600080fd5b81019080803573ffffffffffffffffffffffffffffffffffffffff16906020019092919050505061021a565b005b3480156100d457600080fd5b506100dd6103cd565b005b3480156100eb57600080fd5b506100f461053a565b604051808273ffffffffffffffffffffffffffffffffffffffff16815260200191505060405180910390f35b34801561012c57600080fd5b5061016f6004803603602081101561014357600080fd5b81019080803573ffffffffffffffffffffffffffffffffffffffff169060200190929190505050610563565b6040518082815260200191505060405180910390f35b34801561019157600080fd5b506101d4600480360360208110156101a857600080fd5b81019080803573ffffffffffffffffffffffffffffffffffffffff1690602001909291905050506105ac565b005b610218600480360360208110156101ec57600080fd5b81019080803573ffffffffffffffffffffffffffffffffffffffff16906020019092919050505061079e565b005b610222610939565b73ffffffffffffffffffffffffffffffffffffffff1661024061053a565b73ffffffffffffffffffffffffffffffffffffffff16146102c9576040517f08c379a00000000000000000000000000000000000000000000000000000000081526004018080602001828103825260208152602001807f4f776e61626c653a2063616c6c6572206973206e6f7420746865206f776e657281525060200191505060405180910390fd5b6000600160008373ffffffffffffffffffffffffffffffffffffffff1673ffffffffffffffffffffffffffffffffffffffff1681526020019081526020016000205490506000600160008473ffffffffffffffffffffffffffffffffffffffff1673ffffffffffffffffffffffffffffffffffffffff1681526020019081526020016000208190555061037b818373ffffffffffffffffffffffffffffffffffffffff1661094190919063ffffffff16565b8173ffffffffffffffffffffffffffffffffffffffff167f7084f5476618d8e60b11ef0d7d3f06914655adb8793e28ff7f018d4c76d505d5826040518082815260200191505060405180910390a25050565b6103d5610939565b73ffffffffffffffffffffffffffffffffffffffff166103f361053a565b73ffffffffffffffffffffffffffffffffffffffff161461047c576040517f08c379a00000000000000000000000000000000000000000000000000000000081526004018080602001828103825260208152602001807f4f776e61626c653a2063616c6c6572206973206e6f7420746865206f776e657281525060200191505060405180910390fd5b600073ffffffffffffffffffffffffffffffffffffffff1660008054906101000a900473ffffffffffffffffffffffffffffffffffffffff1673ffffffffffffffffffffffffffffffffffffffff167f8be0079c531659141344cd1fd0a4f28419497f9722a3daafe3b4186f6b6457e060405160405180910390a360008060006101000a81548173ffffffffffffffffffffffffffffffffffffffff021916908373ffffffffffffffffffffffffffffffffffffffff160217905550565b60008060009054906101000a900473ffffffffffffffffffffffffffffffffffffffff16905090565b6000600160008373ffffffffffffffffffffffffffffffffffffffff1673ffffffffffffffffffffffffffffffffffffffff168152602001908152602001600020549050919050565b6105b4610939565b73ffffffffffffffffffffffffffffffffffffffff166105d261053a565b73ffffffffffffffffffffffffffffffffffffffff161461065b576040517f08c379a00000000000000000000000000000000000000000000000000000000081526004018080602001828103825260208152602001807f4f776e61626c653a2063616c6c6572206973206e6f7420746865206f776e657281525060200191505060405180910390fd5b600073ffffffffffffffffffffffffffffffffffffffff168173ffffffffffffffffffffffffffffffffffffffff1614156106e1576040517f08c379a0000000000000000000000000000000000000000000000000000000008152600401808060200182810382526026815260200180610b1b6026913960400191505060405180910390fd5b8073ffffffffffffffffffffffffffffffffffffffff1660008054906101000a900473ffffffffffffffffffffffffffffffffffffffff1673ffffffffffffffffffffffffffffffffffffffff167f8be0079c531659141344cd1fd0a4f28419497f9722a3daafe3b4186f6b6457e060405160405180910390a3806000806101000a81548173ffffffffffffffffffffffffffffffffffffffff021916908373ffffffffffffffffffffffffffffffffffffffff16021790555050565b6107a6610939565b73ffffffffffffffffffffffffffffffffffffffff166107c461053a565b73ffffffffffffffffffffffffffffffffffffffff161461084d576040517f08c379a00000000000000000000000000000000000000000000000000000000081526004018080602001828103825260208152602001807f4f776e61626c653a2063616c6c6572206973206e6f7420746865206f776e657281525060200191505060405180910390fd5b60003490506108a481600160008573ffffffffffffffffffffffffffffffffffffffff1673ffffffffffffffffffffffffffffffffffffffff16815260200190815260200160002054610a9290919063ffffffff16565b600160008473ffffffffffffffffffffffffffffffffffffffff1673ffffffffffffffffffffffffffffffffffffffff168152602001908152602001600020819055508173ffffffffffffffffffffffffffffffffffffffff167f2da466a7b24304f47e87fa2e1e5a81b9831ce54fec19055ce277ca2f39ba42c4826040518082815260200191505060405180910390a25050565b600033905090565b803073ffffffffffffffffffffffffffffffffffffffff163110156109ce576040517f08c379a000000000000000000000000000000000000000000000000000000000815260040180806020018281038252601d8152602001807f416464726573733a20696e73756666696369656e742062616c616e636500000081525060200191505060405180910390fd5b60008273ffffffffffffffffffffffffffffffffffffffff168260405180600001905060006040518083038185875af1925050503d8060008114610a2e576040519150601f19603f3d011682016040523d82523d6000602084013e610a33565b606091505b5050905080610a8d576040517f08c379a000000000000000000000000000000000000000000000000000000000815260040180806020018281038252603a815260200180610b41603a913960400191505060405180910390fd5b505050565b600080828401905083811015610b10576040517f08c379a000000000000000000000000000000000000000000000000000000000815260040180806020018281038252601b8152602001807f536166654d6174683a206164646974696f6e206f766572666c6f77000000000081525060200191505060405180910390fd5b809150509291505056fe4f776e61626c653a206e6577206f776e657220697320746865207a65726f2061646472657373416464726573733a20756e61626c6520746f2073656e642076616c75652c20726563697069656e74206d61792068617665207265766572746564a26469706673582212208234627d80f3147bbb31293043d7d58305eec2bbdac731b64fffcc7d00d0c42f64736f6c634300060c0033",
  "immutableReferences": {},
  "source": "// SPDX-License-Identifier: MIT\npragma solidity 0.6.12;\n\nimport \"@openzeppelin/contracts/math/SafeMath.sol\";\nimport \"./SendValueOrEscrow.sol\";\n\n/**\n * @title Payments contract for SuperRare Marketplaces.\n */\ncontract Payments is SendValueOrEscrow {\n    using SafeMath for uint256;\n    using SafeMath for uint8;\n\n    /////////////////////////////////////////////////////////////////////////\n    // refund\n    /////////////////////////////////////////////////////////////////////////\n    /**\n     * @dev Internal function to refund an address. Typically for canceled bids or offers.\n\n     * Requirements:\n     *\n     *  - _payee cannot be the zero address\n     *\n     * @param _marketplacePercentage uint8 percentage of the fee for the marketplace.\n     * @param _amount uint256 value to be split.\n     * @param _payee address seller of the token.\n     */\n    function refund(\n        uint8 _marketplacePercentage,\n        address payable _payee,\n        uint256 _amount\n    ) internal {\n        require(\n            _payee != address(0),\n            \"refund::no payees can be the zero address\"\n        );\n\n        if (_amount > 0) {\n            SendValueOrEscrow.sendValueOrEscrow(\n                _payee,\n                _amount.add(\n                    calcPercentagePayment(_amount, _marketplacePercentage)\n                )\n            );\n        }\n    }\n\n    /////////////////////////////////////////////////////////////////////////\n    // payout\n    /////////////////////////////////////////////////////////////////////////\n    /**\n     * @dev Internal function to pay the seller, creator, and maintainer.\n\n     * Requirements:\n     *\n     *  - _marketplacePercentage + _royaltyPercentage + _primarySalePercentage <= 100\n     *  - no payees can be the zero address\n     *\n     * @param _amount uint256 value to be split.\n     * @param _isPrimarySale bool of whether this is a primary sale.\n     * @param _marketplacePercentage uint8 percentage of the fee for the marketplace.\n     * @param _royaltyPercentage uint8 percentage of the fee for the royalty.\n     * @param _primarySalePercentage uint8 percentage primary sale fee for the marketplace.\n     * @param _payee address seller of the token.\n     * @param _marketplacePayee address seller of the token.\n     * @param _royaltyPayee address seller of the token.\n     * @param _primarySalePayee address seller of the token.\n     */\n    function payout(\n        uint256 _amount,\n        bool _isPrimarySale,\n        uint8 _marketplacePercentage,\n        uint8 _royaltyPercentage,\n        uint8 _primarySalePercentage,\n        address payable _payee,\n        address payable _marketplacePayee,\n        address payable _royaltyPayee,\n        address payable _primarySalePayee\n    ) internal {\n        require(\n            _marketplacePercentage <= 100,\n            \"payout::marketplace percentage cannot be above 100\"\n        );\n        require(\n            _royaltyPercentage.add(_primarySalePercentage) <= 100,\n            \"payout::percentages cannot go beyond 100\"\n        );\n        require(\n            _payee != address(0) &&\n                _primarySalePayee != address(0) &&\n                _marketplacePayee != address(0) &&\n                _royaltyPayee != address(0),\n            \"payout::no payees can be the zero address\"\n        );\n\n        // Note:: Solidity is kind of terrible in that there is a limit to local\n        //        variables that can be put into the stack. The real pain is that\n        //        one can put structs, arrays, or mappings into memory but not basic\n        //        data types. Hence our payments array that stores these values.\n        uint256[4] memory payments;\n\n        // uint256 marketplacePayment\n        payments[0] = calcPercentagePayment(_amount, _marketplacePercentage);\n\n        // uint256 royaltyPayment\n        payments[1] = calcRoyaltyPayment(\n            _isPrimarySale,\n            _amount,\n            _royaltyPercentage\n        );\n\n        // uint256 primarySalePayment\n        payments[2] = calcPrimarySalePayment(\n            _isPrimarySale,\n            _amount,\n            _primarySalePercentage\n        );\n\n        // uint256 payeePayment\n        payments[3] = _amount.sub(payments[1]).sub(payments[2]);\n\n        // marketplacePayment\n        if (payments[0] > 0) {\n            SendValueOrEscrow.sendValueOrEscrow(_marketplacePayee, payments[0]);\n        }\n\n        // royaltyPayment\n        if (payments[1] > 0) {\n            SendValueOrEscrow.sendValueOrEscrow(_royaltyPayee, payments[1]);\n        }\n        // primarySalePayment\n        if (payments[2] > 0) {\n            SendValueOrEscrow.sendValueOrEscrow(_primarySalePayee, payments[2]);\n        }\n        // payeePayment\n        if (payments[3] > 0) {\n            SendValueOrEscrow.sendValueOrEscrow(_payee, payments[3]);\n        }\n    }\n\n    /////////////////////////////////////////////////////////////////////////\n    // calcRoyaltyPayment\n    /////////////////////////////////////////////////////////////////////////\n    /**\n     * @dev Private function to calculate Royalty amount.\n     *      If primary sale: 0\n     *      If no royalty percentage: 0\n     *      otherwise: royalty in wei\n     * @param _isPrimarySale bool of whether this is a primary sale\n     * @param _amount uint256 value to be split\n     * @param _percentage uint8 royalty percentage\n     * @return uint256 wei value owed for royalty\n     */\n    function calcRoyaltyPayment(\n        bool _isPrimarySale,\n        uint256 _amount,\n        uint8 _percentage\n    ) private pure returns (uint256) {\n        if (_isPrimarySale) {\n            return 0;\n        }\n        return calcPercentagePayment(_amount, _percentage);\n    }\n\n    /////////////////////////////////////////////////////////////////////////\n    // calcPrimarySalePayment\n    /////////////////////////////////////////////////////////////////////////\n    /**\n     * @dev Private function to calculate PrimarySale amount.\n     *      If not primary sale: 0\n     *      otherwise: primary sale in wei\n     * @param _isPrimarySale bool of whether this is a primary sale\n     * @param _amount uint256 value to be split\n     * @param _percentage uint8 royalty percentage\n     * @return uint256 wei value owed for primary sale\n     */\n    function calcPrimarySalePayment(\n        bool _isPrimarySale,\n        uint256 _amount,\n        uint8 _percentage\n    ) private pure returns (uint256) {\n        if (_isPrimarySale) {\n            return calcPercentagePayment(_amount, _percentage);\n        }\n        return 0;\n    }\n\n    /////////////////////////////////////////////////////////////////////////\n    // calcPercentagePayment\n    /////////////////////////////////////////////////////////////////////////\n    /**\n     * @dev Internal function to calculate percentage value.\n     * @param _amount uint256 wei value\n     * @param _percentage uint8  percentage\n     * @return uint256 wei value based on percentage.\n     */\n    function calcPercentagePayment(uint256 _amount, uint8 _percentage)\n        internal\n        pure\n        returns (uint256)\n    {\n        return _amount.mul(_percentage).div(100);\n    }\n}\n",
  "sourcePath": "/Users/ismailcanvardar/Documents/freelance-works/intangible-contracts/contracts/Payments.sol",
  "compiler": {
    "name": "solc",
    "version": "0.6.12+commit.27d51765.Emscripten.clang"
  },
  "schemaVersion": "3.3.3",
  "updatedAt": "2021-03-13T15:15:39.704Z",
  "devdoc": {
    "kind": "dev",
    "methods": {
      "payments(address)": {
        "details": "Returns the payments owed to an address.",
        "params": {
          "dest": "The creditor's address."
        }
      },
      "withdrawPayments(address)": {
        "details": "Withdraw accumulated payments, forwarding all gas to the recipient. Note that _any_ account can call this function, not just the `payee`. This means that contracts unaware of the `PullPayment` protocol can still receive funds this way, by having a separate account call {withdrawPayments}. WARNING: Forwarding all gas opens the door to reentrancy vulnerabilities. Make sure you trust the recipient, or are either following the checks-effects-interactions pattern or using {ReentrancyGuard}.",
        "params": {
          "payee": "Whose payments will be withdrawn."
        }
      }
    },
    "title": "Payments contract for SuperRare Marketplaces.",
    "version": 1
  },
  "userdoc": {
    "kind": "user",
    "methods": {},
    "version": 1
  }
}