{
  "contractName": "SendValueProxy",
  "abi": [
    {
      "inputs": [
        {
          "internalType": "address payable",
          "name": "_to",
          "type": "address"
        }
      ],
      "name": "sendValue",
      "outputs": [],
      "stateMutability": "payable",
      "type": "function"
    }
  ],
  "bytecode": "0x608060405234801561001057600080fd5b5060fe8061001f6000396000f3fe6080604052600436106039576000357c0100000000000000000000000000000000000000000000000000000000900480637d286e4814603e575b600080fd5b607d60048036036020811015605257600080fd5b81019080803573ffffffffffffffffffffffffffffffffffffffff169060200190929190505050607f565b005b8073ffffffffffffffffffffffffffffffffffffffff166108fc349081150290604051600060405180830381858888f1935050505015801560c4573d6000803e3d6000fd5b505056fea26469706673582212209c65a154c6772049e4db694667a1e294a94eeea80e3b01a69ad07b916d4cb36764736f6c634300060c0033",
  "immutableReferences": {},
  "source": "// SPDX-License-Identifier: MIT\npragma solidity 0.6.12;\n\nimport \"./ISendValueProxy.sol\";\n\n/**\n * @dev Contract that attempts to send value to an address.\n */\ncontract SendValueProxy is ISendValueProxy {\n    /**\n     * @dev Send some wei to the address.\n     * @param _to address to send some value to.\n     */\n    function sendValue(address payable _to) external override payable {\n        // Note that `<address>.transfer` limits gas sent to receiver. It may\n        // not support complex contract operations in the future.\n        _to.transfer(msg.value);\n    }\n}\n",
  "sourcePath": "/Users/ismailcanvardar/Documents/freelance-works/intangible-contracts/contracts/SendValueProxy.sol",
  "compiler": {
    "name": "solc",
    "version": "0.6.12+commit.27d51765.Emscripten.clang"
  },
  "schemaVersion": "3.3.3",
  "updatedAt": "2021-03-20T12:34:07.795Z",
  "devdoc": {
    "details": "Contract that attempts to send value to an address.",
    "kind": "dev",
    "methods": {
      "sendValue(address)": {
        "details": "Send some wei to the address.",
        "params": {
          "_to": "address to send some value to."
        }
      }
    },
    "version": 1
  },
  "userdoc": {
    "kind": "user",
    "methods": {},
    "version": 1
  }
}