{
  "contractName": "SuperRareTokenCreatorRegistry",
  "abi": [
    {
      "inputs": [
        {
          "internalType": "address[]",
          "name": "_iERC721Creators",
          "type": "address[]"
        }
      ],
      "stateMutability": "nonpayable",
      "type": "constructor"
    },
    {
      "anonymous": false,
      "inputs": [
        {
          "indexed": true,
          "internalType": "address",
          "name": "previousOwner",
          "type": "address"
        },
        {
          "indexed": true,
          "internalType": "address",
          "name": "newOwner",
          "type": "address"
        }
      ],
      "name": "OwnershipTransferred",
      "type": "event"
    },
    {
      "inputs": [],
      "name": "owner",
      "outputs": [
        {
          "internalType": "address",
          "name": "",
          "type": "address"
        }
      ],
      "stateMutability": "view",
      "type": "function"
    },
    {
      "inputs": [],
      "name": "renounceOwnership",
      "outputs": [],
      "stateMutability": "nonpayable",
      "type": "function"
    },
    {
      "inputs": [
        {
          "internalType": "address",
          "name": "newOwner",
          "type": "address"
        }
      ],
      "name": "transferOwnership",
      "outputs": [],
      "stateMutability": "nonpayable",
      "type": "function"
    },
    {
      "inputs": [
        {
          "internalType": "address",
          "name": "_contractAddress",
          "type": "address"
        },
        {
          "internalType": "uint256",
          "name": "_tokenId",
          "type": "uint256"
        }
      ],
      "name": "tokenCreator",
      "outputs": [
        {
          "internalType": "address payable",
          "name": "",
          "type": "address"
        }
      ],
      "stateMutability": "view",
      "type": "function"
    },
    {
      "inputs": [
        {
          "internalType": "address",
          "name": "_contractAddress",
          "type": "address"
        },
        {
          "internalType": "uint256",
          "name": "_tokenId",
          "type": "uint256"
        },
        {
          "internalType": "address payable",
          "name": "_creator",
          "type": "address"
        }
      ],
      "name": "setTokenCreator",
      "outputs": [],
      "stateMutability": "nonpayable",
      "type": "function"
    },
    {
      "inputs": [
        {
          "internalType": "address",
          "name": "_contractAddress",
          "type": "address"
        }
      ],
      "name": "setIERC721Creator",
      "outputs": [],
      "stateMutability": "nonpayable",
      "type": "function"
    }
  ],
  "bytecode": "0x608060405234801561001057600080fd5b506040516110593803806110598339818101604052602081101561003357600080fd5b810190808051604051939291908464010000000082111561005357600080fd5b8382019150602082018581111561006957600080fd5b825186602082028301116401000000008211171561008657600080fd5b8083526020830192505050908051906020019060200280838360005b838110156100bd5780820151818401526020810190506100a2565b5050505090500160405250505060006100e3610309640100000000026401000000009004565b9050806000806101000a81548173ffffffffffffffffffffffffffffffffffffffff021916908373ffffffffffffffffffffffffffffffffffffffff1602179055508073ffffffffffffffffffffffffffffffffffffffff16600073ffffffffffffffffffffffffffffffffffffffff167f8be0079c531659141344cd1fd0a4f28419497f9722a3daafe3b4186f6b6457e060405160405180910390a3506103e88151106101dc576040517f08c379a0000000000000000000000000000000000000000000000000000000008152600401808060200182810382526043815260200180610fd96043913960600191505060405180910390fd5b60005b81518160ff16101561030257600073ffffffffffffffffffffffffffffffffffffffff16828260ff168151811061021257fe5b602002602001015173ffffffffffffffffffffffffffffffffffffffff161415610287576040517f08c379a000000000000000000000000000000000000000000000000000000000815260040180806020018281038252603d81526020018061101c603d913960400191505060405180910390fd5b600160026000848460ff168151811061029c57fe5b602002602001015173ffffffffffffffffffffffffffffffffffffffff1673ffffffffffffffffffffffffffffffffffffffff16815260200190815260200160002060006101000a81548160ff02191690831515021790555080806001019150506101df565b5050610311565b600033905090565b610cb9806103206000396000f3fe608060405234801561001057600080fd5b506004361061007f576000357c0100000000000000000000000000000000000000000000000000000000900480632b1c19c9146100845780633a85757c146100f2578063715018a6146101365780638da5cb5b14610140578063b85ed7e414610174578063f2fde38b146101ec575b600080fd5b6100f06004803603606081101561009a57600080fd5b81019080803573ffffffffffffffffffffffffffffffffffffffff16906020019092919080359060200190929190803573ffffffffffffffffffffffffffffffffffffffff169060200190929190505050610230565b005b6101346004803603602081101561010857600080fd5b81019080803573ffffffffffffffffffffffffffffffffffffffff16906020019092919050505061047f565b005b61013e61060f565b005b61014861077c565b604051808273ffffffffffffffffffffffffffffffffffffffff16815260200191505060405180910390f35b6101c06004803603604081101561018a57600080fd5b81019080803573ffffffffffffffffffffffffffffffffffffffff169060200190929190803590602001909291905050506107a5565b604051808273ffffffffffffffffffffffffffffffffffffffff16815260200191505060405180910390f35b61022e6004803603602081101561020257600080fd5b81019080803573ffffffffffffffffffffffffffffffffffffffff1690602001909291905050506109ce565b005b610238610bc0565b73ffffffffffffffffffffffffffffffffffffffff1661025661077c565b73ffffffffffffffffffffffffffffffffffffffff16146102df576040517f08c379a00000000000000000000000000000000000000000000000000000000081526004018080602001828103825260208152602001807f4f776e61626c653a2063616c6c6572206973206e6f7420746865206f776e657281525060200191505060405180910390fd5b600073ffffffffffffffffffffffffffffffffffffffff168173ffffffffffffffffffffffffffffffffffffffff161415610365576040517f08c379a0000000000000000000000000000000000000000000000000000000008152600401808060200182810382526033815260200180610c516033913960400191505060405180910390fd5b600073ffffffffffffffffffffffffffffffffffffffff168373ffffffffffffffffffffffffffffffffffffffff1614156103eb576040517f08c379a0000000000000000000000000000000000000000000000000000000008152600401808060200182810382526030815260200180610c216030913960400191505060405180910390fd5b80600160008573ffffffffffffffffffffffffffffffffffffffff1673ffffffffffffffffffffffffffffffffffffffff168152602001908152602001600020600084815260200190815260200160002060006101000a81548173ffffffffffffffffffffffffffffffffffffffff021916908373ffffffffffffffffffffffffffffffffffffffff160217905550505050565b610487610bc0565b73ffffffffffffffffffffffffffffffffffffffff166104a561077c565b73ffffffffffffffffffffffffffffffffffffffff161461052e576040517f08c379a00000000000000000000000000000000000000000000000000000000081526004018080602001828103825260208152602001807f4f776e61626c653a2063616c6c6572206973206e6f7420746865206f776e657281525060200191505060405180910390fd5b600073ffffffffffffffffffffffffffffffffffffffff168173ffffffffffffffffffffffffffffffffffffffff1614156105b4576040517f08c379a0000000000000000000000000000000000000000000000000000000008152600401808060200182810382526032815260200180610bef6032913960400191505060405180910390fd5b6001600260008373ffffffffffffffffffffffffffffffffffffffff1673ffffffffffffffffffffffffffffffffffffffff16815260200190815260200160002060006101000a81548160ff02191690831515021790555050565b610617610bc0565b73ffffffffffffffffffffffffffffffffffffffff1661063561077c565b73ffffffffffffffffffffffffffffffffffffffff16146106be576040517f08c379a00000000000000000000000000000000000000000000000000000000081526004018080602001828103825260208152602001807f4f776e61626c653a2063616c6c6572206973206e6f7420746865206f776e657281525060200191505060405180910390fd5b600073ffffffffffffffffffffffffffffffffffffffff1660008054906101000a900473ffffffffffffffffffffffffffffffffffffffff1673ffffffffffffffffffffffffffffffffffffffff167f8be0079c531659141344cd1fd0a4f28419497f9722a3daafe3b4186f6b6457e060405160405180910390a360008060006101000a81548173ffffffffffffffffffffffffffffffffffffffff021916908373ffffffffffffffffffffffffffffffffffffffff160217905550565b60008060009054906101000a900473ffffffffffffffffffffffffffffffffffffffff16905090565b60008073ffffffffffffffffffffffffffffffffffffffff16600160008573ffffffffffffffffffffffffffffffffffffffff1673ffffffffffffffffffffffffffffffffffffffff168152602001908152602001600020600084815260200190815260200160002060009054906101000a900473ffffffffffffffffffffffffffffffffffffffff1673ffffffffffffffffffffffffffffffffffffffff16146108c257600160008473ffffffffffffffffffffffffffffffffffffffff1673ffffffffffffffffffffffffffffffffffffffff168152602001908152602001600020600083815260200190815260200160002060009054906101000a900473ffffffffffffffffffffffffffffffffffffffff1690506109c8565b600260008473ffffffffffffffffffffffffffffffffffffffff1673ffffffffffffffffffffffffffffffffffffffff16815260200190815260200160002060009054906101000a900460ff16156109c3578273ffffffffffffffffffffffffffffffffffffffff166340c1a064836040518263ffffffff167c01000000000000000000000000000000000000000000000000000000000281526004018082815260200191505060206040518083038186803b15801561098157600080fd5b505afa158015610995573d6000803e3d6000fd5b505050506040513d60208110156109ab57600080fd5b810190808051906020019092919050505090506109c8565b600090505b92915050565b6109d6610bc0565b73ffffffffffffffffffffffffffffffffffffffff166109f461077c565b73ffffffffffffffffffffffffffffffffffffffff1614610a7d576040517f08c379a00000000000000000000000000000000000000000000000000000000081526004018080602001828103825260208152602001807f4f776e61626c653a2063616c6c6572206973206e6f7420746865206f776e657281525060200191505060405180910390fd5b600073ffffffffffffffffffffffffffffffffffffffff168173ffffffffffffffffffffffffffffffffffffffff161415610b03576040517f08c379a0000000000000000000000000000000000000000000000000000000008152600401808060200182810382526026815260200180610bc96026913960400191505060405180910390fd5b8073ffffffffffffffffffffffffffffffffffffffff1660008054906101000a900473ffffffffffffffffffffffffffffffffffffffff1673ffffffffffffffffffffffffffffffffffffffff167f8be0079c531659141344cd1fd0a4f28419497f9722a3daafe3b4186f6b6457e060405160405180910390a3806000806101000a81548173ffffffffffffffffffffffffffffffffffffffff021916908373ffffffffffffffffffffffffffffffffffffffff16021790555050565b60003390509056fe4f776e61626c653a206e6577206f776e657220697320746865207a65726f20616464726573737365744945524337323143726561746f723a3a5f636f6e7472616374416464726573732063616e6e6f74206265206e756c6c736574546f6b656e43726561746f723a3a5f636f6e7472616374416464726573732063616e6e6f74206265206e756c6c736574546f6b656e43726561746f723a3a43616e6e6f7420736574206e756c6c20616464726573732061732063726561746f72a26469706673582212205696df7451832953612e9e066fcac89de15c8782fd598352441cd855b85e43a164736f6c634300060c0033636f6e7374727563746f723a3a43616e6e6f74206d61726b206d6f7265207468616e203130303020616464726573736573206173204945524337323143726561746f72636f6e7374727563746f723a3a43616e6e6f742073657420746865206e756c6c206164647265737320617320616e204945524337323143726561746f72",
  "immutableReferences": {},
  "source": "// SPDX-License-Identifier: MIT\npragma solidity 0.6.12;\n\nimport \"@openzeppelin/contracts/math/SafeMath.sol\";\nimport \"@openzeppelin/contracts/access/Ownable.sol\";\nimport \"./IERC721CreatorRoyalty.sol\";\nimport \"./IERC721Creator.sol\";\n\n/**\n * @title IERC721 Non-Fungible Token Creator basic interface\n */\ncontract SuperRareTokenCreatorRegistry is Ownable, IERC721TokenCreator {\n    using SafeMath for uint256;\n\n    /////////////////////////////////////////////////////////////////////////\n    // State Variables\n    /////////////////////////////////////////////////////////////////////////\n\n    // Mapping of ERC721 token to it's creator.\n    mapping(address => mapping(uint256 => address payable))\n        private tokenCreators;\n\n    // Mapping of addresses that implement IERC721Creator.\n    mapping(address => bool) private iERC721Creators;\n\n    /////////////////////////////////////////////////////////////////////////\n    // Constructor\n    /////////////////////////////////////////////////////////////////////////\n    /**\n     * @dev Initializes the contract setting the iERC721Creators with the provided addresses.\n     * @param _iERC721Creators address[] to set as iERC721Creators.\n     */\n    constructor(address[] memory _iERC721Creators) public {\n        require(\n            _iERC721Creators.length < 1000,\n            \"constructor::Cannot mark more than 1000 addresses as IERC721Creator\"\n        );\n        for (uint8 i = 0; i < _iERC721Creators.length; i++) {\n            require(\n                _iERC721Creators[i] != address(0),\n                \"constructor::Cannot set the null address as an IERC721Creator\"\n            );\n            iERC721Creators[_iERC721Creators[i]] = true;\n        }\n    }\n\n    /////////////////////////////////////////////////////////////////////////\n    // tokenCreator\n    /////////////////////////////////////////////////////////////////////////\n    /**\n     * @dev Gets the creator of the token\n     * @param _contractAddress address of the ERC721 contract\n     * @param _tokenId uint256 ID of the token\n     * @return address of the creator\n     */\n    function tokenCreator(address _contractAddress, uint256 _tokenId)\n        external\n        override\n        view\n        returns (address payable)\n    {\n        if (tokenCreators[_contractAddress][_tokenId] != address(0)) {\n            return tokenCreators[_contractAddress][_tokenId];\n        }\n\n        if (iERC721Creators[_contractAddress]) {\n            return IERC721Creator(_contractAddress).tokenCreator(_tokenId);\n        }\n        return address(0);\n    }\n\n    /////////////////////////////////////////////////////////////////////////\n    // setTokenCreator\n    /////////////////////////////////////////////////////////////////////////\n    /**\n     * @dev Sets the creator of the token\n     * @param _contractAddress address of the ERC721 contract\n     * @param _tokenId uint256 ID of the token\n     * @param _creator address of the creator for the token\n     */\n    function setTokenCreator(\n        address _contractAddress,\n        uint256 _tokenId,\n        address payable _creator\n    ) external onlyOwner {\n        require(\n            _creator != address(0),\n            \"setTokenCreator::Cannot set null address as creator\"\n        );\n        require(\n            _contractAddress != address(0),\n            \"setTokenCreator::_contractAddress cannot be null\"\n        );\n\n        tokenCreators[_contractAddress][_tokenId] = _creator;\n    }\n\n    /////////////////////////////////////////////////////////////////////////\n    // setIERC721Creator\n    /////////////////////////////////////////////////////////////////////////\n    /**\n     * @dev Set an address as an IERC721Creator\n     * @param _contractAddress address of the IERC721Creator contract\n     */\n    function setIERC721Creator(address _contractAddress) external onlyOwner {\n        require(\n            _contractAddress != address(0),\n            \"setIERC721Creator::_contractAddress cannot be null\"\n        );\n\n        iERC721Creators[_contractAddress] = true;\n    }\n}\n",
  "sourcePath": "/Users/ismailcanvardar/Documents/freelance-works/intangible-contracts/contracts/SuperRareTokenCreatorRegistry.sol",
  "compiler": {
    "name": "solc",
    "version": "0.6.12+commit.27d51765.Emscripten.clang"
  },
  "schemaVersion": "3.3.3",
  "updatedAt": "2021-03-13T15:15:39.778Z",
  "devdoc": {
    "kind": "dev",
    "methods": {
      "constructor": {
        "details": "Initializes the contract setting the iERC721Creators with the provided addresses.",
        "params": {
          "_iERC721Creators": "address[] to set as iERC721Creators."
        }
      },
      "owner()": {
        "details": "Returns the address of the current owner."
      },
      "renounceOwnership()": {
        "details": "Leaves the contract without owner. It will not be possible to call `onlyOwner` functions anymore. Can only be called by the current owner. NOTE: Renouncing ownership will leave the contract without an owner, thereby removing any functionality that is only available to the owner."
      },
      "setIERC721Creator(address)": {
        "details": "Set an address as an IERC721Creator",
        "params": {
          "_contractAddress": "address of the IERC721Creator contract"
        }
      },
      "setTokenCreator(address,uint256,address)": {
        "details": "Sets the creator of the token",
        "params": {
          "_contractAddress": "address of the ERC721 contract",
          "_creator": "address of the creator for the token",
          "_tokenId": "uint256 ID of the token"
        }
      },
      "tokenCreator(address,uint256)": {
        "details": "Gets the creator of the token",
        "params": {
          "_contractAddress": "address of the ERC721 contract",
          "_tokenId": "uint256 ID of the token"
        },
        "returns": {
          "_0": "address of the creator"
        }
      },
      "transferOwnership(address)": {
        "details": "Transfers ownership of the contract to a new account (`newOwner`). Can only be called by the current owner."
      }
    },
    "title": "IERC721 Non-Fungible Token Creator basic interface",
    "version": 1
  },
  "userdoc": {
    "kind": "user",
    "methods": {},
    "version": 1
  }
}