{
  "contractName": "SuperRareAuctionHouse",
  "abi": [
    {
      "inputs": [
        {
          "internalType": "address",
          "name": "_iMarketSettings",
          "type": "address"
        },
        {
          "internalType": "address",
          "name": "_iERC721CreatorRoyalty",
          "type": "address"
        }
      ],
      "stateMutability": "nonpayable",
      "type": "constructor"
    },
    {
      "anonymous": false,
      "inputs": [
        {
          "indexed": true,
          "internalType": "address",
          "name": "_contractAddress",
          "type": "address"
        },
        {
          "indexed": true,
          "internalType": "address",
          "name": "_bidder",
          "type": "address"
        },
        {
          "indexed": true,
          "internalType": "uint256",
          "name": "_tokenId",
          "type": "uint256"
        },
        {
          "indexed": false,
          "internalType": "uint256",
          "name": "_amount",
          "type": "uint256"
        },
        {
          "indexed": false,
          "internalType": "bool",
          "name": "_startedAuction",
          "type": "bool"
        },
        {
          "indexed": false,
          "internalType": "uint256",
          "name": "_newAuctionLength",
          "type": "uint256"
        },
        {
          "indexed": false,
          "internalType": "address",
          "name": "_previousBidder",
          "type": "address"
        }
      ],
      "name": "AuctionBid",
      "type": "event"
    },
    {
      "anonymous": false,
      "inputs": [
        {
          "indexed": true,
          "internalType": "address",
          "name": "_contractAddress",
          "type": "address"
        },
        {
          "indexed": true,
          "internalType": "address",
          "name": "_bidder",
          "type": "address"
        },
        {
          "indexed": false,
          "internalType": "address",
          "name": "_seller",
          "type": "address"
        },
        {
          "indexed": true,
          "internalType": "uint256",
          "name": "_tokenId",
          "type": "uint256"
        },
        {
          "indexed": false,
          "internalType": "uint256",
          "name": "_amount",
          "type": "uint256"
        }
      ],
      "name": "AuctionSettled",
      "type": "event"
    },
    {
      "anonymous": false,
      "inputs": [
        {
          "indexed": true,
          "internalType": "address",
          "name": "_contractAddress",
          "type": "address"
        },
        {
          "indexed": true,
          "internalType": "uint256",
          "name": "_tokenId",
          "type": "uint256"
        },
        {
          "indexed": true,
          "internalType": "address",
          "name": "_auctionCreator",
          "type": "address"
        }
      ],
      "name": "CancelAuction",
      "type": "event"
    },
    {
      "anonymous": false,
      "inputs": [
        {
          "indexed": true,
          "internalType": "address",
          "name": "_contractAddress",
          "type": "address"
        },
        {
          "indexed": true,
          "internalType": "uint256",
          "name": "_tokenId",
          "type": "uint256"
        },
        {
          "indexed": true,
          "internalType": "address",
          "name": "_auctionCreator",
          "type": "address"
        },
        {
          "indexed": false,
          "internalType": "uint256",
          "name": "_reservePrice",
          "type": "uint256"
        },
        {
          "indexed": false,
          "internalType": "uint256",
          "name": "_lengthOfAuction",
          "type": "uint256"
        }
      ],
      "name": "NewColdieAuction",
      "type": "event"
    },
    {
      "anonymous": false,
      "inputs": [
        {
          "indexed": true,
          "internalType": "address",
          "name": "_contractAddress",
          "type": "address"
        },
        {
          "indexed": true,
          "internalType": "uint256",
          "name": "_tokenId",
          "type": "uint256"
        },
        {
          "indexed": true,
          "internalType": "address",
          "name": "_auctionCreator",
          "type": "address"
        },
        {
          "indexed": false,
          "internalType": "uint256",
          "name": "_startingBlock",
          "type": "uint256"
        },
        {
          "indexed": false,
          "internalType": "uint256",
          "name": "_minimumBid",
          "type": "uint256"
        },
        {
          "indexed": false,
          "internalType": "uint256",
          "name": "_lengthOfAuction",
          "type": "uint256"
        }
      ],
      "name": "NewScheduledAuction",
      "type": "event"
    },
    {
      "anonymous": false,
      "inputs": [
        {
          "indexed": true,
          "internalType": "address",
          "name": "previousOwner",
          "type": "address"
        },
        {
          "indexed": true,
          "internalType": "address",
          "name": "newOwner",
          "type": "address"
        }
      ],
      "name": "OwnershipTransferred",
      "type": "event"
    },
    {
      "anonymous": false,
      "inputs": [
        {
          "indexed": true,
          "internalType": "address",
          "name": "_payee",
          "type": "address"
        },
        {
          "indexed": false,
          "internalType": "uint256",
          "name": "amount",
          "type": "uint256"
        }
      ],
      "name": "SendValue",
      "type": "event"
    },
    {
      "inputs": [],
      "name": "COLDIE_AUCTION",
      "outputs": [
        {
          "internalType": "bytes32",
          "name": "",
          "type": "bytes32"
        }
      ],
      "stateMutability": "view",
      "type": "function"
    },
    {
      "inputs": [],
      "name": "NO_AUCTION",
      "outputs": [
        {
          "internalType": "bytes32",
          "name": "",
          "type": "bytes32"
        }
      ],
      "stateMutability": "view",
      "type": "function"
    },
    {
      "inputs": [],
      "name": "SCHEDULED_AUCTION",
      "outputs": [
        {
          "internalType": "bytes32",
          "name": "",
          "type": "bytes32"
        }
      ],
      "stateMutability": "view",
      "type": "function"
    },
    {
      "inputs": [],
      "name": "auctionLengthExtension",
      "outputs": [
        {
          "internalType": "uint256",
          "name": "",
          "type": "uint256"
        }
      ],
      "stateMutability": "view",
      "type": "function"
    },
    {
      "inputs": [],
      "name": "iERC721CreatorRoyalty",
      "outputs": [
        {
          "internalType": "contract IERC721CreatorRoyalty",
          "name": "",
          "type": "address"
        }
      ],
      "stateMutability": "view",
      "type": "function"
    },
    {
      "inputs": [],
      "name": "iMarketSettings",
      "outputs": [
        {
          "internalType": "contract IMarketplaceSettings",
          "name": "",
          "type": "address"
        }
      ],
      "stateMutability": "view",
      "type": "function"
    },
    {
      "inputs": [],
      "name": "maxLength",
      "outputs": [
        {
          "internalType": "uint256",
          "name": "",
          "type": "uint256"
        }
      ],
      "stateMutability": "view",
      "type": "function"
    },
    {
      "inputs": [],
      "name": "minimumBidIncreasePercentage",
      "outputs": [
        {
          "internalType": "uint8",
          "name": "",
          "type": "uint8"
        }
      ],
      "stateMutability": "view",
      "type": "function"
    },
    {
      "inputs": [],
      "name": "owner",
      "outputs": [
        {
          "internalType": "address",
          "name": "",
          "type": "address"
        }
      ],
      "stateMutability": "view",
      "type": "function"
    },
    {
      "inputs": [
        {
          "internalType": "address",
          "name": "dest",
          "type": "address"
        }
      ],
      "name": "payments",
      "outputs": [
        {
          "internalType": "uint256",
          "name": "",
          "type": "uint256"
        }
      ],
      "stateMutability": "view",
      "type": "function"
    },
    {
      "inputs": [],
      "name": "renounceOwnership",
      "outputs": [],
      "stateMutability": "nonpayable",
      "type": "function"
    },
    {
      "inputs": [
        {
          "internalType": "address",
          "name": "newOwner",
          "type": "address"
        }
      ],
      "name": "transferOwnership",
      "outputs": [],
      "stateMutability": "nonpayable",
      "type": "function"
    },
    {
      "inputs": [
        {
          "internalType": "address payable",
          "name": "payee",
          "type": "address"
        }
      ],
      "name": "withdrawPayments",
      "outputs": [],
      "stateMutability": "nonpayable",
      "type": "function"
    },
    {
      "inputs": [
        {
          "internalType": "address",
          "name": "_address",
          "type": "address"
        }
      ],
      "name": "setMarketplaceSettings",
      "outputs": [],
      "stateMutability": "nonpayable",
      "type": "function"
    },
    {
      "inputs": [
        {
          "internalType": "address",
          "name": "_address",
          "type": "address"
        }
      ],
      "name": "setIERC721CreatorRoyalty",
      "outputs": [],
      "stateMutability": "nonpayable",
      "type": "function"
    },
    {
      "inputs": [
        {
          "internalType": "uint256",
          "name": "_maxLength",
          "type": "uint256"
        }
      ],
      "name": "setMaxLength",
      "outputs": [],
      "stateMutability": "nonpayable",
      "type": "function"
    },
    {
      "inputs": [
        {
          "internalType": "uint8",
          "name": "_percentage",
          "type": "uint8"
        }
      ],
      "name": "setMinimumBidIncreasePercentage",
      "outputs": [],
      "stateMutability": "nonpayable",
      "type": "function"
    },
    {
      "inputs": [
        {
          "internalType": "uint256",
          "name": "_auctionLengthExtension",
          "type": "uint256"
        }
      ],
      "name": "setAuctionLengthExtension",
      "outputs": [],
      "stateMutability": "nonpayable",
      "type": "function"
    },
    {
      "inputs": [
        {
          "internalType": "address",
          "name": "_contractAddress",
          "type": "address"
        },
        {
          "internalType": "uint256",
          "name": "_tokenId",
          "type": "uint256"
        },
        {
          "internalType": "uint256",
          "name": "_reservePrice",
          "type": "uint256"
        },
        {
          "internalType": "uint256",
          "name": "_lengthOfAuction",
          "type": "uint256"
        }
      ],
      "name": "createColdieAuction",
      "outputs": [],
      "stateMutability": "nonpayable",
      "type": "function"
    },
    {
      "inputs": [
        {
          "internalType": "address",
          "name": "_contractAddress",
          "type": "address"
        },
        {
          "internalType": "uint256",
          "name": "_tokenId",
          "type": "uint256"
        }
      ],
      "name": "cancelAuction",
      "outputs": [],
      "stateMutability": "nonpayable",
      "type": "function"
    },
    {
      "inputs": [
        {
          "internalType": "address",
          "name": "_contractAddress",
          "type": "address"
        },
        {
          "internalType": "uint256",
          "name": "_tokenId",
          "type": "uint256"
        },
        {
          "internalType": "uint256",
          "name": "_minimumBid",
          "type": "uint256"
        },
        {
          "internalType": "uint256",
          "name": "_lengthOfAuction",
          "type": "uint256"
        },
        {
          "internalType": "uint256",
          "name": "_startingBlock",
          "type": "uint256"
        }
      ],
      "name": "createScheduledAuction",
      "outputs": [],
      "stateMutability": "nonpayable",
      "type": "function"
    },
    {
      "inputs": [
        {
          "internalType": "address",
          "name": "_contractAddress",
          "type": "address"
        },
        {
          "internalType": "uint256",
          "name": "_tokenId",
          "type": "uint256"
        },
        {
          "internalType": "uint256",
          "name": "_amount",
          "type": "uint256"
        }
      ],
      "name": "bid",
      "outputs": [],
      "stateMutability": "payable",
      "type": "function"
    },
    {
      "inputs": [
        {
          "internalType": "address",
          "name": "_contractAddress",
          "type": "address"
        },
        {
          "internalType": "uint256",
          "name": "_tokenId",
          "type": "uint256"
        }
      ],
      "name": "settleAuction",
      "outputs": [],
      "stateMutability": "nonpayable",
      "type": "function"
    },
    {
      "inputs": [
        {
          "internalType": "address",
          "name": "_contractAddress",
          "type": "address"
        },
        {
          "internalType": "uint256",
          "name": "_tokenId",
          "type": "uint256"
        }
      ],
      "name": "getAuctionDetails",
      "outputs": [
        {
          "internalType": "bytes32",
          "name": "",
          "type": "bytes32"
        },
        {
          "internalType": "uint256",
          "name": "",
          "type": "uint256"
        },
        {
          "internalType": "address",
          "name": "",
          "type": "address"
        },
        {
          "internalType": "uint256",
          "name": "",
          "type": "uint256"
        },
        {
          "internalType": "uint256",
          "name": "",
          "type": "uint256"
        },
        {
          "internalType": "uint256",
          "name": "",
          "type": "uint256"
        },
        {
          "internalType": "uint256",
          "name": "",
          "type": "uint256"
        }
      ],
      "stateMutability": "view",
      "type": "function"
    },
    {
      "inputs": [
        {
          "internalType": "address",
          "name": "_contractAddress",
          "type": "address"
        },
        {
          "internalType": "uint256",
          "name": "_tokenId",
          "type": "uint256"
        }
      ],
      "name": "getCurrentBid",
      "outputs": [
        {
          "internalType": "address",
          "name": "",
          "type": "address"
        },
        {
          "internalType": "uint256",
          "name": "",
          "type": "uint256"
        }
      ],
      "stateMutability": "view",
      "type": "function"
    }
  ],
  "bytecode": "0x60806040523480156200001157600080fd5b5060405162006f3638038062006f36833981810160405260408110156200003757600080fd5b81019080805190602001909291908051906020019092919050505060006200006d620003aa640100000000026401000000009004565b9050806000806101000a81548173ffffffffffffffffffffffffffffffffffffffff021916908373ffffffffffffffffffffffffffffffffffffffff1602179055508073ffffffffffffffffffffffffffffffffffffffff16600073ffffffffffffffffffffffffffffffffffffffff167f8be0079c531659141344cd1fd0a4f28419497f9722a3daafe3b4186f6b6457e060405160405180910390a3506040516200011990620003b2565b604051809103906000f08015801562000136573d6000803e3d6000fd5b50600160006101000a81548173ffffffffffffffffffffffffffffffffffffffff021916908373ffffffffffffffffffffffffffffffffffffffff1602179055506040516200018590620003c0565b604051809103906000f080158015620001a2573d6000803e3d6000fd5b50600260006101000a81548173ffffffffffffffffffffffffffffffffffffffff021916908373ffffffffffffffffffffffffffffffffffffffff16021790555061a8c06008819055506041600781905550600073ffffffffffffffffffffffffffffffffffffffff168273ffffffffffffffffffffffffffffffffffffffff1614156200027c576040517f08c379a000000000000000000000000000000000000000000000000000000000815260040180806020018281038252603a81526020018062006efc603a913960400191505060405180910390fd5b600073ffffffffffffffffffffffffffffffffffffffff168173ffffffffffffffffffffffffffffffffffffffff16141562000304576040517f08c379a000000000000000000000000000000000000000000000000000000000815260040180806020018281038252604081526020018062006ebc6040913960400191505060405180910390fd5b81600360006101000a81548173ffffffffffffffffffffffffffffffffffffffff021916908373ffffffffffffffffffffffffffffffffffffffff16021790555080600460006101000a81548173ffffffffffffffffffffffffffffffffffffffff021916908373ffffffffffffffffffffffffffffffffffffffff160217905550600a600960006101000a81548160ff021916908360ff1602179055505050620003ce565b600033905090565b61011d806200610b83390190565b610c94806200622883390190565b615d2d80620003de6000396000f3fe608060405260043610610183576000357c01000000000000000000000000000000000000000000000000000000009004806385196a2d116100ee578063cafdcad0116100a7578063dc2f786711610081578063dc2f786714610778578063e2982c21146107b3578063e35ed75a14610818578063f2fde38b146108a457610183565b8063cafdcad0146106e1578063d06a89a414610722578063daa264991461074d57610183565b806385196a2d14610535578063859b97fe146105ae5780638da5cb5b146106095780639951c6e01461064a578063b23afc261461068b578063c90b8714146106b657610183565b806331b3eb941161014057806331b3eb941461039757806348626b90146103e85780635138b08c146104265780636fe9f44c14610481578063715018a6146104af578063767b3dc9146104c657610183565b80630cd87c68146101885780630d7d703f146102375780630f41ba4b1461028857806310f79789146102e0578063155a56b11461031b578063176ab44014610346575b600080fd5b34801561019457600080fd5b506101e1600480360360408110156101ab57600080fd5b81019080803573ffffffffffffffffffffffffffffffffffffffff169060200190929190803590602001909291905050506108f5565b604051808881526020018781526020018673ffffffffffffffffffffffffffffffffffffffff16815260200185815260200184815260200183815260200182815260200197505050505050505060405180910390f35b34801561024357600080fd5b506102866004803603602081101561025a57600080fd5b81019080803573ffffffffffffffffffffffffffffffffffffffff169060200190929190505050610a35565b005b6102de6004803603606081101561029e57600080fd5b81019080803573ffffffffffffffffffffffffffffffffffffffff1690602001909291908035906020019092919080359060200190929190505050610bae565b005b3480156102ec57600080fd5b506103196004803603602081101561030357600080fd5b8101908080359060200190929190505050611c49565b005b34801561032757600080fd5b50610330611d5b565b6040518082815260200191505060405180910390f35b34801561035257600080fd5b506103956004803603602081101561036957600080fd5b81019080803573ffffffffffffffffffffffffffffffffffffffff169060200190929190505050611d63565b005b3480156103a357600080fd5b506103e6600480360360208110156103ba57600080fd5b81019080803573ffffffffffffffffffffffffffffffffffffffff169060200190929190505050611edc565b005b3480156103f457600080fd5b506104246004803603602081101561040b57600080fd5b81019080803560ff169060200190929190505050611f9e565b005b34801561043257600080fd5b5061047f6004803603604081101561044957600080fd5b81019080803573ffffffffffffffffffffffffffffffffffffffff1690602001909291908035906020019092919050505061206b565b005b34801561048d57600080fd5b50610496612cdd565b604051808260ff16815260200191505060405180910390f35b3480156104bb57600080fd5b506104c4612cf0565b005b3480156104d257600080fd5b50610533600480360360808110156104e957600080fd5b81019080803573ffffffffffffffffffffffffffffffffffffffff169060200190929190803590602001909291908035906020019092919080359060200190929190505050612e5d565b005b34801561054157600080fd5b506105ac600480360360a081101561055857600080fd5b81019080803573ffffffffffffffffffffffffffffffffffffffff169060200190929190803590602001909291908035906020019092919080359060200190929190803590602001909291905050506133a4565b005b3480156105ba57600080fd5b50610607600480360360408110156105d157600080fd5b81019080803573ffffffffffffffffffffffffffffffffffffffff169060200190929190803590602001909291905050506139ba565b005b34801561061557600080fd5b5061061e614093565b604051808273ffffffffffffffffffffffffffffffffffffffff16815260200191505060405180910390f35b34801561065657600080fd5b5061065f6140bc565b604051808273ffffffffffffffffffffffffffffffffffffffff16815260200191505060405180910390f35b34801561069757600080fd5b506106a06140e2565b6040518082815260200191505060405180910390f35b3480156106c257600080fd5b506106cb614106565b6040518082815260200191505060405180910390f35b3480156106ed57600080fd5b506106f661412a565b604051808273ffffffffffffffffffffffffffffffffffffffff16815260200191505060405180910390f35b34801561072e57600080fd5b50610737614150565b6040518082815260200191505060405180910390f35b34801561075957600080fd5b50610762614156565b6040518082815260200191505060405180910390f35b34801561078457600080fd5b506107b16004803603602081101561079b57600080fd5b810190808035906020019092919050505061415c565b005b3480156107bf57600080fd5b50610802600480360360208110156107d657600080fd5b81019080803573ffffffffffffffffffffffffffffffffffffffff16906020019092919050505061426e565b6040518082815260200191505060405180910390f35b34801561082457600080fd5b506108716004803603604081101561083b57600080fd5b81019080803573ffffffffffffffffffffffffffffffffffffffff16906020019092919080359060200190929190505050614357565b604051808373ffffffffffffffffffffffffffffffffffffffff1681526020018281526020019250505060405180910390f35b3480156108b057600080fd5b506108f3600480360360208110156108c757600080fd5b81019080803573ffffffffffffffffffffffffffffffffffffffff16906020019092919050505061442d565b005b6000806000806000806000610908615569565b600560008b73ffffffffffffffffffffffffffffffffffffffff1673ffffffffffffffffffffffffffffffffffffffff16815260200190815260200160002060008a81526020019081526020016000206040518060e00160405290816000820160009054906101000a900473ffffffffffffffffffffffffffffffffffffffff1673ffffffffffffffffffffffffffffffffffffffff1673ffffffffffffffffffffffffffffffffffffffff168152602001600182015481526020016002820154815260200160038201548152602001600482015481526020016005820154815260200160068201548152505090508060c0015181602001518260000151836040015184606001518560a00151866080015197509750975097509750975097505092959891949750929550565b610a3d61461f565b73ffffffffffffffffffffffffffffffffffffffff16610a5b614093565b73ffffffffffffffffffffffffffffffffffffffff1614610ae4576040517f08c379a00000000000000000000000000000000000000000000000000000000081526004018080602001828103825260208152602001807f4f776e61626c653a2063616c6c6572206973206e6f7420746865206f776e657281525060200191505060405180910390fd5b600073ffffffffffffffffffffffffffffffffffffffff168173ffffffffffffffffffffffffffffffffffffffff161415610b6a576040517f08c379a000000000000000000000000000000000000000000000000000000000815260040180806020018281038252604d81526020018061561c604d913960600191505060405180910390fd5b80600460006101000a81548173ffffffffffffffffffffffffffffffffffffffff021916908373ffffffffffffffffffffffffffffffffffffffff16021790555050565b610bb6615569565b600560008573ffffffffffffffffffffffffffffffffffffffff1673ffffffffffffffffffffffffffffffffffffffff16815260200190815260200160002060008481526020019081526020016000206040518060e00160405290816000820160009054906101000a900473ffffffffffffffffffffffffffffffffffffffff1673ffffffffffffffffffffffffffffffffffffffff1673ffffffffffffffffffffffffffffffffffffffff1681526020016001820154815260200160028201548152602001600382015481526020016004820154815260200160058201548152602001600682015481525050905060006001028160c001511415610d23576040517f08c379a000000000000000000000000000000000000000000000000000000000815260040180806020018281038252601f8152602001807f6269643a3a4d7573742068617665206578697374696e672061756374696f6e0081525060200191505060405180910390fd5b3373ffffffffffffffffffffffffffffffffffffffff16816000015173ffffffffffffffffffffffffffffffffffffffff161415610dac576040517f08c379a00000000000000000000000000000000000000000000000000000000081526004018080602001828103825260238152602001806158d16023913960400191505060405180910390fd5b4381606001511115610e09576040517f08c379a000000000000000000000000000000000000000000000000000000000815260040180806020018281038252603a815260200180615692603a913960400191505060405180910390fd5b60008211610e7f576040517f08c379a00000000000000000000000000000000000000000000000000000000081526004018080602001828103825260168152602001807f6269643a3a43616e6e6f74206269642030205765692e0000000000000000000081525060200191505060405180910390fd5b600360009054906101000a900473ffffffffffffffffffffffffffffffffffffffff1673ffffffffffffffffffffffffffffffffffffffff1663f9a23e866040518163ffffffff167c010000000000000000000000000000000000000000000000000000000002815260040160206040518083038186803b158015610f0357600080fd5b505afa158015610f17573d6000803e3d6000fd5b505050506040513d6020811015610f2d57600080fd5b8101908080519060200190929190505050821115610f96576040517f08c379a00000000000000000000000000000000000000000000000000000000081526004018080602001828103825260258152602001806157f56025913960400191505060405180910390fd5b600360009054906101000a900473ffffffffffffffffffffffffffffffffffffffff1673ffffffffffffffffffffffffffffffffffffffff16635c1b40f16040518163ffffffff167c010000000000000000000000000000000000000000000000000000000002815260040160206040518083038186803b15801561101a57600080fd5b505afa15801561102e573d6000803e3d6000fd5b505050506040513d602081101561104457600080fd5b81019080805190602001909291905050508210156110ad576040517f08c379a000000000000000000000000000000000000000000000000000000000815260040180806020018281038252602481526020018061587b6024913960400191505060405180910390fd5b806080015182101580156110c5575060008160a00151145b806110e457508060a0015182101580156110e3575060008160800151145b5b611139576040517f08c379a00000000000000000000000000000000000000000000000000000000081526004018080602001828103825260318152602001806157c46031913960400191505060405180910390fd5b60008160600151148061116557506111628160400151826060015161462790919063ffffffff16565b43105b6111d7576040517f08c379a00000000000000000000000000000000000000000000000000000000081526004018080602001828103825260168152602001807f6269643a3a43616e6e6f74206861766520656e6465640000000000000000000081525060200191505060405180910390fd5b60006112b5600360009054906101000a900473ffffffffffffffffffffffffffffffffffffffff1673ffffffffffffffffffffffffffffffffffffffff1663c3fc4952856040518263ffffffff167c01000000000000000000000000000000000000000000000000000000000281526004018082815260200191505060206040518083038186803b15801561126b57600080fd5b505afa15801561127f573d6000803e3d6000fd5b505050506040513d602081101561129557600080fd5b81019080805190602001909291905050508461462790919063ffffffff16565b905034811461130f576040517f08c379a0000000000000000000000000000000000000000000000000000000008152600401808060200182810382526021815260200180615ab86021913960400191505060405180910390fd5b600085905060008173ffffffffffffffffffffffffffffffffffffffff16636352211e876040518263ffffffff167c01000000000000000000000000000000000000000000000000000000000281526004018082815260200191505060206040518083038186803b15801561138357600080fd5b505afa158015611397573d6000803e3d6000fd5b505050506040513d60208110156113ad57600080fd5b810190808051906020019092919050505090508073ffffffffffffffffffffffffffffffffffffffff16846000015173ffffffffffffffffffffffffffffffffffffffff16148061142957503073ffffffffffffffffffffffffffffffffffffffff168173ffffffffffffffffffffffffffffffffffffffff16145b61147e576040517f08c379a0000000000000000000000000000000000000000000000000000000008152600401808060200182810382526041815260200180615cb76041913960600191505060405180910390fd5b8073ffffffffffffffffffffffffffffffffffffffff16846000015173ffffffffffffffffffffffffffffffffffffffff1614156114c1576114c087876146af565b5b6114c96155bf565b600660008973ffffffffffffffffffffffffffffffffffffffff1673ffffffffffffffffffffffffffffffffffffffff16815260200190815260200160002060008881526020019081526020016000206040518060600160405290816000820160009054906101000a900473ffffffffffffffffffffffffffffffffffffffff1673ffffffffffffffffffffffffffffffffffffffff1673ffffffffffffffffffffffffffffffffffffffff1681526020016000820160149054906101000a900460ff1660ff1660ff168152602001600182015481525050905080604001518611801561160757506116036115f060646115e2600960009054906101000a900460ff1660ff16856040015161489790919063ffffffff16565b61491d90919063ffffffff16565b826040015161462790919063ffffffff16565b8610155b61165c576040517f08c379a0000000000000000000000000000000000000000000000000000000008152600401808060200182810382526045815260200180615bc36045913960600191505060405180910390fd5b60008160400151146116735761167288886149a6565b5b60405180606001604052803373ffffffffffffffffffffffffffffffffffffffff168152602001600360009054906101000a900473ffffffffffffffffffffffffffffffffffffffff1673ffffffffffffffffffffffffffffffffffffffff1663834759216040518163ffffffff167c010000000000000000000000000000000000000000000000000000000002815260040160206040518083038186803b15801561171e57600080fd5b505afa158015611732573d6000803e3d6000fd5b505050506040513d602081101561174857600080fd5b810190808051906020019092919050505060ff16815260200187815250600660008a73ffffffffffffffffffffffffffffffffffffffff1673ffffffffffffffffffffffffffffffffffffffff168152602001908152602001600020600089815260200190815260200160002060008201518160000160006101000a81548173ffffffffffffffffffffffffffffffffffffffff021916908373ffffffffffffffffffffffffffffffffffffffff16021790555060208201518160000160146101000a81548160ff021916908360ff160217905550604082015181600101559050506000856060015114156119f75743600560008a73ffffffffffffffffffffffffffffffffffffffff1673ffffffffffffffffffffffffffffffffffffffff1681526020019081526020016000206000898152602001908152602001600020600301819055508273ffffffffffffffffffffffffffffffffffffffff166323b872dd8660000151308a6040518463ffffffff167c0100000000000000000000000000000000000000000000000000000000028152600401808473ffffffffffffffffffffffffffffffffffffffff1681526020018373ffffffffffffffffffffffffffffffffffffffff1681526020018281526020019350505050600060405180830381600087803b15801561193e57600080fd5b505af1158015611952573d6000803e3d6000fd5b50505050863373ffffffffffffffffffffffffffffffffffffffff168973ffffffffffffffffffffffffffffffffffffffff167f5d22b2d23515fb6c26c46ebec88f4a8b503493be518661c852adf894344cbae7896001600087600001516040518085815260200184151581526020018381526020018273ffffffffffffffffffffffffffffffffffffffff16815260200194505050505060405180910390a4611c3f565b600754611a2743611a198860400151896060015161462790919063ffffffff16565b614be090919063ffffffff16565b1015611ba257611a588560600151611a4a6007544361462790919063ffffffff16565b614be090919063ffffffff16565b600560008a73ffffffffffffffffffffffffffffffffffffffff1673ffffffffffffffffffffffffffffffffffffffff168152602001908152602001600020600089815260200190815260200160002060020181905550863373ffffffffffffffffffffffffffffffffffffffff168973ffffffffffffffffffffffffffffffffffffffff167f5d22b2d23515fb6c26c46ebec88f4a8b503493be518661c852adf894344cbae7896000600560008f73ffffffffffffffffffffffffffffffffffffffff1673ffffffffffffffffffffffffffffffffffffffff16815260200190815260200160002060008e81526020019081526020016000206002015487600001516040518085815260200184151581526020018381526020018273ffffffffffffffffffffffffffffffffffffffff16815260200194505050505060405180910390a4611c3e565b863373ffffffffffffffffffffffffffffffffffffffff168973ffffffffffffffffffffffffffffffffffffffff167f5d22b2d23515fb6c26c46ebec88f4a8b503493be518661c852adf894344cbae78960008087600001516040518085815260200184151581526020018381526020018273ffffffffffffffffffffffffffffffffffffffff16815260200194505050505060405180910390a45b5b5050505050505050565b611c5161461f565b73ffffffffffffffffffffffffffffffffffffffff16611c6f614093565b73ffffffffffffffffffffffffffffffffffffffff1614611cf8576040517f08c379a00000000000000000000000000000000000000000000000000000000081526004018080602001828103825260208152602001807f4f776e61626c653a2063616c6c6572206973206e6f7420746865206f776e657281525060200191505060405180910390fd5b60008111611d51576040517f08c379a0000000000000000000000000000000000000000000000000000000008152600401808060200182810382526049815260200180615b7a6049913960600191505060405180910390fd5b8060078190555050565b600060010281565b611d6b61461f565b73ffffffffffffffffffffffffffffffffffffffff16611d89614093565b73ffffffffffffffffffffffffffffffffffffffff1614611e12576040517f08c379a00000000000000000000000000000000000000000000000000000000081526004018080602001828103825260208152602001807f4f776e61626c653a2063616c6c6572206973206e6f7420746865206f776e657281525060200191505060405180910390fd5b600073ffffffffffffffffffffffffffffffffffffffff168173ffffffffffffffffffffffffffffffffffffffff161415611e98576040517f08c379a000000000000000000000000000000000000000000000000000000000815260040180806020018281038252604581526020018061591c6045913960600191505060405180910390fd5b80600360006101000a81548173ffffffffffffffffffffffffffffffffffffffff021916908373ffffffffffffffffffffffffffffffffffffffff16021790555050565b600260009054906101000a900473ffffffffffffffffffffffffffffffffffffffff1673ffffffffffffffffffffffffffffffffffffffff166351cff8d9826040518263ffffffff167c0100000000000000000000000000000000000000000000000000000000028152600401808273ffffffffffffffffffffffffffffffffffffffff168152602001915050600060405180830381600087803b158015611f8357600080fd5b505af1158015611f97573d6000803e3d6000fd5b5050505050565b611fa661461f565b73ffffffffffffffffffffffffffffffffffffffff16611fc4614093565b73ffffffffffffffffffffffffffffffffffffffff161461204d576040517f08c379a00000000000000000000000000000000000000000000000000000000081526004018080602001828103825260208152602001807f4f776e61626c653a2063616c6c6572206973206e6f7420746865206f776e657281525060200191505060405180910390fd5b80600960006101000a81548160ff021916908360ff16021790555050565b612073615569565b600560008473ffffffffffffffffffffffffffffffffffffffff1673ffffffffffffffffffffffffffffffffffffffff16815260200190815260200160002060008381526020019081526020016000206040518060e00160405290816000820160009054906101000a900473ffffffffffffffffffffffffffffffffffffffff1673ffffffffffffffffffffffffffffffffffffffff1673ffffffffffffffffffffffffffffffffffffffff1681526020016001820154815260200160028201548152602001600382015481526020016004820154815260200160058201548152602001600682015481525050905060006001028160c001511415801561217f57506000816060015114155b6121d4576040517f08c379a000000000000000000000000000000000000000000000000000000000815260040180806020018281038252603b815260200180615789603b913960400191505060405180910390fd5b6121ef8160400151826060015161462790919063ffffffff16565b431015612247576040517f08c379a000000000000000000000000000000000000000000000000000000000815260040180806020018281038252602e815260200180615c08602e913960400191505060405180910390fd5b61224f6155bf565b600660008573ffffffffffffffffffffffffffffffffffffffff1673ffffffffffffffffffffffffffffffffffffffff16815260200190815260200160002060008481526020019081526020016000206040518060600160405290816000820160009054906101000a900473ffffffffffffffffffffffffffffffffffffffff1673ffffffffffffffffffffffffffffffffffffffff1673ffffffffffffffffffffffffffffffffffffffff1681526020016000820160149054906101000a900460ff1660ff1660ff16815260200160018201548152505090506040518060600160405280600073ffffffffffffffffffffffffffffffffffffffff168152602001600060ff1681526020016000815250600660008673ffffffffffffffffffffffffffffffffffffffff1673ffffffffffffffffffffffffffffffffffffffff168152602001908152602001600020600085815260200190815260200160002060008201518160000160006101000a81548173ffffffffffffffffffffffffffffffffffffffff021916908373ffffffffffffffffffffffffffffffffffffffff16021790555060208201518160000160146101000a81548160ff021916908360ff160217905550604082015181600101559050506040518060e00160405280600073ffffffffffffffffffffffffffffffffffffffff16815260200160008152602001600081526020016000815260200160008152602001600081526020016000600102815250600560008673ffffffffffffffffffffffffffffffffffffffff1673ffffffffffffffffffffffffffffffffffffffff168152602001908152602001600020600085815260200190815260200160002060008201518160000160006101000a81548173ffffffffffffffffffffffffffffffffffffffff021916908373ffffffffffffffffffffffffffffffffffffffff1602179055506020820151816001015560408201518160020155606082015181600301556080820151816004015560a0820151816005015560c082015181600601559050506000849050600073ffffffffffffffffffffffffffffffffffffffff16826000015173ffffffffffffffffffffffffffffffffffffffff1614156126e5578073ffffffffffffffffffffffffffffffffffffffff166323b872dd308560000151876040518463ffffffff167c0100000000000000000000000000000000000000000000000000000000028152600401808473ffffffffffffffffffffffffffffffffffffffff1681526020018373ffffffffffffffffffffffffffffffffffffffff1681526020018281526020019350505050600060405180830381600087803b15801561263b57600080fd5b505af115801561264f573d6000803e3d6000fd5b5050505083600073ffffffffffffffffffffffffffffffffffffffff168673ffffffffffffffffffffffffffffffffffffffff167fea6d16c6bfcad11577aef5cc6728231c9f069ac78393828f8ca96847405902a986600001516000604051808373ffffffffffffffffffffffffffffffffffffffff1681526020018281526020019250505060405180910390a4505050612cd9565b8073ffffffffffffffffffffffffffffffffffffffff166323b872dd308460000151876040518463ffffffff167c0100000000000000000000000000000000000000000000000000000000028152600401808473ffffffffffffffffffffffffffffffffffffffff1681526020018373ffffffffffffffffffffffffffffffffffffffff1681526020018281526020019350505050600060405180830381600087803b15801561279457600080fd5b505af11580156127a8573d6000803e3d6000fd5b5050505060006127be6127b9614093565b614c63565b9050612b728360400151600360009054906101000a900473ffffffffffffffffffffffffffffffffffffffff1673ffffffffffffffffffffffffffffffffffffffff1663511bc84c89896040518363ffffffff167c0100000000000000000000000000000000000000000000000000000000028152600401808373ffffffffffffffffffffffffffffffffffffffff1681526020018281526020019250505060206040518083038186803b15801561287557600080fd5b505afa158015612889573d6000803e3d6000fd5b505050506040513d602081101561289f57600080fd5b8101908080519060200190929190505050158560200151600460009054906101000a900473ffffffffffffffffffffffffffffffffffffffff1673ffffffffffffffffffffffffffffffffffffffff16637c0329f78b8b6040518363ffffffff167c0100000000000000000000000000000000000000000000000000000000028152600401808373ffffffffffffffffffffffffffffffffffffffff1681526020018281526020019250505060206040518083038186803b15801561296357600080fd5b505afa158015612977573d6000803e3d6000fd5b505050506040513d602081101561298d57600080fd5b8101908080519060200190929190505050600360009054906101000a900473ffffffffffffffffffffffffffffffffffffffff1673ffffffffffffffffffffffffffffffffffffffff1663b28a7bad8c6040518263ffffffff167c0100000000000000000000000000000000000000000000000000000000028152600401808273ffffffffffffffffffffffffffffffffffffffff16815260200191505060206040518083038186803b158015612a4357600080fd5b505afa158015612a57573d6000803e3d6000fd5b505050506040513d6020811015612a6d57600080fd5b8101908080519060200190929190505050896000015187600460009054906101000a900473ffffffffffffffffffffffffffffffffffffffff1673ffffffffffffffffffffffffffffffffffffffff1663b85ed7e48f8f6040518363ffffffff167c0100000000000000000000000000000000000000000000000000000000028152600401808373ffffffffffffffffffffffffffffffffffffffff1681526020018281526020019250505060206040518083038186803b158015612b3157600080fd5b505afa158015612b45573d6000803e3d6000fd5b505050506040513d6020811015612b5b57600080fd5b810190808051906020019092919050505089614c6d565b600360009054906101000a900473ffffffffffffffffffffffffffffffffffffffff1673ffffffffffffffffffffffffffffffffffffffff16635a3c652d878760016040518463ffffffff167c0100000000000000000000000000000000000000000000000000000000028152600401808473ffffffffffffffffffffffffffffffffffffffff16815260200183815260200182151581526020019350505050600060405180830381600087803b158015612c2c57600080fd5b505af1158015612c40573d6000803e3d6000fd5b5050505084836000015173ffffffffffffffffffffffffffffffffffffffff168773ffffffffffffffffffffffffffffffffffffffff167fea6d16c6bfcad11577aef5cc6728231c9f069ac78393828f8ca96847405902a987600001518760400151604051808373ffffffffffffffffffffffffffffffffffffffff1681526020018281526020019250505060405180910390a4505050505b5050565b600960009054906101000a900460ff1681565b612cf861461f565b73ffffffffffffffffffffffffffffffffffffffff16612d16614093565b73ffffffffffffffffffffffffffffffffffffffff1614612d9f576040517f08c379a00000000000000000000000000000000000000000000000000000000081526004018080602001828103825260208152602001807f4f776e61626c653a2063616c6c6572206973206e6f7420746865206f776e657281525060200191505060405180910390fd5b600073ffffffffffffffffffffffffffffffffffffffff1660008054906101000a900473ffffffffffffffffffffffffffffffffffffffff1673ffffffffffffffffffffffffffffffffffffffff167f8be0079c531659141344cd1fd0a4f28419497f9722a3daafe3b4186f6b6457e060405160405180910390a360008060006101000a81548173ffffffffffffffffffffffffffffffffffffffff021916908373ffffffffffffffffffffffffffffffffffffffff160217905550565b612e6784846146af565b612e718484615018565b600854811115612ecc576040517f08c379a000000000000000000000000000000000000000000000000000000000815260040180806020018281038252603e815260200180615c79603e913960400191505060405180910390fd5b6000600102600560008673ffffffffffffffffffffffffffffffffffffffff1673ffffffffffffffffffffffffffffffffffffffff1681526020019081526020016000206000858152602001908152602001600020600601541480612fd05750600560008573ffffffffffffffffffffffffffffffffffffffff1673ffffffffffffffffffffffffffffffffffffffff168152602001908152602001600020600084815260200190815260200160002060000160009054906101000a900473ffffffffffffffffffffffffffffffffffffffff1673ffffffffffffffffffffffffffffffffffffffff163373ffffffffffffffffffffffffffffffffffffffff1614155b613025576040517f08c379a000000000000000000000000000000000000000000000000000000000815260040180806020018281038252603281526020018061589f6032913960400191505060405180910390fd5b6000811161307e576040517f08c379a00000000000000000000000000000000000000000000000000000000081526004018080602001828103825260318152602001806159e46031913960400191505060405180910390fd5b60008210156130d8576040517f08c379a000000000000000000000000000000000000000000000000000000000815260040180806020018281038252602f81526020018061581a602f913960400191505060405180910390fd5b600360009054906101000a900473ffffffffffffffffffffffffffffffffffffffff1673ffffffffffffffffffffffffffffffffffffffff1663f9a23e866040518163ffffffff167c010000000000000000000000000000000000000000000000000000000002815260040160206040518083038186803b15801561315c57600080fd5b505afa158015613170573d6000803e3d6000fd5b505050506040513d602081101561318657600080fd5b81019080805190602001909291905050508211156131ef576040517f08c379a0000000000000000000000000000000000000000000000000000000008152600401808060200182810382526043815260200180615c366043913960600191505060405180910390fd5b6040518060e001604052803373ffffffffffffffffffffffffffffffffffffffff16815260200143815260200182815260200160008152602001838152602001600081526020017f434f4c4449455f41554354494f4e000000000000000000000000000000000000815250600560008673ffffffffffffffffffffffffffffffffffffffff1673ffffffffffffffffffffffffffffffffffffffff168152602001908152602001600020600085815260200190815260200160002060008201518160000160006101000a81548173ffffffffffffffffffffffffffffffffffffffff021916908373ffffffffffffffffffffffffffffffffffffffff1602179055506020820151816001015560408201518160020155606082015181600301556080820151816004015560a0820151816005015560c082015181600601559050503373ffffffffffffffffffffffffffffffffffffffff16838573ffffffffffffffffffffffffffffffffffffffff167f51d3615735f04b7ff33bfd9f5eb857d899bf9b848d3858cba7db855bc69fb9148585604051808381526020018281526020019250505060405180910390a450505050565b600082116133fd576040517f08c379a000000000000000000000000000000000000000000000000000000000815260040180806020018281038252603f815260200180615a44603f913960400191505060405180910390fd5b600854821115613458576040517f08c379a00000000000000000000000000000000000000000000000000000000081526004018080602001828103825260418152602001806159616041913960600191505060405180910390fd5b4381116134b0576040517f08c379a0000000000000000000000000000000000000000000000000000000008152600401808060200182810382526048815260200180615ad96048913960600191505060405180910390fd5b600360009054906101000a900473ffffffffffffffffffffffffffffffffffffffff1673ffffffffffffffffffffffffffffffffffffffff1663f9a23e866040518163ffffffff167c010000000000000000000000000000000000000000000000000000000002815260040160206040518083038186803b15801561353457600080fd5b505afa158015613548573d6000803e3d6000fd5b505050506040513d602081101561355e57600080fd5b81019080805190602001909291905050508311156135c7576040517f08c379a000000000000000000000000000000000000000000000000000000000815260040180806020018281038252604481526020018061571f6044913960600191505060405180910390fd5b6135d185856146af565b6135db8585615018565b6000600102600560008773ffffffffffffffffffffffffffffffffffffffff1673ffffffffffffffffffffffffffffffffffffffff16815260200190815260200160002060008681526020019081526020016000206006015414806136df5750600560008673ffffffffffffffffffffffffffffffffffffffff1673ffffffffffffffffffffffffffffffffffffffff168152602001908152602001600020600085815260200190815260200160002060000160009054906101000a900473ffffffffffffffffffffffffffffffffffffffff1673ffffffffffffffffffffffffffffffffffffffff163373ffffffffffffffffffffffffffffffffffffffff1614155b613734576040517f08c379a0000000000000000000000000000000000000000000000000000000008152600401808060200182810382526035815260200180615a836035913960400191505060405180910390fd5b6040518060e001604052803373ffffffffffffffffffffffffffffffffffffffff168152602001438152602001838152602001828152602001600081526020018481526020017f5343484544554c45445f41554354494f4e000000000000000000000000000000815250600560008773ffffffffffffffffffffffffffffffffffffffff1673ffffffffffffffffffffffffffffffffffffffff168152602001908152602001600020600086815260200190815260200160002060008201518160000160006101000a81548173ffffffffffffffffffffffffffffffffffffffff021916908373ffffffffffffffffffffffffffffffffffffffff1602179055506020820151816001015560408201518160020155606082015181600301556080820151816004015560a0820151816005015560c0820151816006015590505060008590508073ffffffffffffffffffffffffffffffffffffffff166323b872dd3330886040518463ffffffff167c0100000000000000000000000000000000000000000000000000000000028152600401808473ffffffffffffffffffffffffffffffffffffffff1681526020018373ffffffffffffffffffffffffffffffffffffffff1681526020018281526020019350505050600060405180830381600087803b15801561392457600080fd5b505af1158015613938573d6000803e3d6000fd5b505050503373ffffffffffffffffffffffffffffffffffffffff16858773ffffffffffffffffffffffffffffffffffffffff167f97ef537a4a14d8899c80db7b0665dac266da778443e37e073ec2a11ec62bea5b85888860405180848152602001838152602001828152602001935050505060405180910390a4505050505050565b6000600102600560008473ffffffffffffffffffffffffffffffffffffffff1673ffffffffffffffffffffffffffffffffffffffff1681526020019081526020016000206000838152602001908152602001600020600601541415613a6a576040517f08c379a000000000000000000000000000000000000000000000000000000000815260040180806020018281038252602a8152602001806156f5602a913960400191505060405180910390fd5b6000600560008473ffffffffffffffffffffffffffffffffffffffff1673ffffffffffffffffffffffffffffffffffffffff1681526020019081526020016000206000838152602001908152602001600020600301541480613b1e575043600560008473ffffffffffffffffffffffffffffffffffffffff1673ffffffffffffffffffffffffffffffffffffffff168152602001908152602001600020600083815260200190815260200160002060030154115b613b73576040517f08c379a0000000000000000000000000000000000000000000000000000000008152600401808060200182810382526028815260200180615b216028913960400191505060405180910390fd5b3373ffffffffffffffffffffffffffffffffffffffff16600560008473ffffffffffffffffffffffffffffffffffffffff1673ffffffffffffffffffffffffffffffffffffffff168152602001908152602001600020600083815260200190815260200160002060000160009054906101000a900473ffffffffffffffffffffffffffffffffffffffff1673ffffffffffffffffffffffffffffffffffffffff1614613c6a576040517f08c379a0000000000000000000000000000000000000000000000000000000008152600401808060200182810382526031815260200180615b496031913960400191505060405180910390fd5b613c72615569565b600560008473ffffffffffffffffffffffffffffffffffffffff1673ffffffffffffffffffffffffffffffffffffffff16815260200190815260200160002060008381526020019081526020016000206040518060e00160405290816000820160009054906101000a900473ffffffffffffffffffffffffffffffffffffffff1673ffffffffffffffffffffffffffffffffffffffff1673ffffffffffffffffffffffffffffffffffffffff168152602001600182015481526020016002820154815260200160038201548152602001600482015481526020016005820154815260200160068201548152505090506040518060e00160405280600073ffffffffffffffffffffffffffffffffffffffff16815260200160008152602001600081526020016000815260200160008152602001600081526020016000600102815250600560008573ffffffffffffffffffffffffffffffffffffffff1673ffffffffffffffffffffffffffffffffffffffff168152602001908152602001600020600084815260200190815260200160002060008201518160000160006101000a81548173ffffffffffffffffffffffffffffffffffffffff021916908373ffffffffffffffffffffffffffffffffffffffff1602179055506020820151816001015560408201518160020155606082015181600301556080820151816004015560a0820151816005015560c0820151816006015590505060008390503073ffffffffffffffffffffffffffffffffffffffff168173ffffffffffffffffffffffffffffffffffffffff16636352211e856040518263ffffffff167c01000000000000000000000000000000000000000000000000000000000281526004018082815260200191505060206040518083038186803b158015613f1357600080fd5b505afa158015613f27573d6000803e3d6000fd5b505050506040513d6020811015613f3d57600080fd5b810190808051906020019092919050505073ffffffffffffffffffffffffffffffffffffffff16141561402e578073ffffffffffffffffffffffffffffffffffffffff166323b872dd3033866040518463ffffffff167c0100000000000000000000000000000000000000000000000000000000028152600401808473ffffffffffffffffffffffffffffffffffffffff1681526020018373ffffffffffffffffffffffffffffffffffffffff1681526020018281526020019350505050600060405180830381600087803b15801561401557600080fd5b505af1158015614029573d6000803e3d6000fd5b505050505b816000015173ffffffffffffffffffffffffffffffffffffffff16838573ffffffffffffffffffffffffffffffffffffffff167f26d4510b556e779d6507640413e013206e44c8f5d018c7c74ed8926f3f024a9c60405160405180910390a450505050565b60008060009054906101000a900473ffffffffffffffffffffffffffffffffffffffff16905090565b600360009054906101000a900473ffffffffffffffffffffffffffffffffffffffff1681565b7f5343484544554c45445f41554354494f4e00000000000000000000000000000081565b7f434f4c4449455f41554354494f4e00000000000000000000000000000000000081565b600460009054906101000a900473ffffffffffffffffffffffffffffffffffffffff1681565b60085481565b60075481565b61416461461f565b73ffffffffffffffffffffffffffffffffffffffff16614182614093565b73ffffffffffffffffffffffffffffffffffffffff161461420b576040517f08c379a00000000000000000000000000000000000000000000000000000000081526004018080602001828103825260208152602001807f4f776e61626c653a2063616c6c6572206973206e6f7420746865206f776e657281525060200191505060405180910390fd5b60008111614264576040517f08c379a000000000000000000000000000000000000000000000000000000000815260040180806020018281038252602f815260200180615a15602f913960400191505060405180910390fd5b8060088190555050565b6000600260009054906101000a900473ffffffffffffffffffffffffffffffffffffffff1673ffffffffffffffffffffffffffffffffffffffff1663e3a9db1a836040518263ffffffff167c0100000000000000000000000000000000000000000000000000000000028152600401808273ffffffffffffffffffffffffffffffffffffffff16815260200191505060206040518083038186803b15801561431557600080fd5b505afa158015614329573d6000803e3d6000fd5b505050506040513d602081101561433f57600080fd5b81019080805190602001909291905050509050919050565b600080600660008573ffffffffffffffffffffffffffffffffffffffff1673ffffffffffffffffffffffffffffffffffffffff168152602001908152602001600020600084815260200190815260200160002060000160009054906101000a900473ffffffffffffffffffffffffffffffffffffffff16600660008673ffffffffffffffffffffffffffffffffffffffff1673ffffffffffffffffffffffffffffffffffffffff168152602001908152602001600020600085815260200190815260200160002060010154915091509250929050565b61443561461f565b73ffffffffffffffffffffffffffffffffffffffff16614453614093565b73ffffffffffffffffffffffffffffffffffffffff16146144dc576040517f08c379a00000000000000000000000000000000000000000000000000000000081526004018080602001828103825260208152602001807f4f776e61626c653a2063616c6c6572206973206e6f7420746865206f776e657281525060200191505060405180910390fd5b600073ffffffffffffffffffffffffffffffffffffffff168173ffffffffffffffffffffffffffffffffffffffff161415614562576040517f08c379a00000000000000000000000000000000000000000000000000000000081526004018080602001828103825260268152602001806157636026913960400191505060405180910390fd5b8073ffffffffffffffffffffffffffffffffffffffff1660008054906101000a900473ffffffffffffffffffffffffffffffffffffffff1673ffffffffffffffffffffffffffffffffffffffff167f8be0079c531659141344cd1fd0a4f28419497f9722a3daafe3b4186f6b6457e060405160405180910390a3806000806101000a81548173ffffffffffffffffffffffffffffffffffffffff021916908373ffffffffffffffffffffffffffffffffffffffff16021790555050565b600033905090565b6000808284019050838110156146a5576040517f08c379a000000000000000000000000000000000000000000000000000000000815260040180806020018281038252601b8152602001807f536166654d6174683a206164646974696f6e206f766572666c6f77000000000081525060200191505060405180910390fd5b8091505092915050565b600082905060008173ffffffffffffffffffffffffffffffffffffffff16636352211e846040518263ffffffff167c01000000000000000000000000000000000000000000000000000000000281526004018082815260200191505060206040518083038186803b15801561472357600080fd5b505afa158015614737573d6000803e3d6000fd5b505050506040513d602081101561474d57600080fd5b810190808051906020019092919050505090508173ffffffffffffffffffffffffffffffffffffffff1663e985e9c582306040518363ffffffff167c0100000000000000000000000000000000000000000000000000000000028152600401808373ffffffffffffffffffffffffffffffffffffffff1681526020018273ffffffffffffffffffffffffffffffffffffffff1681526020019250505060206040518083038186803b15801561480157600080fd5b505afa158015614815573d6000803e3d6000fd5b505050506040513d602081101561482b57600080fd5b8101908080519060200190929190505050614891576040517f08c379a00000000000000000000000000000000000000000000000000000000081526004018080602001828103825260218152602001806159c36021913960400191505060405180910390fd5b50505050565b6000808314156148aa5760009050614917565b60008284029050828482816148bb57fe5b0414614912576040517f08c379a00000000000000000000000000000000000000000000000000000000081526004018080602001828103825260218152602001806159a26021913960400191505060405180910390fd5b809150505b92915050565b6000808211614994576040517f08c379a000000000000000000000000000000000000000000000000000000000815260040180806020018281038252601a8152602001807f536166654d6174683a206469766973696f6e206279207a65726f00000000000081525060200191505060405180910390fd5b81838161499d57fe5b04905092915050565b6149ae6155bf565b600660008473ffffffffffffffffffffffffffffffffffffffff1673ffffffffffffffffffffffffffffffffffffffff16815260200190815260200160002060008381526020019081526020016000206040518060600160405290816000820160009054906101000a900473ffffffffffffffffffffffffffffffffffffffff1673ffffffffffffffffffffffffffffffffffffffff1673ffffffffffffffffffffffffffffffffffffffff1681526020016000820160149054906101000a900460ff1660ff1660ff1681526020016001820154815250509050600073ffffffffffffffffffffffffffffffffffffffff16816000015173ffffffffffffffffffffffffffffffffffffffff161415614ac75750614bdc565b6040518060600160405280600073ffffffffffffffffffffffffffffffffffffffff168152602001600060ff1681526020016000815250600660008573ffffffffffffffffffffffffffffffffffffffff1673ffffffffffffffffffffffffffffffffffffffff168152602001908152602001600020600084815260200190815260200160002060008201518160000160006101000a81548173ffffffffffffffffffffffffffffffffffffffff021916908373ffffffffffffffffffffffffffffffffffffffff16021790555060208201518160000160146101000a81548160ff021916908360ff16021790555060408201518160010155905050614bda816020015182600001518360400151615170565b505b5050565b600082821115614c58576040517f08c379a000000000000000000000000000000000000000000000000000000000815260040180806020018281038252601e8152602001807f536166654d6174683a207375627472616374696f6e206f766572666c6f77000081525060200191505060405180910390fd5b818303905092915050565b6000819050919050565b60648760ff161115614cca576040517f08c379a00000000000000000000000000000000000000000000000000000000081526004018080602001828103825260328152602001806158496032913960400191505060405180910390fd5b6064614ce58660ff168860ff1661462790919063ffffffff16565b1115614d3c576040517f08c379a00000000000000000000000000000000000000000000000000000000081526004018080602001828103825260288152602001806158f46028913960400191505060405180910390fd5b600073ffffffffffffffffffffffffffffffffffffffff168473ffffffffffffffffffffffffffffffffffffffff1614158015614da65750600073ffffffffffffffffffffffffffffffffffffffff168173ffffffffffffffffffffffffffffffffffffffff1614155b8015614ddf5750600073ffffffffffffffffffffffffffffffffffffffff168373ffffffffffffffffffffffffffffffffffffffff1614155b8015614e185750600073ffffffffffffffffffffffffffffffffffffffff168273ffffffffffffffffffffffffffffffffffffffff1614155b614e6d576040517f08c379a00000000000000000000000000000000000000000000000000000000081526004018080602001828103825260298152602001806156696029913960400191505060405180910390fd5b614e756155f9565b614e7f8a8961522a565b81600060048110614e8c57fe5b602002018181525050614ea0898b8961525d565b81600160048110614ead57fe5b602002018181525050614ec1898b88615282565b81600260048110614ece57fe5b602002018181525050614f1e81600260048110614ee757fe5b6020020151614f1083600160048110614efc57fe5b60200201518d614be090919063ffffffff16565b614be090919063ffffffff16565b81600360048110614f2b57fe5b602002018181525050600081600060048110614f4357fe5b60200201511115614f6a57614f698482600060048110614f5f57fe5b60200201516152a7565b5b600081600160048110614f7957fe5b60200201511115614fa057614f9f8382600160048110614f9557fe5b60200201516152a7565b5b600081600260048110614faf57fe5b60200201511115614fd657614fd58282600260048110614fcb57fe5b60200201516152a7565b5b600081600360048110614fe557fe5b6020020151111561500c5761500b858260036004811061500157fe5b60200201516152a7565b5b50505050505050505050565b600082905060008173ffffffffffffffffffffffffffffffffffffffff16636352211e846040518263ffffffff167c01000000000000000000000000000000000000000000000000000000000281526004018082815260200191505060206040518083038186803b15801561508c57600080fd5b505afa1580156150a0573d6000803e3d6000fd5b505050506040513d60208110156150b657600080fd5b810190808051906020019092919050505090503373ffffffffffffffffffffffffffffffffffffffff168173ffffffffffffffffffffffffffffffffffffffff161461516a576040517f08c379a000000000000000000000000000000000000000000000000000000000815260040180806020018281038252601c8152602001807f6f776e6572206d757374206265206d6573736167652073656e6465720000000081525060200191505060405180910390fd5b50505050565b600073ffffffffffffffffffffffffffffffffffffffff168273ffffffffffffffffffffffffffffffffffffffff1614156151f6576040517f08c379a00000000000000000000000000000000000000000000000000000000081526004018080602001828103825260298152602001806156cc6029913960400191505060405180910390fd5b6000811115615225576152248261521f615210848761522a565b8461462790919063ffffffff16565b6152a7565b5b505050565b600061525560646152478460ff168661489790919063ffffffff16565b61491d90919063ffffffff16565b905092915050565b6000831561526e576000905061527b565b615278838361522a565b90505b9392505050565b6000831561529b57615294838361522a565b90506152a0565b600090505b9392505050565b60006152b38383615318565b9050806152c5576152c483836154a5565b5b8273ffffffffffffffffffffffffffffffffffffffff167fd88d14434dd4c47d8cd227a931f475ddfaa46a219994f6c5094bd04d940c3c1b836040518082815260200191505060405180910390a2505050565b6000806060600160009054906101000a900473ffffffffffffffffffffffffffffffffffffffff1673ffffffffffffffffffffffffffffffffffffffff168486604051602401808273ffffffffffffffffffffffffffffffffffffffff1681526020019150506040516020818303038152906040527f7d286e48000000000000000000000000000000000000000000000000000000007bffffffffffffffffffffffffffffffffffffffffffffffffffffffff19166020820180517bffffffffffffffffffffffffffffffffffffffffffffffffffffffff83818316178352505050506040518082805190602001908083835b6020831061542e578051825260208201915060208101905060208303925061540b565b6001836020036101000a03801982511681845116808217855250505050505090500191505060006040518083038185875af1925050503d8060008114615490576040519150601f19603f3d011682016040523d82523d6000602084013e615495565b606091505b5091509150819250505092915050565b600260009054906101000a900473ffffffffffffffffffffffffffffffffffffffff1673ffffffffffffffffffffffffffffffffffffffff1663f340fa0182846040518363ffffffff167c0100000000000000000000000000000000000000000000000000000000028152600401808273ffffffffffffffffffffffffffffffffffffffff1681526020019150506000604051808303818588803b15801561554c57600080fd5b505af1158015615560573d6000803e3d6000fd5b50505050505050565b6040518060e00160405280600073ffffffffffffffffffffffffffffffffffffffff1681526020016000815260200160008152602001600081526020016000815260200160008152602001600080191681525090565b6040518060600160405280600073ffffffffffffffffffffffffffffffffffffffff168152602001600060ff168152602001600081525090565b604051806080016040528060049060208202803683378082019150509050509056fe7365744945524337323143726561746f72526f79616c74793a3a43616e6e6f742068617665206e756c6c206164647265737320666f72205f6945524337323143726561746f72526f79616c74797061796f75743a3a6e6f207061796565732063616e20626520746865207a65726f20616464726573736269643a3a4d757374206861766520612072756e6e696e672061756374696f6e206f722070656e64696e6720636f6c6469652061756374696f6e726566756e643a3a6e6f207061796565732063616e20626520746865207a65726f206164647265737363616e63656c41756374696f6e3a3a4d757374206861766520612063757272656e742061756374696f6e6372656174655363686564756c656441756374696f6e3a3a43616e6e6f7420736574206d696e696d756d2062696420686967686572207468616e206d61782076616c75654f776e61626c653a206e6577206f776e657220697320746865207a65726f2061646472657373736574746c6541756374696f6e3a3a4d757374206861766520612063757272656e742061756374696f6e20746861742068617320737461727465646269643a3a43616e6e6f7420626964206c6f776572207468616e2072657365727665206f72206d696e696d756d206269646269643a3a43616e6e6f742062696420686967686572207468616e206d61782076616c7565637265617465436f6c64696541756374696f6e3a3a5f726573657276655072696365206d757374206265203e3d20307061796f75743a3a6d61726b6574706c6163652070657263656e746167652063616e6e6f742062652061626f7665203130306269643a3a43616e6e6f7420626964206c6f776572207468616e206d696e2076616c7565637265617465436f6c64696541756374696f6e3a3a43616e6e6f74206861766520612063757272656e742061756374696f6e6269643a3a43616e6e6f7420626964206f6e20796f7572206f776e2061756374696f6e7061796f75743a3a70657263656e74616765732063616e6e6f7420676f206265796f6e64203130307365744d61726b6574706c61636553657474696e67733a3a43616e6e6f742068617665206e756c6c206164647265737320666f72205f694d61726b657453657474696e67736372656174655363686564756c656441756374696f6e3a3a43616e6e6f7420686176652061756374696f6e206c6f6e676572207468616e206d61784c656e677468536166654d6174683a206d756c7469706c69636174696f6e206f766572666c6f776f776e6572206d757374206861766520617070726f76656420636f6e7472616374637265617465436f6c64696541756374696f6e3a3a5f6c656e6774684f6641756374696f6e206d757374206265203e20307365744d61784c656e6774683a3a5f6d61784c656e677468206d7573742062652067726561746572207468616e20306372656174655363686564756c656441756374696f6e3a3a5f6c656e6774684f6641756374696f6e206d7573742062652067726561746572207468616e20306372656174655363686564756c656441756374696f6e3a3a43616e6e6f74206861766520612063757272656e742061756374696f6e6269643a3a4d757374206269642074686520636f727265637420616d6f756e742e6372656174655363686564756c656441756374696f6e3a3a5f7374617274696e67426c6f636b206d7573742062652067726561746572207468616e20626c6f636b2e6e756d62657263616e63656c41756374696f6e3a3a61756374696f6e2063616e6e6f74206265207374617274656463616e63656c41756374696f6e3a3a6d757374206265207468652063726561746f72206f66207468652061756374696f6e73657441756374696f6e4c656e677468457874656e73696f6e3a3a5f61756374696f6e4c656e677468457874656e73696f6e206d7573742062652067726561746572207468616e20306269643a3a6d7573742062696420686967686572207468616e2070726576696f757320626964202b206d696e696d756d2070657263656e7461676520696e6372656173652e736574746c6541756374696f6e3a3a43616e206f6e6c7920736574746c6520656e6465642061756374696f6e732e637265617465436f6c64696541756374696f6e3a3a43616e6e6f7420736574207265736572766520707269636520686967686572207468616e206d61782076616c7565637265617465436f6c64696541756374696f6e3a3a43616e6e6f7420686176652061756374696f6e206c6f6e676572207468616e206d61784c656e6774686269643a3a43616e6e6f7420626964206f6e2061756374696f6e2069662061756374696f6e2063726561746f72206973206e6f206c6f6e676572206f776e65722ea26469706673582212206fa4d9cb69d345018be43f7c23db0d9c999ec2a10db4b8cca7d20f5b3901909b64736f6c634300060c0033608060405234801561001057600080fd5b5060fe8061001f6000396000f3fe6080604052600436106039576000357c0100000000000000000000000000000000000000000000000000000000900480637d286e4814603e575b600080fd5b607d60048036036020811015605257600080fd5b81019080803573ffffffffffffffffffffffffffffffffffffffff169060200190929190505050607f565b005b8073ffffffffffffffffffffffffffffffffffffffff166108fc349081150290604051600060405180830381858888f1935050505015801560c4573d6000803e3d6000fd5b505056fea26469706673582212209c65a154c6772049e4db694667a1e294a94eeea80e3b01a69ad07b916d4cb36764736f6c634300060c0033608060405234801561001057600080fd5b50600061002a6100cd640100000000026401000000009004565b9050806000806101000a81548173ffffffffffffffffffffffffffffffffffffffff021916908373ffffffffffffffffffffffffffffffffffffffff1602179055508073ffffffffffffffffffffffffffffffffffffffff16600073ffffffffffffffffffffffffffffffffffffffff167f8be0079c531659141344cd1fd0a4f28419497f9722a3daafe3b4186f6b6457e060405160405180910390a3506100d5565b600033905090565b610bb0806100e46000396000f3fe608060405260043610610072576000357c01000000000000000000000000000000000000000000000000000000009004806351cff8d914610077578063715018a6146100c85780638da5cb5b146100df578063e3a9db1a14610120578063f2fde38b14610185578063f340fa01146101d6575b600080fd5b34801561008357600080fd5b506100c66004803603602081101561009a57600080fd5b81019080803573ffffffffffffffffffffffffffffffffffffffff16906020019092919050505061021a565b005b3480156100d457600080fd5b506100dd6103cd565b005b3480156100eb57600080fd5b506100f461053a565b604051808273ffffffffffffffffffffffffffffffffffffffff16815260200191505060405180910390f35b34801561012c57600080fd5b5061016f6004803603602081101561014357600080fd5b81019080803573ffffffffffffffffffffffffffffffffffffffff169060200190929190505050610563565b6040518082815260200191505060405180910390f35b34801561019157600080fd5b506101d4600480360360208110156101a857600080fd5b81019080803573ffffffffffffffffffffffffffffffffffffffff1690602001909291905050506105ac565b005b610218600480360360208110156101ec57600080fd5b81019080803573ffffffffffffffffffffffffffffffffffffffff16906020019092919050505061079e565b005b610222610939565b73ffffffffffffffffffffffffffffffffffffffff1661024061053a565b73ffffffffffffffffffffffffffffffffffffffff16146102c9576040517f08c379a00000000000000000000000000000000000000000000000000000000081526004018080602001828103825260208152602001807f4f776e61626c653a2063616c6c6572206973206e6f7420746865206f776e657281525060200191505060405180910390fd5b6000600160008373ffffffffffffffffffffffffffffffffffffffff1673ffffffffffffffffffffffffffffffffffffffff1681526020019081526020016000205490506000600160008473ffffffffffffffffffffffffffffffffffffffff1673ffffffffffffffffffffffffffffffffffffffff1681526020019081526020016000208190555061037b818373ffffffffffffffffffffffffffffffffffffffff1661094190919063ffffffff16565b8173ffffffffffffffffffffffffffffffffffffffff167f7084f5476618d8e60b11ef0d7d3f06914655adb8793e28ff7f018d4c76d505d5826040518082815260200191505060405180910390a25050565b6103d5610939565b73ffffffffffffffffffffffffffffffffffffffff166103f361053a565b73ffffffffffffffffffffffffffffffffffffffff161461047c576040517f08c379a00000000000000000000000000000000000000000000000000000000081526004018080602001828103825260208152602001807f4f776e61626c653a2063616c6c6572206973206e6f7420746865206f776e657281525060200191505060405180910390fd5b600073ffffffffffffffffffffffffffffffffffffffff1660008054906101000a900473ffffffffffffffffffffffffffffffffffffffff1673ffffffffffffffffffffffffffffffffffffffff167f8be0079c531659141344cd1fd0a4f28419497f9722a3daafe3b4186f6b6457e060405160405180910390a360008060006101000a81548173ffffffffffffffffffffffffffffffffffffffff021916908373ffffffffffffffffffffffffffffffffffffffff160217905550565b60008060009054906101000a900473ffffffffffffffffffffffffffffffffffffffff16905090565b6000600160008373ffffffffffffffffffffffffffffffffffffffff1673ffffffffffffffffffffffffffffffffffffffff168152602001908152602001600020549050919050565b6105b4610939565b73ffffffffffffffffffffffffffffffffffffffff166105d261053a565b73ffffffffffffffffffffffffffffffffffffffff161461065b576040517f08c379a00000000000000000000000000000000000000000000000000000000081526004018080602001828103825260208152602001807f4f776e61626c653a2063616c6c6572206973206e6f7420746865206f776e657281525060200191505060405180910390fd5b600073ffffffffffffffffffffffffffffffffffffffff168173ffffffffffffffffffffffffffffffffffffffff1614156106e1576040517f08c379a0000000000000000000000000000000000000000000000000000000008152600401808060200182810382526026815260200180610b1b6026913960400191505060405180910390fd5b8073ffffffffffffffffffffffffffffffffffffffff1660008054906101000a900473ffffffffffffffffffffffffffffffffffffffff1673ffffffffffffffffffffffffffffffffffffffff167f8be0079c531659141344cd1fd0a4f28419497f9722a3daafe3b4186f6b6457e060405160405180910390a3806000806101000a81548173ffffffffffffffffffffffffffffffffffffffff021916908373ffffffffffffffffffffffffffffffffffffffff16021790555050565b6107a6610939565b73ffffffffffffffffffffffffffffffffffffffff166107c461053a565b73ffffffffffffffffffffffffffffffffffffffff161461084d576040517f08c379a00000000000000000000000000000000000000000000000000000000081526004018080602001828103825260208152602001807f4f776e61626c653a2063616c6c6572206973206e6f7420746865206f776e657281525060200191505060405180910390fd5b60003490506108a481600160008573ffffffffffffffffffffffffffffffffffffffff1673ffffffffffffffffffffffffffffffffffffffff16815260200190815260200160002054610a9290919063ffffffff16565b600160008473ffffffffffffffffffffffffffffffffffffffff1673ffffffffffffffffffffffffffffffffffffffff168152602001908152602001600020819055508173ffffffffffffffffffffffffffffffffffffffff167f2da466a7b24304f47e87fa2e1e5a81b9831ce54fec19055ce277ca2f39ba42c4826040518082815260200191505060405180910390a25050565b600033905090565b803073ffffffffffffffffffffffffffffffffffffffff163110156109ce576040517f08c379a000000000000000000000000000000000000000000000000000000000815260040180806020018281038252601d8152602001807f416464726573733a20696e73756666696369656e742062616c616e636500000081525060200191505060405180910390fd5b60008273ffffffffffffffffffffffffffffffffffffffff168260405180600001905060006040518083038185875af1925050503d8060008114610a2e576040519150601f19603f3d011682016040523d82523d6000602084013e610a33565b606091505b5050905080610a8d576040517f08c379a000000000000000000000000000000000000000000000000000000000815260040180806020018281038252603a815260200180610b41603a913960400191505060405180910390fd5b505050565b600080828401905083811015610b10576040517f08c379a000000000000000000000000000000000000000000000000000000000815260040180806020018281038252601b8152602001807f536166654d6174683a206164646974696f6e206f766572666c6f77000000000081525060200191505060405180910390fd5b809150509291505056fe4f776e61626c653a206e6577206f776e657220697320746865207a65726f2061646472657373416464726573733a20756e61626c6520746f2073656e642076616c75652c20726563697069656e74206d61792068617665207265766572746564a26469706673582212208234627d80f3147bbb31293043d7d58305eec2bbdac731b64fffcc7d00d0c42f64736f6c634300060c0033636f6e7374727563746f723a3a43616e6e6f742068617665206e756c6c206164647265737320666f72205f6945524337323143726561746f72526f79616c7479636f6e7374727563746f723a3a43616e6e6f742068617665206e756c6c206164647265737320666f72205f694d61726b657453657474696e6773",
  "immutableReferences": {},
  "source": "// SPDX-License-Identifier: MIT\npragma solidity 0.6.12;\n\nimport \"@openzeppelin/contracts/token/ERC721/IERC721.sol\";\nimport \"@openzeppelin/contracts/math/SafeMath.sol\";\nimport \"@openzeppelin/contracts/access/Ownable.sol\";\nimport \"./IERC721CreatorRoyalty.sol\";\nimport \"./Marketplace/IMarketplaceSettings.sol\";\nimport \"./Payments.sol\";\n\ncontract SuperRareAuctionHouse is Ownable, Payments {\n    using SafeMath for uint256;\n\n    /////////////////////////////////////////////////////////////////////////\n    // Constants\n    /////////////////////////////////////////////////////////////////////////\n\n    // Types of Auctions\n    bytes32 public constant COLDIE_AUCTION = \"COLDIE_AUCTION\";\n    bytes32 public constant SCHEDULED_AUCTION = \"SCHEDULED_AUCTION\";\n    bytes32 public constant NO_AUCTION = bytes32(0);\n\n    /////////////////////////////////////////////////////////////////////////\n    // Structs\n    /////////////////////////////////////////////////////////////////////////\n    // A reserve auction.\n    struct Auction {\n        address payable auctionCreator;\n        uint256 creationBlock;\n        uint256 lengthOfAuction;\n        uint256 startingBlock;\n        uint256 reservePrice;\n        uint256 minimumBid;\n        bytes32 auctionType;\n    }\n\n    // The active bid for a given token, contains the bidder, the marketplace fee at the time of the bid, and the amount of wei placed on the token\n    struct ActiveBid {\n        address payable bidder;\n        uint8 marketplaceFee;\n        uint256 amount;\n    }\n\n    /////////////////////////////////////////////////////////////////////////\n    // State Variables\n    /////////////////////////////////////////////////////////////////////////\n\n    // Marketplace Settings Interface\n    IMarketplaceSettings public iMarketSettings;\n\n    // Creator Royalty Interface\n    IERC721CreatorRoyalty public iERC721CreatorRoyalty;\n\n    // Mapping from ERC721 contract to mapping of tokenId to Auctions.\n    mapping(address => mapping(uint256 => Auction)) private auctions;\n\n    // Mapping of ERC721 contract to mapping of token ID to the current bid amount.\n    mapping(address => mapping(uint256 => ActiveBid)) private currentBids;\n\n    // Number of blocks to begin refreshing auction lengths\n    uint256 public auctionLengthExtension;\n\n    // Max Length that an auction can be\n    uint256 public maxLength;\n\n    // A minimum increase in bid amount when out bidding someone.\n    uint8 public minimumBidIncreasePercentage; // 10 = 10%\n    /////////////////////////////////////////////////////////////////////////\n    // Events\n    /////////////////////////////////////////////////////////////////////////\n    event NewColdieAuction(\n        address indexed _contractAddress,\n        uint256 indexed _tokenId,\n        address indexed _auctionCreator,\n        uint256 _reservePrice,\n        uint256 _lengthOfAuction\n    );\n\n    event CancelAuction(\n        address indexed _contractAddress,\n        uint256 indexed _tokenId,\n        address indexed _auctionCreator\n    );\n\n    event NewScheduledAuction(\n        address indexed _contractAddress,\n        uint256 indexed _tokenId,\n        address indexed _auctionCreator,\n        uint256 _startingBlock,\n        uint256 _minimumBid,\n        uint256 _lengthOfAuction\n    );\n\n    event AuctionBid(\n        address indexed _contractAddress,\n        address indexed _bidder,\n        uint256 indexed _tokenId,\n        uint256 _amount,\n        bool _startedAuction,\n        uint256 _newAuctionLength,\n        address _previousBidder\n    );\n\n    event AuctionSettled(\n        address indexed _contractAddress,\n        address indexed _bidder,\n        address _seller,\n        uint256 indexed _tokenId,\n        uint256 _amount\n    );\n\n    /////////////////////////////////////////////////////////////////////////\n    // Constructor\n    /////////////////////////////////////////////////////////////////////////\n    /**\n     * @dev Initializes the contract setting the market settings and creator royalty interfaces.\n     * @param _iMarketSettings address to set as iMarketSettings.\n     * @param _iERC721CreatorRoyalty address to set as iERC721CreatorRoyalty.\n     */\n    constructor(address _iMarketSettings, address _iERC721CreatorRoyalty)\n        public\n    {\n        maxLength = 43200; // ~ 7 days == 7 days * 24 hours * 3600s / 14s per block\n        auctionLengthExtension = 65; // ~ 15 min == 15 min * 60s / 14s per block\n\n        require(\n            _iMarketSettings != address(0),\n            \"constructor::Cannot have null address for _iMarketSettings\"\n        );\n\n        require(\n            _iERC721CreatorRoyalty != address(0),\n            \"constructor::Cannot have null address for _iERC721CreatorRoyalty\"\n        );\n\n        // Set iMarketSettings\n        iMarketSettings = IMarketplaceSettings(_iMarketSettings);\n\n        // Set iERC721CreatorRoyalty\n        iERC721CreatorRoyalty = IERC721CreatorRoyalty(_iERC721CreatorRoyalty);\n\n        minimumBidIncreasePercentage = 10;\n    }\n\n    /////////////////////////////////////////////////////////////////////////\n    // setIMarketplaceSettings\n    /////////////////////////////////////////////////////////////////////////\n    /**\n     * @dev Admin function to set the marketplace settings.\n     * Rules:\n     * - only owner\n     * - _address != address(0)\n     * @param _address address of the IMarketplaceSettings.\n     */\n    function setMarketplaceSettings(address _address) public onlyOwner {\n        require(\n            _address != address(0),\n            \"setMarketplaceSettings::Cannot have null address for _iMarketSettings\"\n        );\n\n        iMarketSettings = IMarketplaceSettings(_address);\n    }\n\n    /////////////////////////////////////////////////////////////////////////\n    // setIERC721CreatorRoyalty\n    /////////////////////////////////////////////////////////////////////////\n    /**\n     * @dev Admin function to set the IERC721CreatorRoyalty.\n     * Rules:\n     * - only owner\n     * - _address != address(0)\n     * @param _address address of the IERC721CreatorRoyalty.\n     */\n    function setIERC721CreatorRoyalty(address _address) public onlyOwner {\n        require(\n            _address != address(0),\n            \"setIERC721CreatorRoyalty::Cannot have null address for _iERC721CreatorRoyalty\"\n        );\n\n        iERC721CreatorRoyalty = IERC721CreatorRoyalty(_address);\n    }\n\n    /////////////////////////////////////////////////////////////////////////\n    // setMaxLength\n    /////////////////////////////////////////////////////////////////////////\n    /**\n     * @dev Admin function to set the maxLength of an auction.\n     * Rules:\n     * - only owner\n     * - _maxLangth > 0\n     * @param _maxLength uint256 max length of an auction.\n     */\n    function setMaxLength(uint256 _maxLength) public onlyOwner {\n        require(\n            _maxLength > 0,\n            \"setMaxLength::_maxLength must be greater than 0\"\n        );\n\n        maxLength = _maxLength;\n    }\n\n    /////////////////////////////////////////////////////////////////////////\n    // setMinimumBidIncreasePercentage\n    /////////////////////////////////////////////////////////////////////////\n    /**\n     * @dev Admin function to set the minimum bid increase percentage.\n     * Rules:\n     * - only owner\n     * @param _percentage uint8 to set as the new percentage.\n     */\n    function setMinimumBidIncreasePercentage(uint8 _percentage)\n        public\n        onlyOwner\n    {\n        minimumBidIncreasePercentage = _percentage;\n    }\n\n    /////////////////////////////////////////////////////////////////////////\n    // setAuctionLengthExtension\n    /////////////////////////////////////////////////////////////////////////\n    /**\n     * @dev Admin function to set the auctionLengthExtension of an auction.\n     * Rules:\n     * - only owner\n     * - _auctionLengthExtension > 0\n     * @param _auctionLengthExtension uint256 max length of an auction.\n     */\n    function setAuctionLengthExtension(uint256 _auctionLengthExtension)\n        public\n        onlyOwner\n    {\n        require(\n            _auctionLengthExtension > 0,\n            \"setAuctionLengthExtension::_auctionLengthExtension must be greater than 0\"\n        );\n\n        auctionLengthExtension = _auctionLengthExtension;\n    }\n\n    /////////////////////////////////////////////////////////////////////////\n    // createColdieAuction\n    /////////////////////////////////////////////////////////////////////////\n    /**\n     * @dev create a reserve auction token contract address, token id, price\n     * Rules:\n     * - Cannot create an auction if contract isn't approved by owner\n     * - lengthOfAuction (in blocks) > 0\n     * - lengthOfAuction (in blocks) <= maxLength\n     * - Reserve price must be >= 0\n     * - Must be owner of the token\n     * - Cannot have a current auction going\n     * @param _contractAddress address of ERC721 contract.\n     * @param _tokenId uint256 id of the token.\n     * @param _reservePrice uint256 Wei value of the reserve price.\n     * @param _lengthOfAuction uint256 length of auction in blocks.\n     */\n    function createColdieAuction(\n        address _contractAddress,\n        uint256 _tokenId,\n        uint256 _reservePrice,\n        uint256 _lengthOfAuction\n    ) public {\n        // Rules\n        _requireOwnerApproval(_contractAddress, _tokenId);\n        _requireOwnerAsSender(_contractAddress, _tokenId);\n        require(\n            _lengthOfAuction <= maxLength,\n            \"createColdieAuction::Cannot have auction longer than maxLength\"\n        );\n        require(\n            auctions[_contractAddress][_tokenId].auctionType == NO_AUCTION ||\n                (msg.sender !=\n                    auctions[_contractAddress][_tokenId].auctionCreator),\n            \"createColdieAuction::Cannot have a current auction\"\n        );\n        require(\n            _lengthOfAuction > 0,\n            \"createColdieAuction::_lengthOfAuction must be > 0\"\n        );\n        require(\n            _reservePrice >= 0,\n            \"createColdieAuction::_reservePrice must be >= 0\"\n        );\n        require(\n            _reservePrice <= iMarketSettings.getMarketplaceMaxValue(),\n            \"createColdieAuction::Cannot set reserve price higher than max value\"\n        );\n\n        // Create the auction\n        auctions[_contractAddress][_tokenId] = Auction(\n            msg.sender,\n            block.number,\n            _lengthOfAuction,\n            0,\n            _reservePrice,\n            0,\n            COLDIE_AUCTION\n        );\n\n        emit NewColdieAuction(\n            _contractAddress,\n            _tokenId,\n            msg.sender,\n            _reservePrice,\n            _lengthOfAuction\n        );\n    }\n\n    /////////////////////////////////////////////////////////////////////////\n    // cancelAuction\n    /////////////////////////////////////////////////////////////////////////\n    /**\n     * @dev cancel an auction\n     * Rules:\n     * - Must have an auction for the token\n     * - Auction cannot have started\n     * - Must be the creator of the auction\n     * - Must return token to owner if escrowed\n     * @param _contractAddress address of ERC721 contract.\n     * @param _tokenId uint256 id of the token.\n     */\n    function cancelAuction(address _contractAddress, uint256 _tokenId)\n        external\n    {\n        require(\n            auctions[_contractAddress][_tokenId].auctionType != NO_AUCTION,\n            \"cancelAuction::Must have a current auction\"\n        );\n        require(\n            auctions[_contractAddress][_tokenId].startingBlock == 0 ||\n                auctions[_contractAddress][_tokenId].startingBlock >\n                block.number,\n            \"cancelAuction::auction cannot be started\"\n        );\n        require(\n            auctions[_contractAddress][_tokenId].auctionCreator == msg.sender,\n            \"cancelAuction::must be the creator of the auction\"\n        );\n\n        Auction memory auction = auctions[_contractAddress][_tokenId];\n\n        auctions[_contractAddress][_tokenId] = Auction(\n            address(0),\n            0,\n            0,\n            0,\n            0,\n            0,\n            NO_AUCTION\n        );\n\n        // Return the token if this contract escrowed it\n        IERC721 erc721 = IERC721(_contractAddress);\n        if (erc721.ownerOf(_tokenId) == address(this)) {\n            erc721.transferFrom(address(this), msg.sender, _tokenId);\n        }\n\n        emit CancelAuction(_contractAddress, _tokenId, auction.auctionCreator);\n    }\n\n    /////////////////////////////////////////////////////////////////////////\n    // createScheduledAuction\n    /////////////////////////////////////////////////////////////////////////\n    /**\n     * @dev create a scheduled auction token contract address, token id\n     * Rules:\n     * - lengthOfAuction (in blocks) > 0\n     * - startingBlock > currentBlock\n     * - Cannot create an auction if contract isn't approved by owner\n     * - Minimum bid must be >= 0\n     * - Must be owner of the token\n     * - Cannot have a current auction going for this token\n     * @param _contractAddress address of ERC721 contract.\n     * @param _tokenId uint256 id of the token.\n     * @param _minimumBid uint256 Wei value of the reserve price.\n     * @param _lengthOfAuction uint256 length of auction in blocks.\n     * @param _startingBlock uint256 block number to start the auction on.\n     */\n    function createScheduledAuction(\n        address _contractAddress,\n        uint256 _tokenId,\n        uint256 _minimumBid,\n        uint256 _lengthOfAuction,\n        uint256 _startingBlock\n    ) external {\n        require(\n            _lengthOfAuction > 0,\n            \"createScheduledAuction::_lengthOfAuction must be greater than 0\"\n        );\n        require(\n            _lengthOfAuction <= maxLength,\n            \"createScheduledAuction::Cannot have auction longer than maxLength\"\n        );\n        require(\n            _startingBlock > block.number,\n            \"createScheduledAuction::_startingBlock must be greater than block.number\"\n        );\n        require(\n            _minimumBid <= iMarketSettings.getMarketplaceMaxValue(),\n            \"createScheduledAuction::Cannot set minimum bid higher than max value\"\n        );\n        _requireOwnerApproval(_contractAddress, _tokenId);\n        _requireOwnerAsSender(_contractAddress, _tokenId);\n        require(\n            auctions[_contractAddress][_tokenId].auctionType == NO_AUCTION ||\n                (msg.sender !=\n                    auctions[_contractAddress][_tokenId].auctionCreator),\n            \"createScheduledAuction::Cannot have a current auction\"\n        );\n\n        // Create the scheduled auction.\n        auctions[_contractAddress][_tokenId] = Auction(\n            msg.sender,\n            block.number,\n            _lengthOfAuction,\n            _startingBlock,\n            0,\n            _minimumBid,\n            SCHEDULED_AUCTION\n        );\n\n        // Transfer the token to this contract to act as escrow.\n        IERC721 erc721 = IERC721(_contractAddress);\n        erc721.transferFrom(msg.sender, address(this), _tokenId);\n\n        emit NewScheduledAuction(\n            _contractAddress,\n            _tokenId,\n            msg.sender,\n            _startingBlock,\n            _minimumBid,\n            _lengthOfAuction\n        );\n    }\n\n    /////////////////////////////////////////////////////////////////////////\n    // bid\n    /////////////////////////////////////////////////////////////////////////\n    /**\n     * @dev Bid on artwork with an auction.\n     * Rules:\n     * - if auction creator is still owner, owner must have contract approved\n     * - There must be a running auction or a reserve price auction for the token\n     * - bid > 0\n     * - if startingBlock - block.number < auctionLengthExtension\n     * -    then auctionLength = Starting block - (currentBlock + extension)\n     * - Auction creator != bidder\n     * - bid >= minimum bid\n     * - bid >= reserve price\n     * - block.number < startingBlock + lengthOfAuction\n     * - bid > current bid\n     * - if previous bid then returned\n     * @param _contractAddress address of ERC721 contract.\n     * @param _tokenId uint256 id of the token.\n     * @param _amount uint256 Wei value of the bid.\n     */\n    function bid(\n        address _contractAddress,\n        uint256 _tokenId,\n        uint256 _amount\n    ) external payable {\n        Auction memory auction = auctions[_contractAddress][_tokenId];\n\n        // Must have existing auction.\n        require(\n            auction.auctionType != NO_AUCTION,\n            \"bid::Must have existing auction\"\n        );\n\n        // Must have existing auction.\n        require(\n            auction.auctionCreator != msg.sender,\n            \"bid::Cannot bid on your own auction\"\n        );\n\n        // Must have pending coldie auction or running auction.\n        require(\n            auction.startingBlock <= block.number,\n            \"bid::Must have a running auction or pending coldie auction\"\n        );\n\n        // Check that bid is greater than 0.\n        require(_amount > 0, \"bid::Cannot bid 0 Wei.\");\n\n        // Check that bid is less than max value.\n        require(\n            _amount <= iMarketSettings.getMarketplaceMaxValue(),\n            \"bid::Cannot bid higher than max value\"\n        );\n\n        // Check that bid is larger than min value.\n        require(\n            _amount >= iMarketSettings.getMarketplaceMinValue(),\n            \"bid::Cannot bid lower than min value\"\n        );\n\n        // Check that bid is larger than minimum bid value or the reserve price.\n        require(\n            (_amount >= auction.reservePrice && auction.minimumBid == 0) ||\n                (_amount >= auction.minimumBid && auction.reservePrice == 0),\n            \"bid::Cannot bid lower than reserve or minimum bid\"\n        );\n\n        // Auction cannot have ended.\n        require(\n            auction.startingBlock == 0 ||\n                block.number <\n                auction.startingBlock.add(auction.lengthOfAuction),\n            \"bid::Cannot have ended\"\n        );\n\n        // Check that enough ether was sent.\n        uint256 requiredCost =\n            _amount.add(iMarketSettings.calculateMarketplaceFee(_amount));\n        require(requiredCost == msg.value, \"bid::Must bid the correct amount.\");\n\n        // If owner of token is auction creator make sure they have contract approved\n        IERC721 erc721 = IERC721(_contractAddress);\n        address owner = erc721.ownerOf(_tokenId);\n\n        // Check that token is owned by creator or by this contract\n        require(\n            auction.auctionCreator == owner || owner == address(this),\n            \"bid::Cannot bid on auction if auction creator is no longer owner.\"\n        );\n\n        if (auction.auctionCreator == owner) {\n            _requireOwnerApproval(_contractAddress, _tokenId);\n        }\n\n        ActiveBid memory currentBid = currentBids[_contractAddress][_tokenId];\n\n        // Must bid higher than current bid.\n        require(\n            _amount > currentBid.amount &&\n                _amount >=\n                currentBid.amount.add(\n                    currentBid.amount.mul(minimumBidIncreasePercentage).div(100)\n                ),\n            \"bid::must bid higher than previous bid + minimum percentage increase.\"\n        );\n\n        // Return previous bid\n        // We do this here because it clears the bid for the refund. This makes it safe from reentrence.\n        if (currentBid.amount != 0) {\n            _refundBid(_contractAddress, _tokenId);\n        }\n\n        // Set the new bid\n        currentBids[_contractAddress][_tokenId] = ActiveBid(\n            msg.sender,\n            iMarketSettings.getMarketplaceFeePercentage(),\n            _amount\n        );\n\n        // If is a pending coldie auction, start the auction\n        if (auction.startingBlock == 0) {\n            auctions[_contractAddress][_tokenId].startingBlock = block.number;\n            erc721.transferFrom(\n                auction.auctionCreator,\n                address(this),\n                _tokenId\n            );\n            emit AuctionBid(\n                _contractAddress,\n                msg.sender,\n                _tokenId,\n                _amount,\n                true,\n                0,\n                currentBid.bidder\n            );\n        }\n        // If the time left for the auction is less than the extension limit bump the length of the auction.\n        else if (\n            (auction.startingBlock.add(auction.lengthOfAuction)).sub(\n                block.number\n            ) < auctionLengthExtension\n        ) {\n            auctions[_contractAddress][_tokenId].lengthOfAuction = (\n                block.number.add(auctionLengthExtension)\n            )\n                .sub(auction.startingBlock);\n            emit AuctionBid(\n                _contractAddress,\n                msg.sender,\n                _tokenId,\n                _amount,\n                false,\n                auctions[_contractAddress][_tokenId].lengthOfAuction,\n                currentBid.bidder\n            );\n        }\n        // Otherwise, it's a normal bid\n        else {\n            emit AuctionBid(\n                _contractAddress,\n                msg.sender,\n                _tokenId,\n                _amount,\n                false,\n                0,\n                currentBid.bidder\n            );\n        }\n    }\n\n    /////////////////////////////////////////////////////////////////////////\n    // settleAuction\n    /////////////////////////////////////////////////////////////////////////\n    /**\n     * @dev Settles the auction, transferring the auctioned token to the bidder and the bid to auction creator.\n     * Rules:\n     * - There must be an unsettled auction for the token\n     * - current bidder becomes new owner\n     * - auction creator gets paid\n     * - there is no longer an auction for the token\n     * @param _contractAddress address of ERC721 contract.\n     * @param _tokenId uint256 id of the token.\n     */\n    function settleAuction(address _contractAddress, uint256 _tokenId)\n        external\n    {\n        Auction memory auction = auctions[_contractAddress][_tokenId];\n\n        require(\n            auction.auctionType != NO_AUCTION && auction.startingBlock != 0,\n            \"settleAuction::Must have a current auction that has started\"\n        );\n        require(\n            block.number >= auction.startingBlock.add(auction.lengthOfAuction),\n            \"settleAuction::Can only settle ended auctions.\"\n        );\n\n        ActiveBid memory currentBid = currentBids[_contractAddress][_tokenId];\n\n        currentBids[_contractAddress][_tokenId] = ActiveBid(address(0), 0, 0);\n        auctions[_contractAddress][_tokenId] = Auction(\n            address(0),\n            0,\n            0,\n            0,\n            0,\n            0,\n            NO_AUCTION\n        );\n        IERC721 erc721 = IERC721(_contractAddress);\n\n        // If there were no bids then end the auction and return the token to its original owner.\n        if (currentBid.bidder == address(0)) {\n            // Transfer the token to back to original owner.\n            erc721.transferFrom(\n                address(this),\n                auction.auctionCreator,\n                _tokenId\n            );\n            emit AuctionSettled(\n                _contractAddress,\n                address(0),\n                auction.auctionCreator,\n                _tokenId,\n                0\n            );\n            return;\n        }\n\n        // Transfer the token to the winner of the auction.\n        erc721.transferFrom(address(this), currentBid.bidder, _tokenId);\n\n        address payable owner = _makePayable(owner());\n        Payments.payout(\n            currentBid.amount,\n            !iMarketSettings.hasERC721TokenSold(_contractAddress, _tokenId),\n            currentBid.marketplaceFee,\n            iERC721CreatorRoyalty.getERC721TokenRoyaltyPercentage(\n                _contractAddress,\n                _tokenId\n            ),\n            iMarketSettings.getERC721ContractPrimarySaleFeePercentage(\n                _contractAddress\n            ),\n            auction.auctionCreator,\n            owner,\n            iERC721CreatorRoyalty.tokenCreator(_contractAddress, _tokenId),\n            owner\n        );\n        iMarketSettings.markERC721Token(_contractAddress, _tokenId, true);\n        emit AuctionSettled(\n            _contractAddress,\n            currentBid.bidder,\n            auction.auctionCreator,\n            _tokenId,\n            currentBid.amount\n        );\n    }\n\n    /////////////////////////////////////////////////////////////////////////\n    // getAuctionDetails\n    /////////////////////////////////////////////////////////////////////////\n    /**\n     * @dev Get current auction details for a token\n     * Rules:\n     * - Return empty when there's no auction\n     * @param _contractAddress address of ERC721 contract.\n     * @param _tokenId uint256 id of the token.\n     */\n    function getAuctionDetails(address _contractAddress, uint256 _tokenId)\n        external\n        view\n        returns (\n            bytes32,\n            uint256,\n            address,\n            uint256,\n            uint256,\n            uint256,\n            uint256\n        )\n    {\n        Auction memory auction = auctions[_contractAddress][_tokenId];\n\n        return (\n            auction.auctionType,\n            auction.creationBlock,\n            auction.auctionCreator,\n            auction.lengthOfAuction,\n            auction.startingBlock,\n            auction.minimumBid,\n            auction.reservePrice\n        );\n    }\n\n    /////////////////////////////////////////////////////////////////////////\n    // getCurrentBid\n    /////////////////////////////////////////////////////////////////////////\n    /**\n     * @dev Get the current bid\n     * Rules:\n     * - Return empty when there's no bid\n     * @param _contractAddress address of ERC721 contract.\n     * @param _tokenId uint256 id of the token.\n     */\n    function getCurrentBid(address _contractAddress, uint256 _tokenId)\n        external\n        view\n        returns (address, uint256)\n    {\n        return (\n            currentBids[_contractAddress][_tokenId].bidder,\n            currentBids[_contractAddress][_tokenId].amount\n        );\n    }\n\n    /////////////////////////////////////////////////////////////////////////\n    // _requireOwnerApproval\n    /////////////////////////////////////////////////////////////////////////\n    /**\n     * @dev Require that the owner have the SuperRareAuctionHouse approved.\n     * @param _contractAddress address of ERC721 contract.\n     * @param _tokenId uint256 id of the token.\n     */\n    function _requireOwnerApproval(address _contractAddress, uint256 _tokenId)\n        internal\n        view\n    {\n        IERC721 erc721 = IERC721(_contractAddress);\n        address owner = erc721.ownerOf(_tokenId);\n        require(\n            erc721.isApprovedForAll(owner, address(this)),\n            \"owner must have approved contract\"\n        );\n    }\n\n    /////////////////////////////////////////////////////////////////////////\n    // _requireOwnerAsSender\n    /////////////////////////////////////////////////////////////////////////\n    /**\n     * @dev Require that the owner be the sender.\n     * @param _contractAddress address of ERC721 contract.\n     * @param _tokenId uint256 id of the token.\n     */\n    function _requireOwnerAsSender(address _contractAddress, uint256 _tokenId)\n        internal\n        view\n    {\n        IERC721 erc721 = IERC721(_contractAddress);\n        address owner = erc721.ownerOf(_tokenId);\n        require(owner == msg.sender, \"owner must be message sender\");\n    }\n\n    /////////////////////////////////////////////////////////////////////////\n    // _refundBid\n    /////////////////////////////////////////////////////////////////////////\n    /**\n     * @dev Internal function to return an existing bid on a token to the\n     *      bidder and reset bid.\n     * @param _contractAddress address of ERC721 contract.\n     * @param _tokenId uin256 id of the token.\n     */\n    function _refundBid(address _contractAddress, uint256 _tokenId) internal {\n        ActiveBid memory currentBid = currentBids[_contractAddress][_tokenId];\n        if (currentBid.bidder == address(0)) {\n            return;\n        }\n\n        currentBids[_contractAddress][_tokenId] = ActiveBid(address(0), 0, 0);\n\n        // refund the bidder\n        Payments.refund(\n            currentBid.marketplaceFee,\n            currentBid.bidder,\n            currentBid.amount\n        );\n    }\n\n    /////////////////////////////////////////////////////////////////////////\n    // _makePayable\n    /////////////////////////////////////////////////////////////////////////\n    /**\n     * @dev Internal function to set a bid.\n     * @param _address non-payable address\n     * @return payable address\n     */\n    function _makePayable(address _address)\n        internal\n        pure\n        returns (address payable)\n    {\n        return address(uint160(_address));\n    }\n}\n",
  "sourcePath": "/Users/ismailcanvardar/Documents/freelance-works/intangible-contracts/contracts/SuperRareAuctionHouse.sol",
  "compiler": {
    "name": "solc",
    "version": "0.6.12+commit.27d51765.Emscripten.clang"
  },
  "schemaVersion": "3.3.3",
  "updatedAt": "2021-03-13T15:15:39.710Z",
  "devdoc": {
    "kind": "dev",
    "methods": {
      "bid(address,uint256,uint256)": {
        "details": "Bid on artwork with an auction. Rules: - if auction creator is still owner, owner must have contract approved - There must be a running auction or a reserve price auction for the token - bid > 0 - if startingBlock - block.number < auctionLengthExtension -    then auctionLength = Starting block - (currentBlock + extension) - Auction creator != bidder - bid >= minimum bid - bid >= reserve price - block.number < startingBlock + lengthOfAuction - bid > current bid - if previous bid then returned",
        "params": {
          "_amount": "uint256 Wei value of the bid.",
          "_contractAddress": "address of ERC721 contract.",
          "_tokenId": "uint256 id of the token."
        }
      },
      "cancelAuction(address,uint256)": {
        "details": "cancel an auction Rules: - Must have an auction for the token - Auction cannot have started - Must be the creator of the auction - Must return token to owner if escrowed",
        "params": {
          "_contractAddress": "address of ERC721 contract.",
          "_tokenId": "uint256 id of the token."
        }
      },
      "constructor": {
        "details": "Initializes the contract setting the market settings and creator royalty interfaces.",
        "params": {
          "_iERC721CreatorRoyalty": "address to set as iERC721CreatorRoyalty.",
          "_iMarketSettings": "address to set as iMarketSettings."
        }
      },
      "createColdieAuction(address,uint256,uint256,uint256)": {
        "details": "create a reserve auction token contract address, token id, price Rules: - Cannot create an auction if contract isn't approved by owner - lengthOfAuction (in blocks) > 0 - lengthOfAuction (in blocks) <= maxLength - Reserve price must be >= 0 - Must be owner of the token - Cannot have a current auction going",
        "params": {
          "_contractAddress": "address of ERC721 contract.",
          "_lengthOfAuction": "uint256 length of auction in blocks.",
          "_reservePrice": "uint256 Wei value of the reserve price.",
          "_tokenId": "uint256 id of the token."
        }
      },
      "createScheduledAuction(address,uint256,uint256,uint256,uint256)": {
        "details": "create a scheduled auction token contract address, token id Rules: - lengthOfAuction (in blocks) > 0 - startingBlock > currentBlock - Cannot create an auction if contract isn't approved by owner - Minimum bid must be >= 0 - Must be owner of the token - Cannot have a current auction going for this token",
        "params": {
          "_contractAddress": "address of ERC721 contract.",
          "_lengthOfAuction": "uint256 length of auction in blocks.",
          "_minimumBid": "uint256 Wei value of the reserve price.",
          "_startingBlock": "uint256 block number to start the auction on.",
          "_tokenId": "uint256 id of the token."
        }
      },
      "getAuctionDetails(address,uint256)": {
        "details": "Get current auction details for a token Rules: - Return empty when there's no auction",
        "params": {
          "_contractAddress": "address of ERC721 contract.",
          "_tokenId": "uint256 id of the token."
        }
      },
      "getCurrentBid(address,uint256)": {
        "details": "Get the current bid Rules: - Return empty when there's no bid",
        "params": {
          "_contractAddress": "address of ERC721 contract.",
          "_tokenId": "uint256 id of the token."
        }
      },
      "owner()": {
        "details": "Returns the address of the current owner."
      },
      "payments(address)": {
        "details": "Returns the payments owed to an address.",
        "params": {
          "dest": "The creditor's address."
        }
      },
      "renounceOwnership()": {
        "details": "Leaves the contract without owner. It will not be possible to call `onlyOwner` functions anymore. Can only be called by the current owner. NOTE: Renouncing ownership will leave the contract without an owner, thereby removing any functionality that is only available to the owner."
      },
      "setAuctionLengthExtension(uint256)": {
        "details": "Admin function to set the auctionLengthExtension of an auction. Rules: - only owner - _auctionLengthExtension > 0",
        "params": {
          "_auctionLengthExtension": "uint256 max length of an auction."
        }
      },
      "setIERC721CreatorRoyalty(address)": {
        "details": "Admin function to set the IERC721CreatorRoyalty. Rules: - only owner - _address != address(0)",
        "params": {
          "_address": "address of the IERC721CreatorRoyalty."
        }
      },
      "setMarketplaceSettings(address)": {
        "details": "Admin function to set the marketplace settings. Rules: - only owner - _address != address(0)",
        "params": {
          "_address": "address of the IMarketplaceSettings."
        }
      },
      "setMaxLength(uint256)": {
        "details": "Admin function to set the maxLength of an auction. Rules: - only owner - _maxLangth > 0",
        "params": {
          "_maxLength": "uint256 max length of an auction."
        }
      },
      "setMinimumBidIncreasePercentage(uint8)": {
        "details": "Admin function to set the minimum bid increase percentage. Rules: - only owner",
        "params": {
          "_percentage": "uint8 to set as the new percentage."
        }
      },
      "settleAuction(address,uint256)": {
        "details": "Settles the auction, transferring the auctioned token to the bidder and the bid to auction creator. Rules: - There must be an unsettled auction for the token - current bidder becomes new owner - auction creator gets paid - there is no longer an auction for the token",
        "params": {
          "_contractAddress": "address of ERC721 contract.",
          "_tokenId": "uint256 id of the token."
        }
      },
      "transferOwnership(address)": {
        "details": "Transfers ownership of the contract to a new account (`newOwner`). Can only be called by the current owner."
      },
      "withdrawPayments(address)": {
        "details": "Withdraw accumulated payments, forwarding all gas to the recipient. Note that _any_ account can call this function, not just the `payee`. This means that contracts unaware of the `PullPayment` protocol can still receive funds this way, by having a separate account call {withdrawPayments}. WARNING: Forwarding all gas opens the door to reentrancy vulnerabilities. Make sure you trust the recipient, or are either following the checks-effects-interactions pattern or using {ReentrancyGuard}.",
        "params": {
          "payee": "Whose payments will be withdrawn."
        }
      }
    },
    "version": 1
  },
  "userdoc": {
    "kind": "user",
    "methods": {},
    "version": 1
  }
}