{
  "contractName": "SuperRareRoyaltyRegistry",
  "abi": [
    {
      "inputs": [
        {
          "internalType": "address",
          "name": "_iERC721TokenCreator",
          "type": "address"
        }
      ],
      "stateMutability": "nonpayable",
      "type": "constructor"
    },
    {
      "anonymous": false,
      "inputs": [
        {
          "indexed": true,
          "internalType": "address",
          "name": "previousOwner",
          "type": "address"
        },
        {
          "indexed": true,
          "internalType": "address",
          "name": "newOwner",
          "type": "address"
        }
      ],
      "name": "OwnershipTransferred",
      "type": "event"
    },
    {
      "inputs": [],
      "name": "iERC721TokenCreator",
      "outputs": [
        {
          "internalType": "contract IERC721TokenCreator",
          "name": "",
          "type": "address"
        }
      ],
      "stateMutability": "view",
      "type": "function"
    },
    {
      "inputs": [],
      "name": "owner",
      "outputs": [
        {
          "internalType": "address",
          "name": "",
          "type": "address"
        }
      ],
      "stateMutability": "view",
      "type": "function"
    },
    {
      "inputs": [],
      "name": "renounceOwnership",
      "outputs": [],
      "stateMutability": "nonpayable",
      "type": "function"
    },
    {
      "inputs": [
        {
          "internalType": "address",
          "name": "newOwner",
          "type": "address"
        }
      ],
      "name": "transferOwnership",
      "outputs": [],
      "stateMutability": "nonpayable",
      "type": "function"
    },
    {
      "inputs": [
        {
          "internalType": "address",
          "name": "_contractAddress",
          "type": "address"
        }
      ],
      "name": "setIERC721TokenCreator",
      "outputs": [],
      "stateMutability": "nonpayable",
      "type": "function"
    },
    {
      "inputs": [
        {
          "internalType": "address",
          "name": "_contractAddress",
          "type": "address"
        },
        {
          "internalType": "uint256",
          "name": "_tokenId",
          "type": "uint256"
        }
      ],
      "name": "getERC721TokenRoyaltyPercentage",
      "outputs": [
        {
          "internalType": "uint8",
          "name": "",
          "type": "uint8"
        }
      ],
      "stateMutability": "view",
      "type": "function"
    },
    {
      "inputs": [
        {
          "internalType": "address",
          "name": "_contractAddress",
          "type": "address"
        },
        {
          "internalType": "uint256",
          "name": "_tokenId",
          "type": "uint256"
        }
      ],
      "name": "getPercentageForSetERC721TokenRoyalty",
      "outputs": [
        {
          "internalType": "uint8",
          "name": "",
          "type": "uint8"
        }
      ],
      "stateMutability": "view",
      "type": "function"
    },
    {
      "inputs": [
        {
          "internalType": "address",
          "name": "_contractAddress",
          "type": "address"
        },
        {
          "internalType": "uint256",
          "name": "_tokenId",
          "type": "uint256"
        },
        {
          "internalType": "uint8",
          "name": "_percentage",
          "type": "uint8"
        }
      ],
      "name": "setPercentageForSetERC721TokenRoyalty",
      "outputs": [
        {
          "internalType": "uint8",
          "name": "",
          "type": "uint8"
        }
      ],
      "stateMutability": "nonpayable",
      "type": "function"
    },
    {
      "inputs": [
        {
          "internalType": "address",
          "name": "_contractAddress",
          "type": "address"
        },
        {
          "internalType": "uint256",
          "name": "_tokenId",
          "type": "uint256"
        }
      ],
      "name": "getPercentageForSetERC721CreatorRoyalty",
      "outputs": [
        {
          "internalType": "uint8",
          "name": "",
          "type": "uint8"
        }
      ],
      "stateMutability": "view",
      "type": "function"
    },
    {
      "inputs": [
        {
          "internalType": "address",
          "name": "_creatorAddress",
          "type": "address"
        },
        {
          "internalType": "uint8",
          "name": "_percentage",
          "type": "uint8"
        }
      ],
      "name": "setPercentageForSetERC721CreatorRoyalty",
      "outputs": [
        {
          "internalType": "uint8",
          "name": "",
          "type": "uint8"
        }
      ],
      "stateMutability": "nonpayable",
      "type": "function"
    },
    {
      "inputs": [
        {
          "internalType": "address",
          "name": "_contractAddress",
          "type": "address"
        }
      ],
      "name": "getPercentageForSetERC721ContractRoyalty",
      "outputs": [
        {
          "internalType": "uint8",
          "name": "",
          "type": "uint8"
        }
      ],
      "stateMutability": "view",
      "type": "function"
    },
    {
      "inputs": [
        {
          "internalType": "address",
          "name": "_contractAddress",
          "type": "address"
        },
        {
          "internalType": "uint8",
          "name": "_percentage",
          "type": "uint8"
        }
      ],
      "name": "setPercentageForSetERC721ContractRoyalty",
      "outputs": [
        {
          "internalType": "uint8",
          "name": "",
          "type": "uint8"
        }
      ],
      "stateMutability": "nonpayable",
      "type": "function"
    },
    {
      "inputs": [
        {
          "internalType": "address",
          "name": "_contractAddress",
          "type": "address"
        },
        {
          "internalType": "uint256",
          "name": "_tokenId",
          "type": "uint256"
        },
        {
          "internalType": "uint256",
          "name": "_amount",
          "type": "uint256"
        }
      ],
      "name": "calculateRoyaltyFee",
      "outputs": [
        {
          "internalType": "uint256",
          "name": "",
          "type": "uint256"
        }
      ],
      "stateMutability": "view",
      "type": "function"
    },
    {
      "inputs": [
        {
          "internalType": "address",
          "name": "_contractAddress",
          "type": "address"
        },
        {
          "internalType": "uint256",
          "name": "_tokenId",
          "type": "uint256"
        }
      ],
      "name": "tokenCreator",
      "outputs": [
        {
          "internalType": "address payable",
          "name": "",
          "type": "address"
        }
      ],
      "stateMutability": "view",
      "type": "function"
    }
  ],
  "bytecode": "0x608060405234801561001057600080fd5b50604051611b6c380380611b6c8339818101604052602081101561003357600080fd5b8101908080519060200190929190505050600061005d6101c8640100000000026401000000009004565b9050806000806101000a81548173ffffffffffffffffffffffffffffffffffffffff021916908373ffffffffffffffffffffffffffffffffffffffff1602179055508073ffffffffffffffffffffffffffffffffffffffff16600073ffffffffffffffffffffffffffffffffffffffff167f8be0079c531659141344cd1fd0a4f28419497f9722a3daafe3b4186f6b6457e060405160405180910390a350600073ffffffffffffffffffffffffffffffffffffffff168173ffffffffffffffffffffffffffffffffffffffff161415610181576040517f08c379a0000000000000000000000000000000000000000000000000000000008152600401808060200182810382526043815260200180611b296043913960600191505060405180910390fd5b80600460006101000a81548173ffffffffffffffffffffffffffffffffffffffff021916908373ffffffffffffffffffffffffffffffffffffffff160217905550506101d0565b600033905090565b61194a806101df6000396000f3fe608060405234801561001057600080fd5b5060043610610107576000357c0100000000000000000000000000000000000000000000000000000000900480638da5cb5b116100a9578063c6ad8d7511610083578063c6ad8d7514610433578063c88a9aee14610498578063e8b8b53d14610500578063f2fde38b1461057257610107565b80638da5cb5b14610322578063b85ed7e414610356578063c461f15d146103ce57610107565b8063715018a6116100e5578063715018a6146101ec57806376bf88b2146101f65780637c0329f714610251578063860110f5146102b657610107565b80632d5baea31461010c5780635121d5ba1461017457806358a70266146101a8575b600080fd5b61015b6004803603604081101561012257600080fd5b81019080803573ffffffffffffffffffffffffffffffffffffffff169060200190929190803560ff1690602001909291905050506105b6565b604051808260ff16815260200191505060405180910390f35b61017c610722565b604051808273ffffffffffffffffffffffffffffffffffffffff16815260200191505060405180910390f35b6101ea600480360360208110156101be57600080fd5b81019080803573ffffffffffffffffffffffffffffffffffffffff169060200190929190505050610748565b005b6101f46108c1565b005b6102386004803603602081101561020c57600080fd5b81019080803573ffffffffffffffffffffffffffffffffffffffff169060200190929190505050610a2e565b604051808260ff16815260200191505060405180910390f35b61029d6004803603604081101561026757600080fd5b81019080803573ffffffffffffffffffffffffffffffffffffffff16906020019092919080359060200190929190505050610a84565b604051808260ff16815260200191505060405180910390f35b61030c600480360360608110156102cc57600080fd5b81019080803573ffffffffffffffffffffffffffffffffffffffff1690602001909291908035906020019092919080359060200190929190505050610d43565b6040518082815260200191505060405180910390f35b61032a610d80565b604051808273ffffffffffffffffffffffffffffffffffffffff16815260200191505060405180910390f35b6103a26004803603604081101561036c57600080fd5b81019080803573ffffffffffffffffffffffffffffffffffffffff16906020019092919080359060200190929190505050610da9565b604051808273ffffffffffffffffffffffffffffffffffffffff16815260200191505060405180910390f35b61041a600480360360408110156103e457600080fd5b81019080803573ffffffffffffffffffffffffffffffffffffffff16906020019092919080359060200190929190505050610e9b565b604051808260ff16815260200191505060405180910390f35b61047f6004803603604081101561044957600080fd5b81019080803573ffffffffffffffffffffffffffffffffffffffff16906020019092919080359060200190929190505050610f03565b604051808260ff16815260200191505060405180910390f35b6104e7600480360360408110156104ae57600080fd5b81019080803573ffffffffffffffffffffffffffffffffffffffff169060200190929190803560ff169060200190929190505050611046565b604051808260ff16815260200191505060405180910390f35b6105596004803603606081101561051657600080fd5b81019080803573ffffffffffffffffffffffffffffffffffffffff16906020019092919080359060200190929190803560ff1690602001909291905050506111c4565b604051808260ff16815260200191505060405180910390f35b6105b46004803603602081101561058857600080fd5b81019080803573ffffffffffffffffffffffffffffffffffffffff16906020019092919050505061143b565b005b60006105c061162d565b73ffffffffffffffffffffffffffffffffffffffff166105de610d80565b73ffffffffffffffffffffffffffffffffffffffff1614610667576040517f08c379a00000000000000000000000000000000000000000000000000000000081526004018080602001828103825260208152602001807f4f776e61626c653a2063616c6c6572206973206e6f7420746865206f776e657281525060200191505060405180910390fd5b60648260ff1611156106c4576040517f08c379a000000000000000000000000000000000000000000000000000000000815260040180806020018281038252604481526020018061176b6044913960600191505060405180910390fd5b81600160008573ffffffffffffffffffffffffffffffffffffffff1673ffffffffffffffffffffffffffffffffffffffff16815260200190815260200160002060006101000a81548160ff021916908360ff16021790555092915050565b600460009054906101000a900473ffffffffffffffffffffffffffffffffffffffff1681565b61075061162d565b73ffffffffffffffffffffffffffffffffffffffff1661076e610d80565b73ffffffffffffffffffffffffffffffffffffffff16146107f7576040517f08c379a00000000000000000000000000000000000000000000000000000000081526004018080602001828103825260208152602001807f4f776e61626c653a2063616c6c6572206973206e6f7420746865206f776e657281525060200191505060405180910390fd5b600073ffffffffffffffffffffffffffffffffffffffff168173ffffffffffffffffffffffffffffffffffffffff16141561087d576040517f08c379a00000000000000000000000000000000000000000000000000000000081526004018080602001828103825260378152602001806117f26037913960400191505060405180910390fd5b80600460006101000a81548173ffffffffffffffffffffffffffffffffffffffff021916908373ffffffffffffffffffffffffffffffffffffffff16021790555050565b6108c961162d565b73ffffffffffffffffffffffffffffffffffffffff166108e7610d80565b73ffffffffffffffffffffffffffffffffffffffff1614610970576040517f08c379a00000000000000000000000000000000000000000000000000000000081526004018080602001828103825260208152602001807f4f776e61626c653a2063616c6c6572206973206e6f7420746865206f776e657281525060200191505060405180910390fd5b600073ffffffffffffffffffffffffffffffffffffffff1660008054906101000a900473ffffffffffffffffffffffffffffffffffffffff1673ffffffffffffffffffffffffffffffffffffffff167f8be0079c531659141344cd1fd0a4f28419497f9722a3daafe3b4186f6b6457e060405160405180910390a360008060006101000a81548173ffffffffffffffffffffffffffffffffffffffff021916908373ffffffffffffffffffffffffffffffffffffffff160217905550565b6000600160008373ffffffffffffffffffffffffffffffffffffffff1673ffffffffffffffffffffffffffffffffffffffff16815260200190815260200160002060009054906101000a900460ff169050919050565b600080600360008573ffffffffffffffffffffffffffffffffffffffff1673ffffffffffffffffffffffffffffffffffffffff168152602001908152602001600020600084815260200190815260200160002060009054906101000a900460ff1660ff161115610b5357600360008473ffffffffffffffffffffffffffffffffffffffff1673ffffffffffffffffffffffffffffffffffffffff168152602001908152602001600020600083815260200190815260200160002060009054906101000a900460ff169050610d3d565b6000600460009054906101000a900473ffffffffffffffffffffffffffffffffffffffff1673ffffffffffffffffffffffffffffffffffffffff1663b85ed7e485856040518363ffffffff167c0100000000000000000000000000000000000000000000000000000000028152600401808373ffffffffffffffffffffffffffffffffffffffff1681526020018281526020019250505060206040518083038186803b158015610c0257600080fd5b505afa158015610c16573d6000803e3d6000fd5b505050506040513d6020811015610c2c57600080fd5b810190808051906020019092919050505090506000600260008373ffffffffffffffffffffffffffffffffffffffff1673ffffffffffffffffffffffffffffffffffffffff16815260200190815260200160002060009054906101000a900460ff1660ff161115610cec57600260008273ffffffffffffffffffffffffffffffffffffffff1673ffffffffffffffffffffffffffffffffffffffff16815260200190815260200160002060009054906101000a900460ff16915050610d3d565b600160008573ffffffffffffffffffffffffffffffffffffffff1673ffffffffffffffffffffffffffffffffffffffff16815260200190815260200160002060009054906101000a900460ff169150505b92915050565b6000610d776064610d69610d578787610a84565b60ff168561163590919063ffffffff16565b6116bb90919063ffffffff16565b90509392505050565b60008060009054906101000a900473ffffffffffffffffffffffffffffffffffffffff16905090565b6000600460009054906101000a900473ffffffffffffffffffffffffffffffffffffffff1673ffffffffffffffffffffffffffffffffffffffff1663b85ed7e484846040518363ffffffff167c0100000000000000000000000000000000000000000000000000000000028152600401808373ffffffffffffffffffffffffffffffffffffffff1681526020018281526020019250505060206040518083038186803b158015610e5857600080fd5b505afa158015610e6c573d6000803e3d6000fd5b505050506040513d6020811015610e8257600080fd5b8101908080519060200190929190505050905092915050565b6000600360008473ffffffffffffffffffffffffffffffffffffffff1673ffffffffffffffffffffffffffffffffffffffff168152602001908152602001600020600083815260200190815260200160002060009054906101000a900460ff16905092915050565b600080600460009054906101000a900473ffffffffffffffffffffffffffffffffffffffff1673ffffffffffffffffffffffffffffffffffffffff1663b85ed7e485856040518363ffffffff167c0100000000000000000000000000000000000000000000000000000000028152600401808373ffffffffffffffffffffffffffffffffffffffff1681526020018281526020019250505060206040518083038186803b158015610fb357600080fd5b505afa158015610fc7573d6000803e3d6000fd5b505050506040513d6020811015610fdd57600080fd5b81019080805190602001909291905050509050600260008273ffffffffffffffffffffffffffffffffffffffff1673ffffffffffffffffffffffffffffffffffffffff16815260200190815260200160002060009054906101000a900460ff1691505092915050565b60008273ffffffffffffffffffffffffffffffffffffffff163373ffffffffffffffffffffffffffffffffffffffff1614806110b45750611085610d80565b73ffffffffffffffffffffffffffffffffffffffff163373ffffffffffffffffffffffffffffffffffffffff16145b611109576040517f08c379a000000000000000000000000000000000000000000000000000000000815260040180806020018281038252604181526020018061188b6041913960600191505060405180910390fd5b60648260ff161115611166576040517f08c379a00000000000000000000000000000000000000000000000000000000081526004018080602001828103825260438152602001806117af6043913960600191505060405180910390fd5b81600260008573ffffffffffffffffffffffffffffffffffffffff1673ffffffffffffffffffffffffffffffffffffffff16815260200190815260200160002060006101000a81548160ff021916908360ff16021790555092915050565b6000600460009054906101000a900473ffffffffffffffffffffffffffffffffffffffff1673ffffffffffffffffffffffffffffffffffffffff1663b85ed7e485856040518363ffffffff167c0100000000000000000000000000000000000000000000000000000000028152600401808373ffffffffffffffffffffffffffffffffffffffff1681526020018281526020019250505060206040518083038186803b15801561127357600080fd5b505afa158015611287573d6000803e3d6000fd5b505050506040513d602081101561129d57600080fd5b810190808051906020019092919050505073ffffffffffffffffffffffffffffffffffffffff163373ffffffffffffffffffffffffffffffffffffffff16148061131957506112ea610d80565b73ffffffffffffffffffffffffffffffffffffffff163373ffffffffffffffffffffffffffffffffffffffff16145b61136e576040517f08c379a00000000000000000000000000000000000000000000000000000000081526004018080602001828103825260498152602001806118cc6049913960600191505060405180910390fd5b60648260ff1611156113cb576040517f08c379a00000000000000000000000000000000000000000000000000000000081526004018080602001828103825260418152602001806118296041913960600191505060405180910390fd5b81600360008673ffffffffffffffffffffffffffffffffffffffff1673ffffffffffffffffffffffffffffffffffffffff168152602001908152602001600020600085815260200190815260200160002060006101000a81548160ff021916908360ff1602179055509392505050565b61144361162d565b73ffffffffffffffffffffffffffffffffffffffff16611461610d80565b73ffffffffffffffffffffffffffffffffffffffff16146114ea576040517f08c379a00000000000000000000000000000000000000000000000000000000081526004018080602001828103825260208152602001807f4f776e61626c653a2063616c6c6572206973206e6f7420746865206f776e657281525060200191505060405180910390fd5b600073ffffffffffffffffffffffffffffffffffffffff168173ffffffffffffffffffffffffffffffffffffffff161415611570576040517f08c379a00000000000000000000000000000000000000000000000000000000081526004018080602001828103825260268152602001806117456026913960400191505060405180910390fd5b8073ffffffffffffffffffffffffffffffffffffffff1660008054906101000a900473ffffffffffffffffffffffffffffffffffffffff1673ffffffffffffffffffffffffffffffffffffffff167f8be0079c531659141344cd1fd0a4f28419497f9722a3daafe3b4186f6b6457e060405160405180910390a3806000806101000a81548173ffffffffffffffffffffffffffffffffffffffff021916908373ffffffffffffffffffffffffffffffffffffffff16021790555050565b600033905090565b60008083141561164857600090506116b5565b600082840290508284828161165957fe5b04146116b0576040517f08c379a000000000000000000000000000000000000000000000000000000000815260040180806020018281038252602181526020018061186a6021913960400191505060405180910390fd5b809150505b92915050565b6000808211611732576040517f08c379a000000000000000000000000000000000000000000000000000000000815260040180806020018281038252601a8152602001807f536166654d6174683a206469766973696f6e206279207a65726f00000000000081525060200191505060405180910390fd5b81838161173b57fe5b0490509291505056fe4f776e61626c653a206e6577206f776e657220697320746865207a65726f206164647265737373657450657263656e74616765466f72536574455243373231436f6e7472616374526f79616c74793a3a5f70657263656e74616765206d757374206265203c3d2031303073657450657263656e74616765466f7253657445524337323143726561746f72526f79616c74793a3a5f70657263656e74616765206d757374206265203c3d2031303073657449455243373231546f6b656e43726561746f723a3a5f636f6e7472616374416464726573732063616e6e6f74206265206e756c6c73657450657263656e74616765466f72536574455243373231546f6b656e526f79616c74793a3a5f70657263656e74616765206d757374206265203c3d20313030536166654d6174683a206d756c7469706c69636174696f6e206f766572666c6f7773657450657263656e74616765466f7253657445524337323143726561746f72526f79616c74793a3a4d757374206265206f776e6572206f722063726561746f7273657450657263656e74616765466f72536574455243373231546f6b656e526f79616c74793a3a4d75737420626520636f6e7472616374206f776e6572206f722063726561746f7220a26469706673582212202aad067ad17e21c28a94b1855dd1b01be8562edd4cffd34a17896d52b2a2cffc64736f6c634300060c0033636f6e7374727563746f723a3a43616e6e6f742073657420746865206e756c6c206164647265737320617320616e205f69455243373231546f6b656e43726561746f72",
  "immutableReferences": {},
  "source": "// SPDX-License-Identifier: MIT\npragma solidity 0.6.12;\n\nimport \"@openzeppelin/contracts/access/AccessControl.sol\";\nimport \"@openzeppelin/contracts/access/Ownable.sol\";\nimport \"@openzeppelin/contracts/math/SafeMath.sol\";\nimport \"./IERC721CreatorRoyalty.sol\";\n\n/**\n * @title IERC721 Non-Fungible Token Creator basic interface\n */\ncontract SuperRareRoyaltyRegistry is Ownable, IERC721CreatorRoyalty {\n    using SafeMath for uint256;\n\n    /////////////////////////////////////////////////////////////////////////\n    // State Variables\n    /////////////////////////////////////////////////////////////////////////\n\n    // Mapping of ERC721 contract to royalty percentage for all NFTs,  3 == 3%\n    mapping(address => uint8) private contractRoyaltyPercentage;\n\n    // Mapping of ERC721 creator to royalty percentage for all NFTs.\n    mapping(address => uint8) private creatorRoyaltyPercentage;\n\n    // Mapping of ERC721 token to royalty percentage for all NFTs.\n    mapping(address => mapping(uint256 => uint8))\n        private tokenRoyaltyPercentage;\n\n    IERC721TokenCreator public iERC721TokenCreator;\n\n    /////////////////////////////////////////////////////////////////////////\n    // Constructor\n    /////////////////////////////////////////////////////////////////////////\n    constructor(address _iERC721TokenCreator) public {\n        require(\n            _iERC721TokenCreator != address(0),\n            \"constructor::Cannot set the null address as an _iERC721TokenCreator\"\n        );\n        iERC721TokenCreator = IERC721TokenCreator(_iERC721TokenCreator);\n    }\n\n    /////////////////////////////////////////////////////////////////////////\n    // setIERC721TokenCreator\n    /////////////////////////////////////////////////////////////////////////\n    /**\n     * @dev Set an address as an IERC721TokenCreator\n     * @param _contractAddress address of the IERC721TokenCreator contract\n     */\n    function setIERC721TokenCreator(address _contractAddress)\n        external\n        onlyOwner\n    {\n        require(\n            _contractAddress != address(0),\n            \"setIERC721TokenCreator::_contractAddress cannot be null\"\n        );\n\n        iERC721TokenCreator = IERC721TokenCreator(_contractAddress);\n    }\n\n    /////////////////////////////////////////////////////////////////////////\n    // getERC721TokenRoyaltyPercentage\n    /////////////////////////////////////////////////////////////////////////\n    /**\n     * @dev Get the royalty fee percentage for a specific ERC721 contract.\n     * @param _contractAddress address ERC721Contract address.\n     * @param _tokenId uint256 token ID.\n     * @return uint8 wei royalty fee.\n     */\n    function getERC721TokenRoyaltyPercentage(\n        address _contractAddress,\n        uint256 _tokenId\n    ) public override view returns (uint8) {\n        if (tokenRoyaltyPercentage[_contractAddress][_tokenId] > 0) {\n            return tokenRoyaltyPercentage[_contractAddress][_tokenId];\n        }\n        address creator = iERC721TokenCreator.tokenCreator(\n            _contractAddress,\n            _tokenId\n        );\n        if (creatorRoyaltyPercentage[creator] > 0) {\n            return creatorRoyaltyPercentage[creator];\n        }\n        return contractRoyaltyPercentage[_contractAddress];\n    }\n\n    /////////////////////////////////////////////////////////////////////////\n    // getPercentageForSetERC721TokenRoyalty\n    /////////////////////////////////////////////////////////////////////////\n    /**\n     * @dev Gets the royalty percentage set for an ERC721 token\n     * @param _contractAddress address ERC721Contract address.\n     * @param _tokenId uint256 token ID.\n     * @return uint8 wei royalty fee.\n     */\n    function getPercentageForSetERC721TokenRoyalty(\n        address _contractAddress,\n        uint256 _tokenId\n    ) external view returns (uint8) {\n        return tokenRoyaltyPercentage[_contractAddress][_tokenId];\n    }\n\n    /////////////////////////////////////////////////////////////////////////\n    // setPercentageForSetERC721TokenRoyalty\n    /////////////////////////////////////////////////////////////////////////\n    /**\n     * @dev Sets the royalty percentage set for an ERC721 token\n     * Requirements:\n\n     * - `_percentage` must be <= 100.\n     * - only the owner of this contract or the creator can call this method.\n     * @param _contractAddress address ERC721Contract address.\n     * @param _tokenId uint256 token ID.\n     * @param _percentage uint8 wei royalty fee.\n     */\n    function setPercentageForSetERC721TokenRoyalty(\n        address _contractAddress,\n        uint256 _tokenId,\n        uint8 _percentage\n    ) external returns (uint8) {\n        require(\n            msg.sender ==\n                iERC721TokenCreator.tokenCreator(_contractAddress, _tokenId) ||\n                msg.sender == owner(),\n            \"setPercentageForSetERC721TokenRoyalty::Must be contract owner or creator \"\n        );\n        require(\n            _percentage <= 100,\n            \"setPercentageForSetERC721TokenRoyalty::_percentage must be <= 100\"\n        );\n        tokenRoyaltyPercentage[_contractAddress][_tokenId] = _percentage;\n    }\n\n    /////////////////////////////////////////////////////////////////////////\n    // getPercentageForSetERC721CreatorRoyalty\n    /////////////////////////////////////////////////////////////////////////\n    /**\n     * @dev Gets the royalty percentage set for an ERC721 creator\n     * @param _contractAddress address ERC721Contract address.\n     * @param _tokenId uint256 token ID.\n     * @return uint8 wei royalty fee.\n     */\n    function getPercentageForSetERC721CreatorRoyalty(\n        address _contractAddress,\n        uint256 _tokenId\n    ) external view returns (uint8) {\n        address creator = iERC721TokenCreator.tokenCreator(\n            _contractAddress,\n            _tokenId\n        );\n        return creatorRoyaltyPercentage[creator];\n    }\n\n    /////////////////////////////////////////////////////////////////////////\n    // setPercentageForSetERC721CreatorRoyalty\n    /////////////////////////////////////////////////////////////////////////\n    /**\n     * @dev Sets the royalty percentage set for an ERC721 creator\n     * Requirements:\n\n     * - `_percentage` must be <= 100.\n     * - only the owner of this contract or the creator can call this method.\n     * @param _creatorAddress address token ID.\n     * @param _percentage uint8 wei royalty fee.\n     */\n    function setPercentageForSetERC721CreatorRoyalty(\n        address _creatorAddress,\n        uint8 _percentage\n    ) external returns (uint8) {\n        require(\n            msg.sender == _creatorAddress || msg.sender == owner(),\n            \"setPercentageForSetERC721CreatorRoyalty::Must be owner or creator\"\n        );\n        require(\n            _percentage <= 100,\n            \"setPercentageForSetERC721CreatorRoyalty::_percentage must be <= 100\"\n        );\n        creatorRoyaltyPercentage[_creatorAddress] = _percentage;\n    }\n\n    /////////////////////////////////////////////////////////////////////////\n    // getPercentageForSetERC721ContractRoyalty\n    /////////////////////////////////////////////////////////////////////////\n    /**\n     * @dev Gets the royalty percentage set for an ERC721 contract\n     * @param _contractAddress address ERC721Contract address.\n     * @return uint8 wei royalty fee.\n     */\n    function getPercentageForSetERC721ContractRoyalty(address _contractAddress)\n        external\n        view\n        returns (uint8)\n    {\n        return contractRoyaltyPercentage[_contractAddress];\n    }\n\n    /////////////////////////////////////////////////////////////////////////\n    // setPercentageForSetERC721ContractRoyalty\n    /////////////////////////////////////////////////////////////////////////\n    /**\n     * @dev Sets the royalty percentage set for an ERC721 token\n     * Requirements:\n\n     * - `_percentage` must be <= 100.\n     * - only the owner of this contract.\n     * @param _contractAddress address ERC721Contract address.\n     * @param _percentage uint8 wei royalty fee.\n     */\n    function setPercentageForSetERC721ContractRoyalty(\n        address _contractAddress,\n        uint8 _percentage\n    ) external onlyOwner returns (uint8) {\n        require(\n            _percentage <= 100,\n            \"setPercentageForSetERC721ContractRoyalty::_percentage must be <= 100\"\n        );\n        contractRoyaltyPercentage[_contractAddress] = _percentage;\n    }\n\n    /////////////////////////////////////////////////////////////////////////\n    // calculateRoyaltyFee\n    /////////////////////////////////////////////////////////////////////////\n    /**\n     * @dev Utililty function to calculate the royalty fee for a token.\n     * @param _contractAddress address ERC721Contract address.\n     * @param _tokenId uint256 token ID.\n     * @param _amount uint256 wei amount.\n     * @return uint256 wei fee.\n     */\n    function calculateRoyaltyFee(\n        address _contractAddress,\n        uint256 _tokenId,\n        uint256 _amount\n    ) external override view returns (uint256) {\n        return\n            _amount\n                .mul(\n                getERC721TokenRoyaltyPercentage(_contractAddress, _tokenId)\n            )\n                .div(100);\n    }\n\n    /////////////////////////////////////////////////////////////////////////\n    // tokenCreator\n    /////////////////////////////////////////////////////////////////////////\n    /**\n     * @dev Gets the creator of the token\n     * @param _contractAddress address of the ERC721 contract\n     * @param _tokenId uint256 ID of the token\n     * @return address of the creator\n     */\n    function tokenCreator(address _contractAddress, uint256 _tokenId)\n        external\n        override\n        view\n        returns (address payable)\n    {\n        return iERC721TokenCreator.tokenCreator(_contractAddress, _tokenId);\n    }\n}\n",
  "sourcePath": "/Users/ismailcanvardar/Documents/freelance-works/intangible-contracts/contracts/SuperRareRoyaltyRegistry.sol",
  "compiler": {
    "name": "solc",
    "version": "0.6.12+commit.27d51765.Emscripten.clang"
  },
  "schemaVersion": "3.3.3",
  "updatedAt": "2021-03-13T15:15:39.774Z",
  "devdoc": {
    "kind": "dev",
    "methods": {
      "calculateRoyaltyFee(address,uint256,uint256)": {
        "details": "Utililty function to calculate the royalty fee for a token.",
        "params": {
          "_amount": "uint256 wei amount.",
          "_contractAddress": "address ERC721Contract address.",
          "_tokenId": "uint256 token ID."
        },
        "returns": {
          "_0": "uint256 wei fee."
        }
      },
      "getERC721TokenRoyaltyPercentage(address,uint256)": {
        "details": "Get the royalty fee percentage for a specific ERC721 contract.",
        "params": {
          "_contractAddress": "address ERC721Contract address.",
          "_tokenId": "uint256 token ID."
        },
        "returns": {
          "_0": "uint8 wei royalty fee."
        }
      },
      "getPercentageForSetERC721ContractRoyalty(address)": {
        "details": "Gets the royalty percentage set for an ERC721 contract",
        "params": {
          "_contractAddress": "address ERC721Contract address."
        },
        "returns": {
          "_0": "uint8 wei royalty fee."
        }
      },
      "getPercentageForSetERC721CreatorRoyalty(address,uint256)": {
        "details": "Gets the royalty percentage set for an ERC721 creator",
        "params": {
          "_contractAddress": "address ERC721Contract address.",
          "_tokenId": "uint256 token ID."
        },
        "returns": {
          "_0": "uint8 wei royalty fee."
        }
      },
      "getPercentageForSetERC721TokenRoyalty(address,uint256)": {
        "details": "Gets the royalty percentage set for an ERC721 token",
        "params": {
          "_contractAddress": "address ERC721Contract address.",
          "_tokenId": "uint256 token ID."
        },
        "returns": {
          "_0": "uint8 wei royalty fee."
        }
      },
      "owner()": {
        "details": "Returns the address of the current owner."
      },
      "renounceOwnership()": {
        "details": "Leaves the contract without owner. It will not be possible to call `onlyOwner` functions anymore. Can only be called by the current owner. NOTE: Renouncing ownership will leave the contract without an owner, thereby removing any functionality that is only available to the owner."
      },
      "setIERC721TokenCreator(address)": {
        "details": "Set an address as an IERC721TokenCreator",
        "params": {
          "_contractAddress": "address of the IERC721TokenCreator contract"
        }
      },
      "setPercentageForSetERC721ContractRoyalty(address,uint8)": {
        "details": "Sets the royalty percentage set for an ERC721 token Requirements: - `_percentage` must be <= 100. - only the owner of this contract.",
        "params": {
          "_contractAddress": "address ERC721Contract address.",
          "_percentage": "uint8 wei royalty fee."
        }
      },
      "setPercentageForSetERC721CreatorRoyalty(address,uint8)": {
        "details": "Sets the royalty percentage set for an ERC721 creator Requirements: - `_percentage` must be <= 100. - only the owner of this contract or the creator can call this method.",
        "params": {
          "_creatorAddress": "address token ID.",
          "_percentage": "uint8 wei royalty fee."
        }
      },
      "setPercentageForSetERC721TokenRoyalty(address,uint256,uint8)": {
        "details": "Sets the royalty percentage set for an ERC721 token Requirements: - `_percentage` must be <= 100. - only the owner of this contract or the creator can call this method.",
        "params": {
          "_contractAddress": "address ERC721Contract address.",
          "_percentage": "uint8 wei royalty fee.",
          "_tokenId": "uint256 token ID."
        }
      },
      "tokenCreator(address,uint256)": {
        "details": "Gets the creator of the token",
        "params": {
          "_contractAddress": "address of the ERC721 contract",
          "_tokenId": "uint256 ID of the token"
        },
        "returns": {
          "_0": "address of the creator"
        }
      },
      "transferOwnership(address)": {
        "details": "Transfers ownership of the contract to a new account (`newOwner`). Can only be called by the current owner."
      }
    },
    "title": "IERC721 Non-Fungible Token Creator basic interface",
    "version": 1
  },
  "userdoc": {
    "kind": "user",
    "methods": {},
    "version": 1
  }
}